{
  "contractName": "AdminUpgradeabilityProxy",
  "abi": [
    {
      "inputs": [
        {
          "internalType": "address",
          "name": "_logic",
          "type": "address"
        },
        {
          "internalType": "address",
          "name": "_admin",
          "type": "address"
        },
        {
          "internalType": "bytes",
          "name": "_data",
          "type": "bytes"
        }
      ],
      "stateMutability": "payable",
      "type": "constructor"
    },
    {
      "anonymous": false,
      "inputs": [
        {
          "indexed": false,
          "internalType": "address",
          "name": "previousAdmin",
          "type": "address"
        },
        {
          "indexed": false,
          "internalType": "address",
          "name": "newAdmin",
          "type": "address"
        }
      ],
      "name": "AdminChanged",
      "type": "event"
    },
    {
      "anonymous": false,
      "inputs": [
        {
          "indexed": true,
          "internalType": "address",
          "name": "implementation",
          "type": "address"
        }
      ],
      "name": "Upgraded",
      "type": "event"
    },
    {
      "stateMutability": "payable",
      "type": "fallback"
    },
    {
      "stateMutability": "payable",
      "type": "receive"
    },
    {
      "inputs": [],
      "name": "admin",
      "outputs": [
        {
          "internalType": "address",
          "name": "",
          "type": "address"
        }
      ],
      "stateMutability": "nonpayable",
      "type": "function"
    },
    {
      "inputs": [],
      "name": "implementation",
      "outputs": [
        {
          "internalType": "address",
          "name": "",
          "type": "address"
        }
      ],
      "stateMutability": "nonpayable",
      "type": "function"
    },
    {
      "inputs": [
        {
          "internalType": "address",
          "name": "newAdmin",
          "type": "address"
        }
      ],
      "name": "changeAdmin",
      "outputs": [],
      "stateMutability": "nonpayable",
      "type": "function"
    },
    {
      "inputs": [
        {
          "internalType": "address",
          "name": "newImplementation",
          "type": "address"
        }
      ],
      "name": "upgradeTo",
      "outputs": [],
      "stateMutability": "nonpayable",
      "type": "function"
    },
    {
      "inputs": [
        {
          "internalType": "address",
          "name": "newImplementation",
          "type": "address"
        },
        {
          "internalType": "bytes",
          "name": "data",
          "type": "bytes"
        }
      ],
      "name": "upgradeToAndCall",
      "outputs": [],
      "stateMutability": "payable",
      "type": "function"
    }
  ],
  "bytecode": "0x6080604052604051610cb7380380610cb78339818101604052606081101561002657600080fd5b8101908080519060200190929190805190602001909291908051604051939291908464010000000082111561005a57600080fd5b8382019150602082018581111561007057600080fd5b825186600182028301116401000000008211171561008d57600080fd5b8083526020830192505050908051906020019080838360005b838110156100c15780820151818401526020810190506100a6565b50505050905090810190601f1680156100ee5780820380516001836020036101000a031916815260200191505b506040525050508281600160405180807f656970313936372e70726f78792e696d706c656d656e746174696f6e00000000815250601c019050604051809103902060001c0360001b7f360894a13ba1a3210667c828492db98dca3e2076cc3735a920a3ca505d382bbc60001b1461016157fe5b610170826102bf60201b60201c565b60008151111561023c5760008273ffffffffffffffffffffffffffffffffffffffff16826040518082805190602001908083835b602083106101c757805182526020820191506020810190506020830392506101a4565b6001836020036101000a038019825116818451168082178552505050505050905001915050600060405180830381855af49150503d8060008114610227576040519150601f19603f3d011682016040523d82523d6000602084013e61022c565b606091505b505090508061023a57600080fd5b505b5050600160405180807f656970313936372e70726f78792e61646d696e000000000000000000000000008152506013019050604051809103902060001c0360001b7fb53127684a568b3173ae13b9f8a6016e243e63b6e8ee1178d6a717850b5d610360001b146102a857fe5b6102b78261035660201b60201c565b505050610398565b6102d28161038560201b6107e91760201c565b610327576040517f08c379a000000000000000000000000000000000000000000000000000000000815260040180806020018281038252603b815260200180610c7c603b913960400191505060405180910390fd5b60007f360894a13ba1a3210667c828492db98dca3e2076cc3735a920a3ca505d382bbc60001b90508181555050565b60007fb53127684a568b3173ae13b9f8a6016e243e63b6e8ee1178d6a717850b5d610360001b90508181555050565b600080823b905060008111915050919050565b6108d5806103a76000396000f3fe60806040526004361061004e5760003560e01c80633659cfe6146100675780634f1ef286146100b85780635c60da1b146101515780638f283970146101a8578063f851a440146101f95761005d565b3661005d5761005b610250565b005b610065610250565b005b34801561007357600080fd5b506100b66004803603602081101561008a57600080fd5b81019080803573ffffffffffffffffffffffffffffffffffffffff16906020019092919050505061026a565b005b61014f600480360360408110156100ce57600080fd5b81019080803573ffffffffffffffffffffffffffffffffffffffff1690602001909291908035906020019064010000000081111561010b57600080fd5b82018360208201111561011d57600080fd5b8035906020019184600183028401116401000000008311171561013f57600080fd5b90919293919293905050506102bf565b005b34801561015d57600080fd5b50610166610395565b604051808273ffffffffffffffffffffffffffffffffffffffff1673ffffffffffffffffffffffffffffffffffffffff16815260200191505060405180910390f35b3480156101b457600080fd5b506101f7600480360360208110156101cb57600080fd5b81019080803573ffffffffffffffffffffffffffffffffffffffff1690602001909291905050506103ed565b005b34801561020557600080fd5b5061020e610566565b604051808273ffffffffffffffffffffffffffffffffffffffff1673ffffffffffffffffffffffffffffffffffffffff16815260200191505060405180910390f35b6102586105be565b610268610263610654565b610685565b565b6102726106ab565b73ffffffffffffffffffffffffffffffffffffffff163373ffffffffffffffffffffffffffffffffffffffff1614156102b3576102ae816106dc565b6102bc565b6102bb610250565b5b50565b6102c76106ab565b73ffffffffffffffffffffffffffffffffffffffff163373ffffffffffffffffffffffffffffffffffffffff16141561038757610303836106dc565b60008373ffffffffffffffffffffffffffffffffffffffff168383604051808383808284378083019250505092505050600060405180830381855af49150503d806000811461036e576040519150601f19603f3d011682016040523d82523d6000602084013e610373565b606091505b505090508061038157600080fd5b50610390565b61038f610250565b5b505050565b600061039f6106ab565b73ffffffffffffffffffffffffffffffffffffffff163373ffffffffffffffffffffffffffffffffffffffff1614156103e1576103da610654565b90506103ea565b6103e9610250565b5b90565b6103f56106ab565b73ffffffffffffffffffffffffffffffffffffffff163373ffffffffffffffffffffffffffffffffffffffff16141561055a57600073ffffffffffffffffffffffffffffffffffffffff168173ffffffffffffffffffffffffffffffffffffffff1614156104ae576040517f08c379a000000000000000000000000000000000000000000000000000000000815260040180806020018281038252603681526020018061082f6036913960400191505060405180910390fd5b7f7e644d79422f17c01e4894b5f4f588d331ebfa28653d42ae832dc59e38c9798f6104d76106ab565b82604051808373ffffffffffffffffffffffffffffffffffffffff1673ffffffffffffffffffffffffffffffffffffffff1681526020018273ffffffffffffffffffffffffffffffffffffffff1673ffffffffffffffffffffffffffffffffffffffff1681526020019250505060405180910390a16105558161072b565b610563565b610562610250565b5b50565b60006105706106ab565b73ffffffffffffffffffffffffffffffffffffffff163373ffffffffffffffffffffffffffffffffffffffff1614156105b2576105ab6106ab565b90506105bb565b6105ba610250565b5b90565b6105c66106ab565b73ffffffffffffffffffffffffffffffffffffffff163373ffffffffffffffffffffffffffffffffffffffff16141561064a576040517f08c379a00000000000000000000000000000000000000000000000000000000081526004018080602001828103825260328152602001806107fd6032913960400191505060405180910390fd5b61065261075a565b565b6000807f360894a13ba1a3210667c828492db98dca3e2076cc3735a920a3ca505d382bbc60001b9050805491505090565b3660008037600080366000845af43d6000803e80600081146106a6573d6000f35b3d6000fd5b6000807fb53127684a568b3173ae13b9f8a6016e243e63b6e8ee1178d6a717850b5d610360001b9050805491505090565b6106e58161075c565b8073ffffffffffffffffffffffffffffffffffffffff167fbc7cd75a20ee27fd9adebab32041f755214dbc6bffa90cc0225b39da2e5c2d3b60405160405180910390a250565b60007fb53127684a568b3173ae13b9f8a6016e243e63b6e8ee1178d6a717850b5d610360001b90508181555050565b565b610765816107e9565b6107ba576040517f08c379a000000000000000000000000000000000000000000000000000000000815260040180806020018281038252603b815260200180610865603b913960400191505060405180910390fd5b60007f360894a13ba1a3210667c828492db98dca3e2076cc3735a920a3ca505d382bbc60001b90508181555050565b600080823b90506000811191505091905056fe43616e6e6f742063616c6c2066616c6c6261636b2066756e6374696f6e2066726f6d207468652070726f78792061646d696e43616e6e6f74206368616e6765207468652061646d696e206f6620612070726f787920746f20746865207a65726f206164647265737343616e6e6f742073657420612070726f787920696d706c656d656e746174696f6e20746f2061206e6f6e2d636f6e74726163742061646472657373a2646970667358221220b29d170f42a5bf3dbac4193273ef7848bf42d896b45d81fb16361d663dc539ad64736f6c6343000606003343616e6e6f742073657420612070726f787920696d706c656d656e746174696f6e20746f2061206e6f6e2d636f6e74726163742061646472657373",
  "immutableReferences": {},
  "source": "// SPDX-License-Identifier: MIT\r\n\r\npragma solidity ^0.6.0;\r\n\r\nimport './UpgradeabilityProxy.sol';\r\n\r\n/**\r\n * @title AdminUpgradeabilityProxy\r\n * @dev This contract combines an upgradeability proxy with an authorization\r\n * mechanism for administrative tasks.\r\n * All external functions in this contract must be guarded by the\r\n * `ifAdmin` modifier. See ethereum/solidity#3864 for a Solidity\r\n * feature proposal that would enable this to be done automatically.\r\n */\r\ncontract AdminUpgradeabilityProxy is UpgradeabilityProxy {\r\n  /**\r\n   * Contract constructor.\r\n   * @param _logic address of the initial implementation.\r\n   * @param _admin Address of the proxy administrator.\r\n   * @param _data Data to send as msg.data to the implementation to initialize the proxied contract.\r\n   * It should include the signature and the parameters of the function to be called, as described in\r\n   * https://solidity.readthedocs.io/en/v0.4.24/abi-spec.html#function-selector-and-argument-encoding.\r\n   * This parameter is optional, if no data is given the initialization call to proxied contract will be skipped.\r\n   */\r\n  constructor(address _logic, address _admin, bytes memory _data) UpgradeabilityProxy(_logic, _data) public payable {\r\n    assert(ADMIN_SLOT == bytes32(uint256(keccak256('eip1967.proxy.admin')) - 1));\r\n    _setAdmin(_admin);\r\n  }\r\n\r\n  /**\r\n   * @dev Emitted when the administration has been transferred.\r\n   * @param previousAdmin Address of the previous admin.\r\n   * @param newAdmin Address of the new admin.\r\n   */\r\n  event AdminChanged(address previousAdmin, address newAdmin);\r\n\r\n  /**\r\n   * @dev Storage slot with the admin of the contract.\r\n   * This is the keccak-256 hash of \"eip1967.proxy.admin\" subtracted by 1, and is\r\n   * validated in the constructor.\r\n   */\r\n\r\n  bytes32 internal constant ADMIN_SLOT = 0xb53127684a568b3173ae13b9f8a6016e243e63b6e8ee1178d6a717850b5d6103;\r\n\r\n  /**\r\n   * @dev Modifier to check whether the `msg.sender` is the admin.\r\n   * If it is, it will run the function. Otherwise, it will delegate the call\r\n   * to the implementation.\r\n   */\r\n  modifier ifAdmin() {\r\n    if (msg.sender == _admin()) {\r\n      _;\r\n    } else {\r\n      _fallback();\r\n    }\r\n  }\r\n\r\n  /**\r\n   * @return The address of the proxy admin.\r\n   */\r\n  function admin() external ifAdmin returns (address) {\r\n    return _admin();\r\n  }\r\n\r\n  /**\r\n   * @return The address of the implementation.\r\n   */\r\n  function implementation() external ifAdmin returns (address) {\r\n    return _implementation();\r\n  }\r\n\r\n  /**\r\n   * @dev Changes the admin of the proxy.\r\n   * Only the current admin can call this function.\r\n   * @param newAdmin Address to transfer proxy administration to.\r\n   */\r\n  function changeAdmin(address newAdmin) external ifAdmin {\r\n    require(newAdmin != address(0), \"Cannot change the admin of a proxy to the zero address\");\r\n    emit AdminChanged(_admin(), newAdmin);\r\n    _setAdmin(newAdmin);\r\n  }\r\n\r\n  /**\r\n   * @dev Upgrade the backing implementation of the proxy.\r\n   * Only the admin can call this function.\r\n   * @param newImplementation Address of the new implementation.\r\n   */\r\n  function upgradeTo(address newImplementation) external ifAdmin {\r\n    _upgradeTo(newImplementation);\r\n  }\r\n\r\n  /**\r\n   * @dev Upgrade the backing implementation of the proxy and call a function\r\n   * on the new implementation.\r\n   * This is useful to initialize the proxied contract.\r\n   * @param newImplementation Address of the new implementation.\r\n   * @param data Data to send as msg.data in the low level call.\r\n   * It should include the signature and the parameters of the function to be called, as described in\r\n   * https://solidity.readthedocs.io/en/v0.4.24/abi-spec.html#function-selector-and-argument-encoding.\r\n   */\r\n  function upgradeToAndCall(address newImplementation, bytes calldata data) payable external ifAdmin {\r\n    _upgradeTo(newImplementation);\r\n    (bool success,) = newImplementation.delegatecall(data);\r\n    require(success);\r\n  }\r\n\r\n  /**\r\n   * @return adm The admin slot.\r\n   */\r\n  function _admin() internal view returns (address adm) {\r\n    bytes32 slot = ADMIN_SLOT;\r\n    assembly {\r\n      adm := sload(slot)\r\n    }\r\n  }\r\n\r\n  /**\r\n   * @dev Sets the address of the proxy admin.\r\n   * @param newAdmin Address of the new proxy admin.\r\n   */\r\n  function _setAdmin(address newAdmin) internal {\r\n    bytes32 slot = ADMIN_SLOT;\r\n\r\n    assembly {\r\n      sstore(slot, newAdmin)\r\n    }\r\n  }\r\n\r\n  /**\r\n   * @dev Only fall back when the sender is not the admin.\r\n   */\r\n  function _willFallback() internal override virtual {\r\n    require(msg.sender != _admin(), \"Cannot call fallback function from the proxy admin\");\r\n    super._willFallback();\r\n  }\r\n}",
  "sourcePath": "F:\\Projects\\kyyle\\deployment-tests\\contracts\\v6\\ProxyContracts\\AdminUpgradeabilityProxy.sol",
  "compiler": {
    "name": "solc",
    "version": "0.6.6+commit.6c089d02.Emscripten.clang"
  },
  "schemaVersion": "3.2.2-next.0",
  "updatedAt": "2021-03-29T21:26:45.024Z",
  "devdoc": {
    "details": "This contract combines an upgradeability proxy with an authorization mechanism for administrative tasks. All external functions in this contract must be guarded by the `ifAdmin` modifier. See ethereum/solidity#3864 for a Solidity feature proposal that would enable this to be done automatically.",
    "methods": {
      "changeAdmin(address)": {
        "details": "Changes the admin of the proxy. Only the current admin can call this function.",
        "params": {
          "newAdmin": "Address to transfer proxy administration to."
        }
      },
      "constructor": {
        "params": {
          "_admin": "Address of the proxy administrator.",
          "_data": "Data to send as msg.data to the implementation to initialize the proxied contract. It should include the signature and the parameters of the function to be called, as described in https://solidity.readthedocs.io/en/v0.4.24/abi-spec.html#function-selector-and-argument-encoding. This parameter is optional, if no data is given the initialization call to proxied contract will be skipped.",
          "_logic": "address of the initial implementation."
        }
      },
      "upgradeTo(address)": {
        "details": "Upgrade the backing implementation of the proxy. Only the admin can call this function.",
        "params": {
          "newImplementation": "Address of the new implementation."
        }
      },
      "upgradeToAndCall(address,bytes)": {
        "details": "Upgrade the backing implementation of the proxy and call a function on the new implementation. This is useful to initialize the proxied contract.",
        "params": {
          "data": "Data to send as msg.data in the low level call. It should include the signature and the parameters of the function to be called, as described in https://solidity.readthedocs.io/en/v0.4.24/abi-spec.html#function-selector-and-argument-encoding.",
          "newImplementation": "Address of the new implementation."
        }
      }
    },
    "title": "AdminUpgradeabilityProxy"
  },
  "userdoc": {
    "methods": {
      "constructor": "Contract constructor."
    }
  }
}