{
  "contractName": "APIConsumer",
  "abi": [
    {
      "inputs": [
        {
          "internalType": "address",
          "name": "_oracle",
          "type": "address"
        },
        {
          "internalType": "address",
          "name": "_maestro",
          "type": "address"
        }
      ],
      "stateMutability": "nonpayable",
      "type": "constructor"
    },
    {
      "anonymous": false,
      "inputs": [
        {
          "indexed": true,
          "internalType": "bytes32",
          "name": "id",
          "type": "bytes32"
        }
      ],
      "name": "ChainlinkCancelled",
      "type": "event"
    },
    {
      "anonymous": false,
      "inputs": [
        {
          "indexed": true,
          "internalType": "bytes32",
          "name": "id",
          "type": "bytes32"
        }
      ],
      "name": "ChainlinkFulfilled",
      "type": "event"
    },
    {
      "anonymous": false,
      "inputs": [
        {
          "indexed": true,
          "internalType": "bytes32",
          "name": "id",
          "type": "bytes32"
        }
      ],
      "name": "ChainlinkRequested",
      "type": "event"
    },
    {
      "inputs": [],
      "name": "maestro",
      "outputs": [
        {
          "internalType": "address",
          "name": "",
          "type": "address"
        }
      ],
      "stateMutability": "view",
      "type": "function"
    },
    {
      "inputs": [],
      "name": "oracleReport",
      "outputs": [
        {
          "internalType": "address",
          "name": "",
          "type": "address"
        }
      ],
      "stateMutability": "view",
      "type": "function"
    },
    {
      "inputs": [],
      "name": "volume",
      "outputs": [
        {
          "internalType": "uint256",
          "name": "",
          "type": "uint256"
        }
      ],
      "stateMutability": "view",
      "type": "function"
    },
    {
      "inputs": [],
      "name": "requestVolumeData",
      "outputs": [
        {
          "internalType": "bytes32",
          "name": "requestId",
          "type": "bytes32"
        }
      ],
      "stateMutability": "nonpayable",
      "type": "function"
    },
    {
      "inputs": [
        {
          "internalType": "bytes32",
          "name": "_requestId",
          "type": "bytes32"
        },
        {
          "internalType": "uint256",
          "name": "_volume",
          "type": "uint256"
        }
      ],
      "name": "fulfill",
      "outputs": [],
      "stateMutability": "nonpayable",
      "type": "function"
    }
  ],
  "bytecode": "0x6080604052600160045534801561001557600080fd5b506040516114623803806114628339818101604052604081101561003857600080fd5b81019080805190602001909291908051906020019092919050505061006161017560201b60201c565b73aa1dc356dc4b18f30c347798fd5379f3d77abc5b600760006101000a81548173ffffffffffffffffffffffffffffffffffffffff021916908373ffffffffffffffffffffffffffffffffffffffff1602179055507f633764643732636131346234346630633962366366636434623765633061326360088190555067016345785d8a000060098190555081600a60006101000a81548173ffffffffffffffffffffffffffffffffffffffff021916908373ffffffffffffffffffffffffffffffffffffffff16021790555080600b60006101000a81548173ffffffffffffffffffffffffffffffffffffffff021916908373ffffffffffffffffffffffffffffffffffffffff160217905550505061025e565b61021873c89bd4e1632d3a43cb03aaad5262cbe4038bc57173ffffffffffffffffffffffffffffffffffffffff166338cc48316040518163ffffffff1660e01b815260040160206040518083038186803b1580156101d257600080fd5b505afa1580156101e6573d6000803e3d6000fd5b505050506040513d60208110156101fc57600080fd5b810190808051906020019092919050505061021a60201b60201c565b565b80600260006101000a81548173ffffffffffffffffffffffffffffffffffffffff021916908373ffffffffffffffffffffffffffffffffffffffff16021790555050565b6111f58061026d6000396000f3fe608060405234801561001057600080fd5b50600436106100575760003560e01c80634357855e1461005c57806354f184e0146100945780636021abac146100de578063bf13b4e3146100fc578063c618a1e414610146575b600080fd5b6100926004803603604081101561007257600080fd5b810190808035906020019092919080359060200190929190505050610164565b005b61009c61039c565b604051808273ffffffffffffffffffffffffffffffffffffffff1673ffffffffffffffffffffffffffffffffffffffff16815260200191505060405180910390f35b6100e66103c2565b6040518082815260200191505060405180910390f35b610104610550565b604051808273ffffffffffffffffffffffffffffffffffffffff1673ffffffffffffffffffffffffffffffffffffffff16815260200191505060405180910390f35b61014e610576565b6040518082815260200191505060405180910390f35b816005600082815260200190815260200160002060009054906101000a900473ffffffffffffffffffffffffffffffffffffffff1673ffffffffffffffffffffffffffffffffffffffff163373ffffffffffffffffffffffffffffffffffffffff161461021c576040517f08c379a00000000000000000000000000000000000000000000000000000000081526004018080602001828103825260288152602001806111986028913960400191505060405180910390fd5b6005600082815260200190815260200160002060006101000a81549073ffffffffffffffffffffffffffffffffffffffff0219169055807f7cc135e0cebb02c3480ae5d74d377283180a2601f8f644edf7987b009316c63a60405160405180910390a281600681905550600a60009054906101000a900473ffffffffffffffffffffffffffffffffffffffff1673ffffffffffffffffffffffffffffffffffffffff16631e20d14b6006546040518263ffffffff1660e01b815260040180828152602001915050600060405180830381600087803b1580156102fd57600080fd5b505af1158015610311573d6000803e3d6000fd5b50505050600b60009054906101000a900473ffffffffffffffffffffffffffffffffffffffff1673ffffffffffffffffffffffffffffffffffffffff1663af14052c6040518163ffffffff1660e01b8152600401600060405180830381600087803b15801561037f57600080fd5b505af1158015610393573d6000803e3d6000fd5b50505050505050565b600a60009054906101000a900473ffffffffffffffffffffffffffffffffffffffff1681565b60006103cc611094565b6103e060085430634357855e60e01b61057c565b90506104446040518060400160405280600381526020017f676574000000000000000000000000000000000000000000000000000000000081525060405180608001604052806059815260200161113f60599139836105ad9092919063ffffffff16565b6104c36040518060400160405280600481526020017f70617468000000000000000000000000000000000000000000000000000000008152506040518060400160405280601081526020017f646174617365742e646174612e302e3100000000000000000000000000000000815250836105ad9092919063ffffffff16565b6000670de0b6b3a7640000905061051a6040518060400160405280600581526020017f74696d657300000000000000000000000000000000000000000000000000000081525082846105e09092919063ffffffff16565b610549600760009054906101000a900473ffffffffffffffffffffffffffffffffffffffff1683600954610613565b9250505090565b600b60009054906101000a900473ffffffffffffffffffffffffffffffffffffffff1681565b60065481565b610584611094565b61058c611094565b6105a3858585846108cb909392919063ffffffff16565b9150509392505050565b6105c482846080015161097b90919063ffffffff16565b6105db81846080015161097b90919063ffffffff16565b505050565b6105f782846080015161097b90919063ffffffff16565b61060e8184608001516109a090919063ffffffff16565b505050565b600030600454604051602001808373ffffffffffffffffffffffffffffffffffffffff1673ffffffffffffffffffffffffffffffffffffffff1660601b815260140182815260200192505050604051602081830303815290604052805190602001209050600454836060018181525050836005600083815260200190815260200160002060006101000a81548173ffffffffffffffffffffffffffffffffffffffff021916908373ffffffffffffffffffffffffffffffffffffffff160217905550807fb5e6e01e79f91267dc17b4e6314d5d4d03593d2ceee0fbb452b750bd70ea5af960405160405180910390a2600260009054906101000a900473ffffffffffffffffffffffffffffffffffffffff1673ffffffffffffffffffffffffffffffffffffffff16634000aea0858461074b87610a44565b6040518463ffffffff1660e01b8152600401808473ffffffffffffffffffffffffffffffffffffffff1673ffffffffffffffffffffffffffffffffffffffff16815260200183815260200180602001828103825283818151815260200191508051906020019080838360005b838110156107d25780820151818401526020810190506107b7565b50505050905090810190601f1680156107ff5780820380516001836020036101000a031916815260200191505b50945050505050602060405180830381600087803b15801561082057600080fd5b505af1158015610834573d6000803e3d6000fd5b505050506040513d602081101561084a57600080fd5b81019080805190602001909291905050506108b0576040517f08c379a000000000000000000000000000000000000000000000000000000000815260040180806020018281038252602381526020018061111c6023913960400191505060405180910390fd5b60016004600082825401925050819055508090509392505050565b6108d3611094565b6108e38560800151610100610c10565b508385600001818152505082856020019073ffffffffffffffffffffffffffffffffffffffff16908173ffffffffffffffffffffffffffffffffffffffff16815250508185604001907bffffffffffffffffffffffffffffffffffffffffffffffffffffffff191690817bffffffffffffffffffffffffffffffffffffffffffffffffffffffff191681525050849050949350505050565b6109888260038351610c64565b61099b8183610da990919063ffffffff16565b505050565b7fffffffffffffffffffffffffffffffffffffffffffffffff00000000000000008112156109d7576109d28282610dcb565b610a40565b67ffffffffffffffff8113156109f6576109f18282610e39565b610a3f565b60008112610a0f57610a0a82600083610c64565b610a3e565b610a3d826001837fffffffffffffffffffffffffffffffffffffffffffffffffffffffffffffffff03610c64565b5b5b5b5050565b6060634042994660e01b60008084600001518560200151866040015187606001516001896080015160000151604051602401808973ffffffffffffffffffffffffffffffffffffffff1673ffffffffffffffffffffffffffffffffffffffff1681526020018881526020018781526020018673ffffffffffffffffffffffffffffffffffffffff1673ffffffffffffffffffffffffffffffffffffffff168152602001857bffffffffffffffffffffffffffffffffffffffffffffffffffffffff19167bffffffffffffffffffffffffffffffffffffffffffffffffffffffff1916815260200184815260200183815260200180602001828103825283818151815260200191508051906020019080838360005b83811015610b73578082015181840152602081019050610b58565b50505050905090810190601f168015610ba05780820380516001836020036101000a031916815260200191505b509950505050505050505050604051602081830303815290604052907bffffffffffffffffffffffffffffffffffffffffffffffffffffffff19166020820180517bffffffffffffffffffffffffffffffffffffffffffffffffffffffff83818316178352505050509050919050565b610c18611101565b600060208381610c2457fe5b0614610c3d5760208281610c3457fe5b06602003820191505b81836020018181525050604051808452600081528281016020016040525082905092915050565b60178111610c9157610c8b8160058460ff16901b60ff161784610e8590919063ffffffff16565b50610da4565b60ff8111610cd357610cb6601860058460ff16901b1784610e8590919063ffffffff16565b50610ccd81600185610ea59092919063ffffffff16565b50610da3565b61ffff8111610d1657610cf9601960058460ff16901b1784610e8590919063ffffffff16565b50610d1081600285610ea59092919063ffffffff16565b50610da2565b63ffffffff8111610d5b57610d3e601a60058460ff16901b1784610e8590919063ffffffff16565b50610d5581600485610ea59092919063ffffffff16565b50610da1565b67ffffffffffffffff8111610da057610d87601b60058460ff16901b1784610e8590919063ffffffff16565b50610d9e81600885610ea59092919063ffffffff16565b505b5b5b5b5b505050565b610db1611101565b610dc383846000015151848551610ec7565b905092915050565b610de960036005600660ff16901b1783610e8590919063ffffffff16565b50610e3582827fffffffffffffffffffffffffffffffffffffffffffffffffffffffffffffffff0360405160200180828152602001915050604051602081830303815290604052610f80565b5050565b610e5760026005600660ff16901b1783610e8590919063ffffffff16565b50610e81828260405160200180828152602001915050604051602081830303815290604052610f80565b5050565b610e8d611101565b610e9d8384600001515184610fa5565b905092915050565b610ead611101565b610ebe848560000151518585610ff3565b90509392505050565b610ecf611101565b8251821115610edd57600080fd5b84602001518285011115610f0857610f07856002610f018860200151888701611054565b02611070565b5b600080865180518760208301019350808887011115610f275787860182525b60208701925050505b60208410610f535780518252602082019150602081019050602084039350610f30565b60006001856020036101000a03905080198251168184511681811785525050879350505050949350505050565b610f8d8260028351610c64565b610fa08183610da990919063ffffffff16565b505050565b610fad611101565b83602001518310610fca57610fc9846002866020015102611070565b5b8351805160208583010184815381861415610fe6576001820183525b5050508390509392505050565b610ffb611101565b846020015184830111156110195761101885600286850102611070565b5b60006001836101000a03905085518386820101858319825116178152815185880111156110465784870182525b505085915050949350505050565b6000818311156110665782905061106a565b8190505b92915050565b6060826000015190506110838383610c10565b5061108e8382610da9565b50505050565b6040518060a0016040528060008019168152602001600073ffffffffffffffffffffffffffffffffffffffff16815260200160007bffffffffffffffffffffffffffffffffffffffffffffffffffffffff19168152602001600081526020016110fb611101565b81525090565b60405180604001604052806060815260200160008152509056fe756e61626c6520746f207472616e73666572416e6443616c6c20746f206f7261636c6568747470733a2f2f7777772e7175616e646c2e636f6d2f6170692f76332f64617461736574732f524943492f524943492e6a736f6e3f726f77733d31266170695f6b65793d507973534677334b4a5371456a35796a4837502d536f75726365206d75737420626520746865206f7261636c65206f66207468652072657175657374a2646970667358221220130c8baa026aaae69fa4bcd8651d58d71f49ff28e6599b78a32fd7c650eb99bf64736f6c63430006060033",
  "immutableReferences": {},
  "source": "pragma solidity ^0.6.0;\r\n\r\nimport \"@chainlink/contracts/src/v0.6/ChainlinkClient.sol\";\r\n\r\ninterface IMedianOracle {\r\n    function pushReport(uint256 payload) external;\r\n}\r\n\r\ninterface IMaestro {\r\n    function rebase() external;\r\n}\r\n\r\ncontract APIConsumer is ChainlinkClient {\r\n  \r\n    uint256 public volume;\r\n    \r\n    address private oracle;\r\n    bytes32 private jobId;\r\n    uint256 private fee;\r\n    address public oracleReport;\r\n    address public maestro;\r\n    \r\n    /**\r\n     * Network: Kovan\r\n     * Oracle: 0x2f90A6D021db21e1B2A077c5a37B3C7E75D15b7e\r\n     * Job ID: 29fa9aa13bf1468788b7cc4a500a45b8\r\n     * Fee: 0.1 LINK\r\n     */\r\n    constructor(address _oracle, address _maestro) public {\r\n        setPublicChainlinkToken();\r\n        oracle = 0xAA1DC356dc4B18f30C347798FD5379F3D77ABC5b;\r\n        jobId = \"c7dd72ca14b44f0c9b6cfcd4b7ec0a2c\";\r\n        fee = 0.1 * 10 ** 18; // 0.1 LINK\r\n        oracleReport = _oracle;\r\n        maestro = _maestro;\r\n    }\r\n    \r\n    /**\r\n     * Create a Chainlink request to retrieve API response, find the target\r\n     * data, then multiply by 1000000000000000000 (to remove decimal places from data).\r\n     */\r\n    function requestVolumeData() public returns (bytes32 requestId) \r\n    {\r\n        Chainlink.Request memory request = buildChainlinkRequest(jobId, address(this), this.fulfill.selector);\r\n        \r\n        // Set the URL to perform the GET request on\r\n        request.add(\"get\", \"https://www.quandl.com/api/v3/datasets/RICI/RICI.json?rows=1&api_key=PysSFw3KJSqEj5yjH7P-\");\r\n        request.add(\"path\", \"dataset.data.0.1\");\r\n        \r\n        // Multiply the result by 1000000000000000000 to remove decimals\r\n        int timesAmount = 10**18;\r\n        request.addInt(\"times\", timesAmount);\r\n        \r\n        // Sends the request\r\n        return sendChainlinkRequestTo(oracle, request, fee);\r\n    }\r\n    \r\n    /**\r\n     * Receive the response in the form of uint256\r\n     */ \r\n    function fulfill(bytes32 _requestId, uint256 _volume) public recordChainlinkFulfillment(_requestId)\r\n    {\r\n        volume = _volume;\r\n        IMedianOracle(oracleReport).pushReport(volume);\r\n        IMaestro(maestro).rebase();\r\n    }\r\n}",
  "sourcePath": "F:\\Projects\\kyyle\\deployment-tests\\contracts\\v6\\APIConsumer.sol",
  "compiler": {
    "name": "solc",
    "version": "0.6.6+commit.6c089d02.Emscripten.clang"
  },
  "schemaVersion": "3.2.2-next.0",
  "updatedAt": "2021-03-29T21:26:43.250Z",
  "devdoc": {
    "methods": {}
  },
  "userdoc": {
    "methods": {
      "constructor": "Network: Kovan Oracle: 0x2f90A6D021db21e1B2A077c5a37B3C7E75D15b7e Job ID: 29fa9aa13bf1468788b7cc4a500a45b8 Fee: 0.1 LINK",
      "fulfill(bytes32,uint256)": {
        "notice": "Receive the response in the form of uint256"
      },
      "requestVolumeData()": {
        "notice": "Create a Chainlink request to retrieve API response, find the target data, then multiply by 1000000000000000000 (to remove decimal places from data)."
      }
    }
  }
}