{
  "contractName": "CommmodityOracle",
  "abi": [
    {
      "constant": true,
      "inputs": [],
      "name": "reportDelaySec",
      "outputs": [
        {
          "name": "",
          "type": "uint256"
        }
      ],
      "payable": false,
      "stateMutability": "view",
      "type": "function"
    },
    {
      "constant": true,
      "inputs": [
        {
          "name": "",
          "type": "uint256"
        }
      ],
      "name": "providers",
      "outputs": [
        {
          "name": "",
          "type": "address"
        }
      ],
      "payable": false,
      "stateMutability": "view",
      "type": "function"
    },
    {
      "constant": false,
      "inputs": [],
      "name": "renounceOwnership",
      "outputs": [],
      "payable": false,
      "stateMutability": "nonpayable",
      "type": "function"
    },
    {
      "constant": true,
      "inputs": [],
      "name": "owner",
      "outputs": [
        {
          "name": "",
          "type": "address"
        }
      ],
      "payable": false,
      "stateMutability": "view",
      "type": "function"
    },
    {
      "constant": true,
      "inputs": [],
      "name": "isOwner",
      "outputs": [
        {
          "name": "",
          "type": "bool"
        }
      ],
      "payable": false,
      "stateMutability": "view",
      "type": "function"
    },
    {
      "constant": true,
      "inputs": [],
      "name": "minimumProviders",
      "outputs": [
        {
          "name": "",
          "type": "uint256"
        }
      ],
      "payable": false,
      "stateMutability": "view",
      "type": "function"
    },
    {
      "constant": false,
      "inputs": [
        {
          "name": "sender",
          "type": "address"
        }
      ],
      "name": "initialize",
      "outputs": [],
      "payable": false,
      "stateMutability": "nonpayable",
      "type": "function"
    },
    {
      "constant": true,
      "inputs": [],
      "name": "reportExpirationTimeSec",
      "outputs": [
        {
          "name": "",
          "type": "uint256"
        }
      ],
      "payable": false,
      "stateMutability": "view",
      "type": "function"
    },
    {
      "constant": true,
      "inputs": [
        {
          "name": "",
          "type": "address"
        },
        {
          "name": "",
          "type": "uint256"
        }
      ],
      "name": "providerReports",
      "outputs": [
        {
          "name": "timestamp",
          "type": "uint256"
        },
        {
          "name": "payload",
          "type": "uint256"
        }
      ],
      "payable": false,
      "stateMutability": "view",
      "type": "function"
    },
    {
      "constant": false,
      "inputs": [
        {
          "name": "newOwner",
          "type": "address"
        }
      ],
      "name": "transferOwnership",
      "outputs": [],
      "payable": false,
      "stateMutability": "nonpayable",
      "type": "function"
    },
    {
      "inputs": [
        {
          "name": "reportExpirationTimeSec_",
          "type": "uint256"
        },
        {
          "name": "reportDelaySec_",
          "type": "uint256"
        },
        {
          "name": "minimumProviders_",
          "type": "uint256"
        }
      ],
      "payable": false,
      "stateMutability": "nonpayable",
      "type": "constructor"
    },
    {
      "anonymous": false,
      "inputs": [
        {
          "indexed": false,
          "name": "provider",
          "type": "address"
        }
      ],
      "name": "ProviderAdded",
      "type": "event"
    },
    {
      "anonymous": false,
      "inputs": [
        {
          "indexed": false,
          "name": "provider",
          "type": "address"
        }
      ],
      "name": "ProviderRemoved",
      "type": "event"
    },
    {
      "anonymous": false,
      "inputs": [
        {
          "indexed": false,
          "name": "provider",
          "type": "address"
        }
      ],
      "name": "ReportTimestampOutOfRange",
      "type": "event"
    },
    {
      "anonymous": false,
      "inputs": [
        {
          "indexed": true,
          "name": "provider",
          "type": "address"
        },
        {
          "indexed": false,
          "name": "payload",
          "type": "uint256"
        },
        {
          "indexed": false,
          "name": "timestamp",
          "type": "uint256"
        }
      ],
      "name": "ProviderReportPushed",
      "type": "event"
    },
    {
      "anonymous": false,
      "inputs": [
        {
          "indexed": true,
          "name": "previousOwner",
          "type": "address"
        }
      ],
      "name": "OwnershipRenounced",
      "type": "event"
    },
    {
      "anonymous": false,
      "inputs": [
        {
          "indexed": true,
          "name": "previousOwner",
          "type": "address"
        },
        {
          "indexed": true,
          "name": "newOwner",
          "type": "address"
        }
      ],
      "name": "OwnershipTransferred",
      "type": "event"
    },
    {
      "constant": false,
      "inputs": [
        {
          "name": "reportExpirationTimeSec_",
          "type": "uint256"
        }
      ],
      "name": "setReportExpirationTimeSec",
      "outputs": [],
      "payable": false,
      "stateMutability": "nonpayable",
      "type": "function"
    },
    {
      "constant": false,
      "inputs": [
        {
          "name": "reportDelaySec_",
          "type": "uint256"
        }
      ],
      "name": "setReportDelaySec",
      "outputs": [],
      "payable": false,
      "stateMutability": "nonpayable",
      "type": "function"
    },
    {
      "constant": false,
      "inputs": [
        {
          "name": "minimumProviders_",
          "type": "uint256"
        }
      ],
      "name": "setMinimumProviders",
      "outputs": [],
      "payable": false,
      "stateMutability": "nonpayable",
      "type": "function"
    },
    {
      "constant": false,
      "inputs": [
        {
          "name": "payload",
          "type": "uint256"
        }
      ],
      "name": "pushReport",
      "outputs": [],
      "payable": false,
      "stateMutability": "nonpayable",
      "type": "function"
    },
    {
      "constant": false,
      "inputs": [],
      "name": "purgeReports",
      "outputs": [],
      "payable": false,
      "stateMutability": "nonpayable",
      "type": "function"
    },
    {
      "constant": false,
      "inputs": [],
      "name": "getData",
      "outputs": [
        {
          "name": "",
          "type": "uint256"
        },
        {
          "name": "",
          "type": "bool"
        }
      ],
      "payable": false,
      "stateMutability": "nonpayable",
      "type": "function"
    },
    {
      "constant": false,
      "inputs": [
        {
          "name": "provider",
          "type": "address"
        }
      ],
      "name": "addProvider",
      "outputs": [],
      "payable": false,
      "stateMutability": "nonpayable",
      "type": "function"
    },
    {
      "constant": false,
      "inputs": [
        {
          "name": "provider",
          "type": "address"
        }
      ],
      "name": "removeProvider",
      "outputs": [],
      "payable": false,
      "stateMutability": "nonpayable",
      "type": "function"
    },
    {
      "constant": true,
      "inputs": [],
      "name": "providersSize",
      "outputs": [
        {
          "name": "",
          "type": "uint256"
        }
      ],
      "payable": false,
      "stateMutability": "view",
      "type": "function"
    }
  ],
  "bytecode": "0x60806040526001606a5534801561001557600080fd5b506040516060806119218339810180604052810190808051906020019092919080519060200190929190805190602001909291905050506312bed400831115151561005f57600080fd5b60008111151561006e57600080fd5b826068819055508160698190555080606a8190555050505061188c806100956000396000f300608060405260043610610107576000357c0100000000000000000000000000000000000000000000000000000000900463ffffffff16806312e800f11461010c5780631e20d14b146101375780633bc5de301461016457806346e2577a1461019a57806350f3fc81146101dd578063715018a61461024a5780638a355a57146102615780638da5cb5b146102a45780638f32d59b146102fb578063b577c0c71461032a578063c4d66de814610355578063d13d597114610398578063da6b0eea146103af578063dcbb8253146103dc578063df98298514610407578063ef35bcce14610432578063f10864b61461045f578063f2fde38b146104c7578063f68be5131461050a575b600080fd5b34801561011857600080fd5b50610121610537565b6040518082815260200191505060405180910390f35b34801561014357600080fd5b506101626004803603810190808035906020019092919050505061053d565b005b34801561017057600080fd5b50610179610704565b60405180838152602001821515151581526020019250505060405180910390f35b3480156101a657600080fd5b506101db600480360381019080803573ffffffffffffffffffffffffffffffffffffffff169060200190929190505050610bc5565b005b3480156101e957600080fd5b5061020860048036038101908080359060200190929190505050610d61565b604051808273ffffffffffffffffffffffffffffffffffffffff1673ffffffffffffffffffffffffffffffffffffffff16815260200191505060405180910390f35b34801561025657600080fd5b5061025f610d9f565b005b34801561026d57600080fd5b506102a2600480360381019080803573ffffffffffffffffffffffffffffffffffffffff169060200190929190505050610e5b565b005b3480156102b057600080fd5b506102b9611074565b604051808273ffffffffffffffffffffffffffffffffffffffff1673ffffffffffffffffffffffffffffffffffffffff16815260200191505060405180910390f35b34801561030757600080fd5b5061031061109e565b604051808215151515815260200191505060405180910390f35b34801561033657600080fd5b5061033f6110f6565b6040518082815260200191505060405180910390f35b34801561036157600080fd5b50610396600480360381019080803573ffffffffffffffffffffffffffffffffffffffff1690602001909291905050506110fc565b005b3480156103a457600080fd5b506103ad611273565b005b3480156103bb57600080fd5b506103da60048036038101908080359060200190929190505050611392565b005b3480156103e857600080fd5b506103f16113af565b6040518082815260200191505060405180910390f35b34801561041357600080fd5b5061041c6113bc565b6040518082815260200191505060405180910390f35b34801561043e57600080fd5b5061045d600480360381019080803590602001909291905050506113c2565b005b34801561046b57600080fd5b506104aa600480360381019080803573ffffffffffffffffffffffffffffffffffffffff169060200190929190803590602001909291905050506113ee565b604051808381526020018281526020019250505060405180910390f35b3480156104d357600080fd5b50610508600480360381019080803573ffffffffffffffffffffffffffffffffffffffff169060200190929190505050611424565b005b34801561051657600080fd5b5061053560048036038101908080359060200190929190505050611443565b005b60695481565b60008061054861177a565b600080339450606760008673ffffffffffffffffffffffffffffffffffffffff1673ffffffffffffffffffffffffffffffffffffffff168152602001908152602001600020935060408051908101604052808560006002811015156105a957fe5b600202016000015481526020018560016002811015156105c557fe5b6002020160000154815250925060008360006002811015156105e357fe5b60200201511115156105f457600080fd5b82600160028110151561060357fe5b602002015183600060028110151561061757fe5b6020020151101561062957600161062c565b60005b91508160010390504261065f606954858560ff1660028110151561064c57fe5b602002015161147390919063ffffffff16565b1115151561066c57600080fd5b42848260ff1660028110151561067e57fe5b600202016000018190555085848260ff1660028110151561069b57fe5b60020201600101819055508473ffffffffffffffffffffffffffffffffffffffff167f460fcc5a1888965d48c2cab000fe20da51b1297d995af79a1924e2312d0d82b38742604051808381526020018281526020019250505060405180910390a2505050505050565b60008060006060600080600080600061071b61179c565b6000806000806066805490509b508b6040519080825280602002602001820160405280156107585781602001602082028038833980820191505090505b509a50600099506107746068544261149490919063ffffffff16565b985061078b6069544261149490919063ffffffff16565b9750600096505b8b871015610b8b576066878154811015156107a957fe5b9060005260206000200160009054906101000a900473ffffffffffffffffffffffffffffffffffffffff169550606760008773ffffffffffffffffffffffffffffffffffffffff1673ffffffffffffffffffffffffffffffffffffffff168152602001908152602001600020600280602002604051908101604052809291906000905b8282101561086857838260020201604080519081016040529081600082015481526020016001820154815250508152602001906001019061082c565b50505050945084600160028110151561087d57fe5b60200201516000015185600060028110151561089557fe5b60200201516000015110156108ab5760016108ae565b60005b9350836001039250848460ff166002811015156108c757fe5b602002015160000151915087821115610a9357606760008773ffffffffffffffffffffffffffffffffffffffff1673ffffffffffffffffffffffffffffffffffffffff1681526020019081526020016000208360ff1660028110151561092957fe5b60020201600001549050888110156109a3577f71f61642cb57ac11764a2f35fb4edc5361ced458af35bbed8f5ebf708c10e34186604051808273ffffffffffffffffffffffffffffffffffffffff1673ffffffffffffffffffffffffffffffffffffffff16815260200191505060405180910390a1610a8e565b87811115610a13577f71f61642cb57ac11764a2f35fb4edc5361ced458af35bbed8f5ebf708c10e34186604051808273ffffffffffffffffffffffffffffffffffffffff1673ffffffffffffffffffffffffffffffffffffffff16815260200191505060405180910390a1610a8d565b606760008773ffffffffffffffffffffffffffffffffffffffff1673ffffffffffffffffffffffffffffffffffffffff1681526020019081526020016000208360ff16600281101515610a6257fe5b60020201600101548b8b806001019c50815181101515610a7e57fe5b90602001906020020181815250505b5b610b7e565b88821015610b03577f71f61642cb57ac11764a2f35fb4edc5361ced458af35bbed8f5ebf708c10e34186604051808273ffffffffffffffffffffffffffffffffffffffff1673ffffffffffffffffffffffffffffffffffffffff16815260200191505060405180910390a1610b7d565b606760008773ffffffffffffffffffffffffffffffffffffffff1673ffffffffffffffffffffffffffffffffffffffff1681526020019081526020016000208460ff16600281101515610b5257fe5b60020201600101548b8b806001019c50815181101515610b6e57fe5b90602001906020020181815250505b5b8680600101975050610792565b606a548a1015610ba4576000808191509d509d50610bb5565b610bae8b8b6114b5565b60019d509d505b5050505050505050505050509091565b610bcd61109e565b1515610bd857600080fd5b6000606760008373ffffffffffffffffffffffffffffffffffffffff1673ffffffffffffffffffffffffffffffffffffffff1681526020019081526020016000206000600281101515610c2757fe5b6002020160000154141515610c3b57600080fd5b60668190806001815401808255809150509060018203906000526020600020016000909192909190916101000a81548173ffffffffffffffffffffffffffffffffffffffff021916908373ffffffffffffffffffffffffffffffffffffffff160217905550506001606760008373ffffffffffffffffffffffffffffffffffffffff1673ffffffffffffffffffffffffffffffffffffffff1681526020019081526020016000206000600281101515610cf057fe5b60020201600001819055507fae9c2c6481964847714ce58f65a7f6dcc41d0d8394449bacdf161b5920c4744a81604051808273ffffffffffffffffffffffffffffffffffffffff1673ffffffffffffffffffffffffffffffffffffffff16815260200191505060405180910390a150565b606681815481101515610d7057fe5b906000526020600020016000915054906101000a900473ffffffffffffffffffffffffffffffffffffffff1681565b610da761109e565b1515610db257600080fd5b603360009054906101000a900473ffffffffffffffffffffffffffffffffffffffff1673ffffffffffffffffffffffffffffffffffffffff167ff8df31144d9c2f0f6b59d69b8b98abd5459d07f2742c4df920b25aae33c6482060405160405180910390a26000603360006101000a81548173ffffffffffffffffffffffffffffffffffffffff021916908373ffffffffffffffffffffffffffffffffffffffff160217905550565b6000610e6561109e565b1515610e7057600080fd5b606760008373ffffffffffffffffffffffffffffffffffffffff1673ffffffffffffffffffffffffffffffffffffffff1681526020019081526020016000206000610ebb91906117ca565b600090505b606680549050811015611070578173ffffffffffffffffffffffffffffffffffffffff16606682815481101515610ef357fe5b9060005260206000200160009054906101000a900473ffffffffffffffffffffffffffffffffffffffff1673ffffffffffffffffffffffffffffffffffffffff1614156110635760668054905060018201141515610fe5576066600160668054905003815481101515610f6257fe5b9060005260206000200160009054906101000a900473ffffffffffffffffffffffffffffffffffffffff16606682815481101515610f9c57fe5b9060005260206000200160006101000a81548173ffffffffffffffffffffffffffffffffffffffff021916908373ffffffffffffffffffffffffffffffffffffffff1602179055505b6066805480919060019003610ffa91906117f5565b507f1589f8555933761a3cff8aa925061be3b46e2dd43f621322ab611d300f62b1d982604051808273ffffffffffffffffffffffffffffffffffffffff1673ffffffffffffffffffffffffffffffffffffffff16815260200191505060405180910390a1611070565b8080600101915050610ec0565b5050565b6000603360009054906101000a900473ffffffffffffffffffffffffffffffffffffffff16905090565b6000603360009054906101000a900473ffffffffffffffffffffffffffffffffffffffff1673ffffffffffffffffffffffffffffffffffffffff163373ffffffffffffffffffffffffffffffffffffffff1614905090565b606a5481565b60008060019054906101000a900460ff168061111c575061111b61166d565b5b8061113357506000809054906101000a900460ff16155b15156111cd576040517f08c379a000000000000000000000000000000000000000000000000000000000815260040180806020018281038252602e8152602001807f436f6e747261637420696e7374616e63652068617320616c726561647920626581526020017f656e20696e697469616c697a656400000000000000000000000000000000000081525060400191505060405180910390fd5b600060019054906101000a900460ff1690506001600060016101000a81548160ff02191690831515021790555060016000806101000a81548160ff02191690831515021790555081603360006101000a81548173ffffffffffffffffffffffffffffffffffffffff021916908373ffffffffffffffffffffffffffffffffffffffff16021790555080600060016101000a81548160ff0219169083151502179055505050565b60003390506000606760008373ffffffffffffffffffffffffffffffffffffffff1673ffffffffffffffffffffffffffffffffffffffff16815260200190815260200160002060006002811015156112c757fe5b60020201600001541115156112db57600080fd5b6001606760008373ffffffffffffffffffffffffffffffffffffffff1673ffffffffffffffffffffffffffffffffffffffff168152602001908152602001600020600060028110151561132a57fe5b60020201600001819055506001606760008373ffffffffffffffffffffffffffffffffffffffff1673ffffffffffffffffffffffffffffffffffffffff168152602001908152602001600020600160028110151561138457fe5b600202016000018190555050565b61139a61109e565b15156113a557600080fd5b8060698190555050565b6000606680549050905090565b60685481565b6113ca61109e565b15156113d557600080fd5b6000811115156113e457600080fd5b80606a8190555050565b60676020528160005260406000208160028110151561140957fe5b60020201600091509150508060000154908060010154905082565b61142c61109e565b151561143757600080fd5b6114408161167e565b50565b61144b61109e565b151561145657600080fd5b6312bed400811115151561146957600080fd5b8060688190555050565b600080828401905083811015151561148a57600080fd5b8091505092915050565b6000808383111515156114a657600080fd5b82840390508091505092915050565b6000806000806000851180156114cc575084865110155b15156114d757600080fd5b600192505b848310156115b9578291505b6000821180156115285750858281518110151561150157fe5b90602001906020020151866001840381518110151561151c57fe5b90602001906020020151115b156115ac57858281518110151561153b57fe5b906020019060200201519050856001830381518110151561155857fe5b90602001906020020151868381518110151561157057fe5b906020019060200201818152505080866001840381518110151561159057fe5b90602001906020020181815250508180600190039250506114e8565b82806001019350506114dc565b60016002868115156115c757fe5b0614156115f957856002868115156115db57fe5b048151811015156115e857fe5b906020019060200201519350611664565b600261165787600160028981151561160d57fe5b040381518110151561161b57fe5b906020019060200201518860028981151561163257fe5b0481518110151561163f57fe5b9060200190602002015161147390919063ffffffff16565b81151561166057fe5b0493505b50505092915050565b600080303b90506000811491505090565b600073ffffffffffffffffffffffffffffffffffffffff168173ffffffffffffffffffffffffffffffffffffffff16141515156116ba57600080fd5b8073ffffffffffffffffffffffffffffffffffffffff16603360009054906101000a900473ffffffffffffffffffffffffffffffffffffffff1673ffffffffffffffffffffffffffffffffffffffff167f8be0079c531659141344cd1fd0a4f28419497f9722a3daafe3b4186f6b6457e060405160405180910390a380603360006101000a81548173ffffffffffffffffffffffffffffffffffffffff021916908373ffffffffffffffffffffffffffffffffffffffff16021790555050565b6040805190810160405280600290602082028038833980820191505090505090565b6080604051908101604052806002905b6117b4611821565b8152602001906001900390816117ac5790505090565b5060008082016000905560018201600090555060020160008082016000905560018201600090555050565b81548183558181111561181c5781836000526020600020918201910161181b919061183b565b5b505050565b604080519081016040528060008152602001600081525090565b61185d91905b80821115611859576000816000905550600101611841565b5090565b905600a165627a7a72305820bbbbf51d257debcd03202dc429c3af3e645dae341436fecd68b05d8d8db175310029",
  "source": "pragma solidity >=0.4.24 <0.6.0;\r\n\r\nimport \"./library/SafeMath.sol\";\r\nimport \"./library/Select.sol\";\r\nimport \"./common/Ownable.sol\";\r\nimport \"./interface/IOracle.sol\";\r\n\r\n/**\r\n * @title Median Oracle\r\n *\r\n * @notice Provides a value onchain that's aggregated from a whitelisted set of\r\n *         providers.\r\n */\r\ncontract CommmodityOracle is Ownable, IOracle {\r\n    using SafeMath for uint256;\r\n\r\n    struct Report {\r\n        uint256 timestamp;\r\n        uint256 payload;\r\n    }\r\n\r\n    // Addresses of providers authorized to push reports.\r\n    address[] public providers;\r\n\r\n    // Reports indexed by provider address. Report[0].timestamp > 0\r\n    // indicates provider existence.\r\n    mapping(address => Report[2]) public providerReports;\r\n\r\n    event ProviderAdded(address provider);\r\n    event ProviderRemoved(address provider);\r\n    event ReportTimestampOutOfRange(address provider);\r\n    event ProviderReportPushed(\r\n        address indexed provider,\r\n        uint256 payload,\r\n        uint256 timestamp\r\n    );\r\n\r\n    // The number of seconds after which the report is deemed expired.\r\n    uint256 public reportExpirationTimeSec;\r\n\r\n    // The number of seconds since reporting that has to pass before a report\r\n    // is usable.\r\n    uint256 public reportDelaySec;\r\n\r\n    // The minimum number of providers with valid reports to consider the\r\n    // aggregate report valid.\r\n    uint256 public minimumProviders = 1;\r\n\r\n    // Timestamp of 1 is used to mark uninitialized and invalidated data.\r\n    // This is needed so that timestamp of 1 is always considered expired.\r\n    uint256 private constant MAX_REPORT_EXPIRATION_TIME = 520 weeks;\r\n\r\n    /**\r\n     * @param reportExpirationTimeSec_ The number of seconds after which the\r\n     *                                 report is deemed expired.\r\n     * @param reportDelaySec_ The number of seconds since reporting that has to\r\n     *                        pass before a report is usable\r\n     * @param minimumProviders_ The minimum number of providers with valid\r\n     *                          reports to consider the aggregate report valid.\r\n     */\r\n    constructor(\r\n        uint256 reportExpirationTimeSec_,\r\n        uint256 reportDelaySec_,\r\n        uint256 minimumProviders_\r\n    ) public {\r\n        require(reportExpirationTimeSec_ <= MAX_REPORT_EXPIRATION_TIME);\r\n        require(minimumProviders_ > 0);\r\n        reportExpirationTimeSec = reportExpirationTimeSec_;\r\n        reportDelaySec = reportDelaySec_;\r\n        minimumProviders = minimumProviders_;\r\n    }\r\n\r\n    /**\r\n     * @notice Sets the report expiration period.\r\n     * @param reportExpirationTimeSec_ The number of seconds after which the\r\n     *        report is deemed expired.\r\n     */\r\n    function setReportExpirationTimeSec(uint256 reportExpirationTimeSec_)\r\n        external\r\n        onlyOwner\r\n    {\r\n        require(reportExpirationTimeSec_ <= MAX_REPORT_EXPIRATION_TIME);\r\n        reportExpirationTimeSec = reportExpirationTimeSec_;\r\n    }\r\n\r\n    /**\r\n     * @notice Sets the time period since reporting that has to pass before a\r\n     *         report is usable.\r\n     * @param reportDelaySec_ The new delay period in seconds.\r\n     */\r\n    function setReportDelaySec(uint256 reportDelaySec_) external onlyOwner {\r\n        reportDelaySec = reportDelaySec_;\r\n    }\r\n\r\n    /**\r\n     * @notice Sets the minimum number of providers with valid reports to\r\n     *         consider the aggregate report valid.\r\n     * @param minimumProviders_ The new minimum number of providers.\r\n     */\r\n    function setMinimumProviders(uint256 minimumProviders_) external onlyOwner {\r\n        require(minimumProviders_ > 0);\r\n        minimumProviders = minimumProviders_;\r\n    }\r\n\r\n    /**\r\n     * @notice Pushes a report for the calling provider.\r\n     * @param payload is expected to be 18 decimal fixed point number.\r\n     */\r\n    function pushReport(uint256 payload) external {\r\n        address providerAddress = msg.sender;\r\n        Report[2] storage reports = providerReports[providerAddress];\r\n        uint256[2] memory timestamps =\r\n            [reports[0].timestamp, reports[1].timestamp];\r\n\r\n        require(timestamps[0] > 0);\r\n\r\n        uint8 index_recent = timestamps[0] >= timestamps[1] ? 0 : 1;\r\n        uint8 index_past = 1 - index_recent;\r\n\r\n        // Check that the push is not too soon after the last one.\r\n        require(timestamps[index_recent].add(reportDelaySec) <= now);\r\n\r\n        reports[index_past].timestamp = now;\r\n        reports[index_past].payload = payload;\r\n\r\n        emit ProviderReportPushed(providerAddress, payload, now);\r\n    }\r\n\r\n    /**\r\n     * @notice Invalidates the reports of the calling provider.\r\n     */\r\n    function purgeReports() external {\r\n        address providerAddress = msg.sender;\r\n        require(providerReports[providerAddress][0].timestamp > 0);\r\n        providerReports[providerAddress][0].timestamp = 1;\r\n        providerReports[providerAddress][1].timestamp = 1;\r\n    }\r\n\r\n    /**\r\n     * @notice Computes median of provider reports whose timestamps are in the\r\n     *         valid timestamp range.\r\n     * @return AggregatedValue: Median of providers reported values.\r\n     *         valid: Boolean indicating an aggregated value was computed successfully.\r\n     */\r\n    function getData() external returns (uint256, bool) {\r\n        uint256 reportsCount = providers.length;\r\n        uint256[] memory validReports = new uint256[](reportsCount);\r\n        uint256 size = 0;\r\n        uint256 minValidTimestamp = now.sub(reportExpirationTimeSec);\r\n        uint256 maxValidTimestamp = now.sub(reportDelaySec);\r\n\r\n        for (uint256 i = 0; i < reportsCount; i++) {\r\n            address providerAddress = providers[i];\r\n            Report[2] memory reports = providerReports[providerAddress];\r\n\r\n            uint8 index_recent =\r\n                reports[0].timestamp >= reports[1].timestamp ? 0 : 1;\r\n            uint8 index_past = 1 - index_recent;\r\n            uint256 reportTimestampRecent = reports[index_recent].timestamp;\r\n            if (reportTimestampRecent > maxValidTimestamp) {\r\n                // Recent report is too recent.\r\n                uint256 reportTimestampPast =\r\n                    providerReports[providerAddress][index_past].timestamp;\r\n                if (reportTimestampPast < minValidTimestamp) {\r\n                    // Past report is too old.\r\n                    emit ReportTimestampOutOfRange(providerAddress);\r\n                } else if (reportTimestampPast > maxValidTimestamp) {\r\n                    // Past report is too recent.\r\n                    emit ReportTimestampOutOfRange(providerAddress);\r\n                } else {\r\n                    // Using past report.\r\n                    validReports[size++] = providerReports[providerAddress][\r\n                        index_past\r\n                    ]\r\n                        .payload;\r\n                }\r\n            } else {\r\n                // Recent report is not too recent.\r\n                if (reportTimestampRecent < minValidTimestamp) {\r\n                    // Recent report is too old.\r\n                    emit ReportTimestampOutOfRange(providerAddress);\r\n                } else {\r\n                    // Using recent report.\r\n                    validReports[size++] = providerReports[providerAddress][\r\n                        index_recent\r\n                    ]\r\n                        .payload;\r\n                }\r\n            }\r\n        }\r\n\r\n        if (size < minimumProviders) {\r\n            return (0, false);\r\n        }\r\n\r\n        return (Select.computeMedian(validReports, size), true);\r\n    }\r\n\r\n    /**\r\n     * @notice Authorizes a provider.\r\n     * @param provider Address of the provider.\r\n     */\r\n    function addProvider(address provider) external onlyOwner {\r\n        require(providerReports[provider][0].timestamp == 0);\r\n        providers.push(provider);\r\n        providerReports[provider][0].timestamp = 1;\r\n        emit ProviderAdded(provider);\r\n    }\r\n\r\n    /**\r\n     * @notice Revokes provider authorization.\r\n     * @param provider Address of the provider.\r\n     */\r\n    function removeProvider(address provider) external onlyOwner {\r\n        delete providerReports[provider];\r\n        for (uint256 i = 0; i < providers.length; i++) {\r\n            if (providers[i] == provider) {\r\n                if (i + 1 != providers.length) {\r\n                    providers[i] = providers[providers.length - 1];\r\n                }\r\n                providers.length--;\r\n                emit ProviderRemoved(provider);\r\n                break;\r\n            }\r\n        }\r\n    }\r\n\r\n    /**\r\n     * @return The number of authorized providers.\r\n     */\r\n    function providersSize() external view returns (uint256) {\r\n        return providers.length;\r\n    }\r\n}",
  "sourcePath": "F:\\Projects\\kyyle\\deployment-tests\\contracts\\v4\\CommmodityOracle.sol",
  "compiler": {
    "name": "solc",
    "version": "0.4.24+commit.e67f0147.Emscripten.clang"
  },
  "schemaVersion": "3.2.2-next.0",
  "updatedAt": "2021-03-29T21:07:47.828Z",
  "devdoc": {
    "methods": {
      "addProvider(address)": {
        "params": {
          "provider": "Address of the provider.\r"
        }
      },
      "getData()": {
        "return": "AggregatedValue: Median of providers reported values.\r        valid: Boolean indicating an aggregated value was computed successfully.\r"
      },
      "initialize(address)": {
        "details": "The Ownable constructor sets the original `owner` of the contract to the sender\r account.\r"
      },
      "isOwner()": {
        "return": "true if `msg.sender` is the owner of the contract.\r"
      },
      "owner()": {
        "return": "the address of the owner.\r"
      },
      "providersSize()": {
        "return": "The number of authorized providers.\r"
      },
      "pushReport(uint256)": {
        "params": {
          "payload": "is expected to be 18 decimal fixed point number.\r"
        }
      },
      "removeProvider(address)": {
        "params": {
          "provider": "Address of the provider.\r"
        }
      },
      "renounceOwnership()": {
        "details": "Allows the current owner to relinquish control of the contract.\r"
      },
      "setMinimumProviders(uint256)": {
        "params": {
          "minimumProviders_": "The new minimum number of providers.\r"
        }
      },
      "setReportDelaySec(uint256)": {
        "params": {
          "reportDelaySec_": "The new delay period in seconds.\r"
        }
      },
      "setReportExpirationTimeSec(uint256)": {
        "params": {
          "reportExpirationTimeSec_": "The number of seconds after which the\r       report is deemed expired.\r"
        }
      },
      "transferOwnership(address)": {
        "details": "Allows the current owner to transfer control of the contract to a newOwner.\r",
        "params": {
          "newOwner": "The address to transfer ownership to.\r"
        }
      }
    },
    "title": "Median Oracle\r "
  },
  "userdoc": {
    "methods": {
      "addProvider(address)": {
        "notice": "Authorizes a provider.\r"
      },
      "getData()": {
        "notice": "Computes median of provider reports whose timestamps are in the\r        valid timestamp range.\r"
      },
      "purgeReports()": {
        "notice": "Invalidates the reports of the calling provider.\r"
      },
      "pushReport(uint256)": {
        "notice": "Pushes a report for the calling provider.\r"
      },
      "removeProvider(address)": {
        "notice": "Revokes provider authorization.\r"
      },
      "renounceOwnership()": {
        "notice": "Renouncing to ownership will leave the contract without an owner.\r It will not be possible to call the functions with the `onlyOwner`\r modifier anymore.\r"
      },
      "setMinimumProviders(uint256)": {
        "notice": "Sets the minimum number of providers with valid reports to\r        consider the aggregate report valid.\r"
      },
      "setReportDelaySec(uint256)": {
        "notice": "Sets the time period since reporting that has to pass before a\r        report is usable.\r"
      },
      "setReportExpirationTimeSec(uint256)": {
        "notice": "Sets the report expiration period.\r"
      }
    }
  }
}