{
  "contractName": "GovernorAlpha",
  "abi": [
    {
      "inputs": [
        {
          "internalType": "address",
          "name": "timelock_",
          "type": "address"
        },
        {
          "internalType": "address",
          "name": "Bex_",
          "type": "address"
        },
        {
          "internalType": "address",
          "name": "guardian_",
          "type": "address"
        }
      ],
      "payable": false,
      "stateMutability": "nonpayable",
      "type": "constructor"
    },
    {
      "anonymous": false,
      "inputs": [
        {
          "indexed": false,
          "internalType": "uint256",
          "name": "id",
          "type": "uint256"
        }
      ],
      "name": "ProposalCanceled",
      "type": "event"
    },
    {
      "anonymous": false,
      "inputs": [
        {
          "indexed": false,
          "internalType": "uint256",
          "name": "id",
          "type": "uint256"
        },
        {
          "indexed": false,
          "internalType": "address",
          "name": "proposer",
          "type": "address"
        },
        {
          "indexed": false,
          "internalType": "address[]",
          "name": "targets",
          "type": "address[]"
        },
        {
          "indexed": false,
          "internalType": "uint256[]",
          "name": "values",
          "type": "uint256[]"
        },
        {
          "indexed": false,
          "internalType": "string[]",
          "name": "signatures",
          "type": "string[]"
        },
        {
          "indexed": false,
          "internalType": "bytes[]",
          "name": "calldatas",
          "type": "bytes[]"
        },
        {
          "indexed": false,
          "internalType": "uint256",
          "name": "startBlock",
          "type": "uint256"
        },
        {
          "indexed": false,
          "internalType": "uint256",
          "name": "endBlock",
          "type": "uint256"
        },
        {
          "indexed": false,
          "internalType": "string",
          "name": "description",
          "type": "string"
        }
      ],
      "name": "ProposalCreated",
      "type": "event"
    },
    {
      "anonymous": false,
      "inputs": [
        {
          "indexed": false,
          "internalType": "uint256",
          "name": "id",
          "type": "uint256"
        }
      ],
      "name": "ProposalExecuted",
      "type": "event"
    },
    {
      "anonymous": false,
      "inputs": [
        {
          "indexed": false,
          "internalType": "uint256",
          "name": "id",
          "type": "uint256"
        },
        {
          "indexed": false,
          "internalType": "uint256",
          "name": "eta",
          "type": "uint256"
        }
      ],
      "name": "ProposalQueued",
      "type": "event"
    },
    {
      "anonymous": false,
      "inputs": [
        {
          "indexed": false,
          "internalType": "address",
          "name": "voter",
          "type": "address"
        },
        {
          "indexed": false,
          "internalType": "uint256",
          "name": "proposalId",
          "type": "uint256"
        },
        {
          "indexed": false,
          "internalType": "bool",
          "name": "support",
          "type": "bool"
        },
        {
          "indexed": false,
          "internalType": "uint256",
          "name": "votes",
          "type": "uint256"
        }
      ],
      "name": "VoteCast",
      "type": "event"
    },
    {
      "constant": true,
      "inputs": [],
      "name": "BALLOT_TYPEHASH",
      "outputs": [
        {
          "internalType": "bytes32",
          "name": "",
          "type": "bytes32"
        }
      ],
      "payable": false,
      "stateMutability": "view",
      "type": "function"
    },
    {
      "constant": true,
      "inputs": [],
      "name": "Bex",
      "outputs": [
        {
          "internalType": "contract CompInterface",
          "name": "",
          "type": "address"
        }
      ],
      "payable": false,
      "stateMutability": "view",
      "type": "function"
    },
    {
      "constant": true,
      "inputs": [],
      "name": "DOMAIN_TYPEHASH",
      "outputs": [
        {
          "internalType": "bytes32",
          "name": "",
          "type": "bytes32"
        }
      ],
      "payable": false,
      "stateMutability": "view",
      "type": "function"
    },
    {
      "constant": true,
      "inputs": [],
      "name": "guardian",
      "outputs": [
        {
          "internalType": "address",
          "name": "",
          "type": "address"
        }
      ],
      "payable": false,
      "stateMutability": "view",
      "type": "function"
    },
    {
      "constant": true,
      "inputs": [
        {
          "internalType": "address",
          "name": "",
          "type": "address"
        }
      ],
      "name": "latestProposalIds",
      "outputs": [
        {
          "internalType": "uint256",
          "name": "",
          "type": "uint256"
        }
      ],
      "payable": false,
      "stateMutability": "view",
      "type": "function"
    },
    {
      "constant": true,
      "inputs": [],
      "name": "name",
      "outputs": [
        {
          "internalType": "string",
          "name": "",
          "type": "string"
        }
      ],
      "payable": false,
      "stateMutability": "view",
      "type": "function"
    },
    {
      "constant": true,
      "inputs": [],
      "name": "proposalCount",
      "outputs": [
        {
          "internalType": "uint256",
          "name": "",
          "type": "uint256"
        }
      ],
      "payable": false,
      "stateMutability": "view",
      "type": "function"
    },
    {
      "constant": true,
      "inputs": [
        {
          "internalType": "uint256",
          "name": "",
          "type": "uint256"
        }
      ],
      "name": "proposals",
      "outputs": [
        {
          "internalType": "uint256",
          "name": "id",
          "type": "uint256"
        },
        {
          "internalType": "address",
          "name": "proposer",
          "type": "address"
        },
        {
          "internalType": "uint256",
          "name": "eta",
          "type": "uint256"
        },
        {
          "internalType": "uint256",
          "name": "startBlock",
          "type": "uint256"
        },
        {
          "internalType": "uint256",
          "name": "endBlock",
          "type": "uint256"
        },
        {
          "internalType": "uint256",
          "name": "forVotes",
          "type": "uint256"
        },
        {
          "internalType": "uint256",
          "name": "againstVotes",
          "type": "uint256"
        },
        {
          "internalType": "bool",
          "name": "canceled",
          "type": "bool"
        },
        {
          "internalType": "bool",
          "name": "executed",
          "type": "bool"
        }
      ],
      "payable": false,
      "stateMutability": "view",
      "type": "function"
    },
    {
      "constant": true,
      "inputs": [],
      "name": "timelock",
      "outputs": [
        {
          "internalType": "contract TimelockInterface",
          "name": "",
          "type": "address"
        }
      ],
      "payable": false,
      "stateMutability": "view",
      "type": "function"
    },
    {
      "constant": true,
      "inputs": [],
      "name": "quorumVotes",
      "outputs": [
        {
          "internalType": "uint256",
          "name": "",
          "type": "uint256"
        }
      ],
      "payable": false,
      "stateMutability": "pure",
      "type": "function"
    },
    {
      "constant": true,
      "inputs": [],
      "name": "proposalThreshold",
      "outputs": [
        {
          "internalType": "uint256",
          "name": "",
          "type": "uint256"
        }
      ],
      "payable": false,
      "stateMutability": "pure",
      "type": "function"
    },
    {
      "constant": true,
      "inputs": [],
      "name": "proposalMaxOperations",
      "outputs": [
        {
          "internalType": "uint256",
          "name": "",
          "type": "uint256"
        }
      ],
      "payable": false,
      "stateMutability": "pure",
      "type": "function"
    },
    {
      "constant": true,
      "inputs": [],
      "name": "votingDelay",
      "outputs": [
        {
          "internalType": "uint256",
          "name": "",
          "type": "uint256"
        }
      ],
      "payable": false,
      "stateMutability": "pure",
      "type": "function"
    },
    {
      "constant": true,
      "inputs": [],
      "name": "votingPeriod",
      "outputs": [
        {
          "internalType": "uint256",
          "name": "",
          "type": "uint256"
        }
      ],
      "payable": false,
      "stateMutability": "pure",
      "type": "function"
    },
    {
      "constant": false,
      "inputs": [],
      "name": "acceptAdmin",
      "outputs": [],
      "payable": false,
      "stateMutability": "nonpayable",
      "type": "function"
    },
    {
      "constant": false,
      "inputs": [
        {
          "internalType": "address[]",
          "name": "targets",
          "type": "address[]"
        },
        {
          "internalType": "uint256[]",
          "name": "values",
          "type": "uint256[]"
        },
        {
          "internalType": "string[]",
          "name": "signatures",
          "type": "string[]"
        },
        {
          "internalType": "bytes[]",
          "name": "calldatas",
          "type": "bytes[]"
        },
        {
          "internalType": "string",
          "name": "description",
          "type": "string"
        }
      ],
      "name": "propose",
      "outputs": [
        {
          "internalType": "uint256",
          "name": "",
          "type": "uint256"
        }
      ],
      "payable": false,
      "stateMutability": "nonpayable",
      "type": "function"
    },
    {
      "constant": false,
      "inputs": [
        {
          "internalType": "uint256",
          "name": "proposalId",
          "type": "uint256"
        }
      ],
      "name": "queue",
      "outputs": [],
      "payable": false,
      "stateMutability": "nonpayable",
      "type": "function"
    },
    {
      "constant": false,
      "inputs": [
        {
          "internalType": "uint256",
          "name": "proposalId",
          "type": "uint256"
        }
      ],
      "name": "execute",
      "outputs": [],
      "payable": true,
      "stateMutability": "payable",
      "type": "function"
    },
    {
      "constant": false,
      "inputs": [
        {
          "internalType": "uint256",
          "name": "proposalId",
          "type": "uint256"
        }
      ],
      "name": "cancel",
      "outputs": [],
      "payable": false,
      "stateMutability": "nonpayable",
      "type": "function"
    },
    {
      "constant": true,
      "inputs": [
        {
          "internalType": "uint256",
          "name": "proposalId",
          "type": "uint256"
        }
      ],
      "name": "getActions",
      "outputs": [
        {
          "internalType": "address[]",
          "name": "targets",
          "type": "address[]"
        },
        {
          "internalType": "uint256[]",
          "name": "values",
          "type": "uint256[]"
        },
        {
          "internalType": "string[]",
          "name": "signatures",
          "type": "string[]"
        },
        {
          "internalType": "bytes[]",
          "name": "calldatas",
          "type": "bytes[]"
        }
      ],
      "payable": false,
      "stateMutability": "view",
      "type": "function"
    },
    {
      "constant": true,
      "inputs": [
        {
          "internalType": "uint256",
          "name": "proposalId",
          "type": "uint256"
        },
        {
          "internalType": "address",
          "name": "voter",
          "type": "address"
        }
      ],
      "name": "getReceipt",
      "outputs": [
        {
          "components": [
            {
              "internalType": "bool",
              "name": "hasVoted",
              "type": "bool"
            },
            {
              "internalType": "bool",
              "name": "support",
              "type": "bool"
            },
            {
              "internalType": "uint96",
              "name": "votes",
              "type": "uint96"
            }
          ],
          "internalType": "struct GovernorAlpha.Receipt",
          "name": "",
          "type": "tuple"
        }
      ],
      "payable": false,
      "stateMutability": "view",
      "type": "function"
    },
    {
      "constant": true,
      "inputs": [
        {
          "internalType": "uint256",
          "name": "proposalId",
          "type": "uint256"
        }
      ],
      "name": "state",
      "outputs": [
        {
          "internalType": "enum GovernorAlpha.ProposalState",
          "name": "",
          "type": "uint8"
        }
      ],
      "payable": false,
      "stateMutability": "view",
      "type": "function"
    },
    {
      "constant": false,
      "inputs": [
        {
          "internalType": "uint256",
          "name": "proposalId",
          "type": "uint256"
        },
        {
          "internalType": "bool",
          "name": "support",
          "type": "bool"
        }
      ],
      "name": "castVote",
      "outputs": [],
      "payable": false,
      "stateMutability": "nonpayable",
      "type": "function"
    },
    {
      "constant": false,
      "inputs": [
        {
          "internalType": "uint256",
          "name": "proposalId",
          "type": "uint256"
        },
        {
          "internalType": "bool",
          "name": "support",
          "type": "bool"
        },
        {
          "internalType": "uint8",
          "name": "v",
          "type": "uint8"
        },
        {
          "internalType": "bytes32",
          "name": "r",
          "type": "bytes32"
        },
        {
          "internalType": "bytes32",
          "name": "s",
          "type": "bytes32"
        }
      ],
      "name": "castVoteBySig",
      "outputs": [],
      "payable": false,
      "stateMutability": "nonpayable",
      "type": "function"
    },
    {
      "constant": false,
      "inputs": [],
      "name": "__acceptAdmin",
      "outputs": [],
      "payable": false,
      "stateMutability": "nonpayable",
      "type": "function"
    },
    {
      "constant": false,
      "inputs": [],
      "name": "__abdicate",
      "outputs": [],
      "payable": false,
      "stateMutability": "nonpayable",
      "type": "function"
    },
    {
      "constant": false,
      "inputs": [
        {
          "internalType": "address",
          "name": "newPendingAdmin",
          "type": "address"
        },
        {
          "internalType": "uint256",
          "name": "eta",
          "type": "uint256"
        }
      ],
      "name": "__queueSetTimelockPendingAdmin",
      "outputs": [],
      "payable": false,
      "stateMutability": "nonpayable",
      "type": "function"
    },
    {
      "constant": false,
      "inputs": [
        {
          "internalType": "address",
          "name": "newPendingAdmin",
          "type": "address"
        },
        {
          "internalType": "uint256",
          "name": "eta",
          "type": "uint256"
        }
      ],
      "name": "__executeSetTimelockPendingAdmin",
      "outputs": [],
      "payable": false,
      "stateMutability": "nonpayable",
      "type": "function"
    }
  ],
  "bytecode": "0x60806040523480156200001157600080fd5b506040516200551f3803806200551f833981810160405262000037919081019062000119565b826000806101000a81548173ffffffffffffffffffffffffffffffffffffffff021916908373ffffffffffffffffffffffffffffffffffffffff16021790555081600160006101000a81548173ffffffffffffffffffffffffffffffffffffffff021916908373ffffffffffffffffffffffffffffffffffffffff16021790555080600260006101000a81548173ffffffffffffffffffffffffffffffffffffffff021916908373ffffffffffffffffffffffffffffffffffffffff160217905550505050620001bd565b6000815190506200011381620001a3565b92915050565b6000806000606084860312156200012f57600080fd5b60006200013f8682870162000102565b9350506020620001528682870162000102565b9250506040620001658682870162000102565b9150509250925092565b60006200017c8262000183565b9050919050565b600073ffffffffffffffffffffffffffffffffffffffff82169050919050565b620001ae816200016f565b8114620001ba57600080fd5b50565b61535280620001cd6000396000f3fe6080604052600436106101b75760003560e01c80634634c61f116100ec578063d33219b41161008a578063ddf0b00911610064578063ddf0b009146105e3578063deaaa7cc1461060c578063e23a9a5214610637578063fe0d94c114610674576101b7565b8063d33219b414610550578063da35c6641461057b578063da95691a146105a6576101b7565b806380859921116100c657806380859921146104ba57806391500671146104e5578063b58131b01461050e578063b9a6196114610539576101b7565b80634634c61f1461044f578063760fbc13146104785780637bdbe4d01461048f576101b7565b806321f43e42116101595780633932abb1116101335780633932abb1146103935780633e4f49e6146103be57806340e58ee5146103fb578063452a932014610424576101b7565b806321f43e42146102ff57806324bc1a6414610328578063328dd98214610353576101b7565b80630e18b681116101955780630e18b6811461025757806315373e3d1461026e57806317977c611461029757806320606b70146102d4576101b7565b8063013cf08b146101bc57806302a251a31461020157806306fdde031461022c575b600080fd5b3480156101c857600080fd5b506101e360048036036101de9190810190613426565b610690565b6040516101f899989796959493929190614d21565b60405180910390f35b34801561020d57600080fd5b50610216610718565b6040516102239190614c56565b60405180910390f35b34801561023857600080fd5b50610241610722565b60405161024e9190614979565b60405180910390f35b34801561026357600080fd5b5061026c61075b565b005b34801561027a57600080fd5b50610295600480360361029091908101906134b4565b6107de565b005b3480156102a357600080fd5b506102be60048036036102b9919081019061323f565b6107ed565b6040516102cb9190614c56565b60405180910390f35b3480156102e057600080fd5b506102e9610805565b6040516102f6919061484c565b60405180910390f35b34801561030b57600080fd5b5061032660048036036103219190810190613268565b61081c565b005b34801561033457600080fd5b5061033d6109a9565b60405161034a9190614c56565b60405180910390f35b34801561035f57600080fd5b5061037a60048036036103759190810190613426565b6109bb565b60405161038a94939291906147eb565b60405180910390f35b34801561039f57600080fd5b506103a8610c98565b6040516103b59190614c56565b60405180910390f35b3480156103ca57600080fd5b506103e560048036036103e09190810190613426565b610ca1565b6040516103f2919061495e565b60405180910390f35b34801561040757600080fd5b50610422600480360361041d9190810190613426565b610e85565b005b34801561043057600080fd5b50610439611221565b6040516104469190614618565b60405180910390f35b34801561045b57600080fd5b50610476600480360361047191908101906134f0565b611247565b005b34801561048457600080fd5b5061048d611416565b005b34801561049b57600080fd5b506104a46114ea565b6040516104b19190614c56565b60405180910390f35b3480156104c657600080fd5b506104cf6114f3565b6040516104dc9190614928565b60405180910390f35b3480156104f157600080fd5b5061050c60048036036105079190810190613268565b611519565b005b34801561051a57600080fd5b506105236116a1565b6040516105309190614c56565b60405180910390f35b34801561054557600080fd5b5061054e6116b3565b005b34801561055c57600080fd5b506105656117c6565b6040516105729190614943565b60405180910390f35b34801561058757600080fd5b506105906117eb565b60405161059d9190614c56565b60405180910390f35b3480156105b257600080fd5b506105cd60048036036105c891908101906132a4565b6117f1565b6040516105da9190614c56565b60405180910390f35b3480156105ef57600080fd5b5061060a60048036036106059190810190613426565b611dbe565b005b34801561061857600080fd5b5061062161210d565b60405161062e919061484c565b60405180910390f35b34801561064357600080fd5b5061065e60048036036106599190810190613478565b612124565b60405161066b9190614c3b565b60405180910390f35b61068e60048036036106899190810190613426565b612206565b005b60046020528060005260406000206000915090508060000154908060010160009054906101000a900473ffffffffffffffffffffffffffffffffffffffff169080600201549080600701549080600801549080600901549080600a01549080600b0160009054906101000a900460ff169080600b0160019054906101000a900460ff16905089565b6000614380905090565b6040518060400160405280601281526020017f42657820476f7665726e6f7220416c706861000000000000000000000000000081525081565b6000809054906101000a900473ffffffffffffffffffffffffffffffffffffffff1673ffffffffffffffffffffffffffffffffffffffff16630e18b6816040518163ffffffff1660e01b8152600401600060405180830381600087803b1580156107c457600080fd5b505af11580156107d8573d6000803e3d6000fd5b50505050565b6107e9338383612453565b5050565b60056020528060005260406000206000915090505481565b604051610811906145ee565b604051809103902081565b600260009054906101000a900473ffffffffffffffffffffffffffffffffffffffff1673ffffffffffffffffffffffffffffffffffffffff163373ffffffffffffffffffffffffffffffffffffffff16146108ac576040517f08c379a00000000000000000000000000000000000000000000000000000000081526004016108a3906149fb565b60405180910390fd5b6000809054906101000a900473ffffffffffffffffffffffffffffffffffffffff1673ffffffffffffffffffffffffffffffffffffffff16630825f38f6000809054906101000a900473ffffffffffffffffffffffffffffffffffffffff1660008560405160200161091e9190614618565b604051602081830303815290604052856040518563ffffffff1660e01b815260040161094d949392919061465c565b600060405180830381600087803b15801561096757600080fd5b505af115801561097b573d6000803e3d6000fd5b505050506040513d6000823e3d601f19601f820116820180604052506109a491908101906133e5565b505050565b60006954b40b1f852bda000000905090565b60608060608060006004600087815260200190815260200160002090508060030181600401826005018360060183805480602002602001604051908101604052809291908181526020018280548015610a6957602002820191906000526020600020905b8160009054906101000a900473ffffffffffffffffffffffffffffffffffffffff1673ffffffffffffffffffffffffffffffffffffffff1681526020019060010190808311610a1f575b5050505050935082805480602002602001604051908101604052809291908181526020018280548015610abb57602002820191906000526020600020905b815481526020019060010190808311610aa7575b5050505050925081805480602002602001604051908101604052809291908181526020016000905b82821015610b9f578382906000526020600020018054600181600116156101000203166002900480601f016020809104026020016040519081016040528092919081815260200182805460018160011615610100020316600290048015610b8b5780601f10610b6057610100808354040283529160200191610b8b565b820191906000526020600020905b815481529060010190602001808311610b6e57829003601f168201915b505050505081526020019060010190610ae3565b50505050915080805480602002602001604051908101604052809291908181526020016000905b82821015610c82578382906000526020600020018054600181600116156101000203166002900480601f016020809104026020016040519081016040528092919081815260200182805460018160011615610100020316600290048015610c6e5780601f10610c4357610100808354040283529160200191610c6e565b820191906000526020600020905b815481529060010190602001808311610c5157829003601f168201915b505050505081526020019060010190610bc6565b5050505090509450945094509450509193509193565b60006001905090565b60008160035410158015610cb55750600082115b610cf4576040517f08c379a0000000000000000000000000000000000000000000000000000000008152600401610ceb90614a1b565b60405180910390fd5b600060046000848152602001908152602001600020905080600b0160009054906101000a900460ff1615610d2c576002915050610e80565b80600701544311610d41576000915050610e80565b80600801544311610d56576001915050610e80565b80600a01548160090154111580610d775750610d706109a9565b8160090154105b15610d86576003915050610e80565b600081600201541415610d9d576004915050610e80565b80600b0160019054906101000a900460ff1615610dbe576007915050610e80565b610e6a81600201546000809054906101000a900473ffffffffffffffffffffffffffffffffffffffff1673ffffffffffffffffffffffffffffffffffffffff1663c1a287e26040518163ffffffff1660e01b815260040160206040518083038186803b158015610e2d57600080fd5b505afa158015610e41573d6000803e3d6000fd5b505050506040513d601f19601f82011682018060405250610e65919081019061344f565b612722565b4210610e7a576006915050610e80565b60059150505b919050565b6000610e9082610ca1565b9050600780811115610e9e57fe5b816007811115610eaa57fe5b1415610eeb576040517f08c379a0000000000000000000000000000000000000000000000000000000008152600401610ee290614bbb565b60405180910390fd5b6000600460008481526020019081526020016000209050600260009054906101000a900473ffffffffffffffffffffffffffffffffffffffff1673ffffffffffffffffffffffffffffffffffffffff163373ffffffffffffffffffffffffffffffffffffffff16148061104c5750610f616116a1565b600160009054906101000a900473ffffffffffffffffffffffffffffffffffffffff1673ffffffffffffffffffffffffffffffffffffffff1663782d6fe18360010160009054906101000a900473ffffffffffffffffffffffffffffffffffffffff16610fcf436001612777565b6040518363ffffffff1660e01b8152600401610fec9291906146bb565b60206040518083038186803b15801561100457600080fd5b505afa158015611018573d6000803e3d6000fd5b505050506040513d601f19601f8201168201806040525061103c9190810190613567565b6bffffffffffffffffffffffff16105b61108b576040517f08c379a000000000000000000000000000000000000000000000000000000000815260040161108290614afb565b60405180910390fd5b600181600b0160006101000a81548160ff02191690831515021790555060008090505b81600301805490508110156111e4576000809054906101000a900473ffffffffffffffffffffffffffffffffffffffff1673ffffffffffffffffffffffffffffffffffffffff1663591fcdfe83600301838154811061110957fe5b9060005260206000200160009054906101000a900473ffffffffffffffffffffffffffffffffffffffff1684600401848154811061114357fe5b906000526020600020015485600501858154811061115d57fe5b9060005260206000200186600601868154811061117657fe5b9060005260206000200187600201546040518663ffffffff1660e01b81526004016111a595949392919061478a565b600060405180830381600087803b1580156111bf57600080fd5b505af11580156111d3573d6000803e3d6000fd5b5050505080806001019150506110ae565b507f789cf55be980739dad1d0699b93b58e806b51c9d96619bfa8fe0a28abaa7b30c836040516112149190614c56565b60405180910390a1505050565b600260009054906101000a900473ffffffffffffffffffffffffffffffffffffffff1681565b6000604051611255906145ee565b60405180910390206040518060400160405280601281526020017f42657820476f7665726e6f7220416c7068610000000000000000000000000000815250805190602001206112a26127c7565b306040516020016112b69493929190614867565b60405160208183030381529060405280519060200120905060006040516112dc90614603565b604051809103902087876040516020016112f8939291906148ac565b604051602081830303815290604052805190602001209050600082826040516020016113259291906145b7565b60405160208183030381529060405280519060200120905060006001828888886040516000815260200160405260405161136294939291906148e3565b6020604051602081039080840390855afa158015611384573d6000803e3d6000fd5b505050602060405103519050600073ffffffffffffffffffffffffffffffffffffffff168173ffffffffffffffffffffffffffffffffffffffff161415611400576040517f08c379a00000000000000000000000000000000000000000000000000000000081526004016113f790614b7b565b60405180910390fd5b61140b818a8a612453565b505050505050505050565b600260009054906101000a900473ffffffffffffffffffffffffffffffffffffffff1673ffffffffffffffffffffffffffffffffffffffff163373ffffffffffffffffffffffffffffffffffffffff16146114a6576040517f08c379a000000000000000000000000000000000000000000000000000000000815260040161149d90614c1b565b60405180910390fd5b6000600260006101000a81548173ffffffffffffffffffffffffffffffffffffffff021916908373ffffffffffffffffffffffffffffffffffffffff160217905550565b6000600a905090565b600160009054906101000a900473ffffffffffffffffffffffffffffffffffffffff1681565b600260009054906101000a900473ffffffffffffffffffffffffffffffffffffffff1673ffffffffffffffffffffffffffffffffffffffff163373ffffffffffffffffffffffffffffffffffffffff16146115a9576040517f08c379a00000000000000000000000000000000000000000000000000000000081526004016115a090614a7b565b60405180910390fd5b6000809054906101000a900473ffffffffffffffffffffffffffffffffffffffff1673ffffffffffffffffffffffffffffffffffffffff16633a66f9016000809054906101000a900473ffffffffffffffffffffffffffffffffffffffff1660008560405160200161161b9190614618565b604051602081830303815290604052856040518563ffffffff1660e01b815260040161164a949392919061465c565b602060405180830381600087803b15801561166457600080fd5b505af1158015611678573d6000803e3d6000fd5b505050506040513d601f19601f8201168201806040525061169c91908101906133bc565b505050565b600069152d02c7e14af6800000905090565b600260009054906101000a900473ffffffffffffffffffffffffffffffffffffffff1673ffffffffffffffffffffffffffffffffffffffff163373ffffffffffffffffffffffffffffffffffffffff1614611743576040517f08c379a000000000000000000000000000000000000000000000000000000000815260040161173a9061499b565b60405180910390fd5b6000809054906101000a900473ffffffffffffffffffffffffffffffffffffffff1673ffffffffffffffffffffffffffffffffffffffff16630e18b6816040518163ffffffff1660e01b8152600401600060405180830381600087803b1580156117ac57600080fd5b505af11580156117c0573d6000803e3d6000fd5b50505050565b6000809054906101000a900473ffffffffffffffffffffffffffffffffffffffff1681565b60035481565b60006117fb6116a1565b600160009054906101000a900473ffffffffffffffffffffffffffffffffffffffff1673ffffffffffffffffffffffffffffffffffffffff1663782d6fe133611845436001612777565b6040518363ffffffff1660e01b8152600401611862929190614633565b60206040518083038186803b15801561187a57600080fd5b505afa15801561188e573d6000803e3d6000fd5b505050506040513d601f19601f820116820180604052506118b29190810190613567565b6bffffffffffffffffffffffff1611611900576040517f08c379a00000000000000000000000000000000000000000000000000000000081526004016118f790614b5b565b60405180910390fd5b84518651148015611912575083518651145b801561191f575082518651145b61195e576040517f08c379a000000000000000000000000000000000000000000000000000000000815260040161195590614adb565b60405180910390fd5b6000865114156119a3576040517f08c379a000000000000000000000000000000000000000000000000000000000815260040161199a90614b3b565b60405180910390fd5b6119ab6114ea565b865111156119ee576040517f08c379a00000000000000000000000000000000000000000000000000000000081526004016119e590614a9b565b60405180910390fd5b6000600560003373ffffffffffffffffffffffffffffffffffffffff1673ffffffffffffffffffffffffffffffffffffffff16815260200190815260200160002054905060008114611afd576000611a4582610ca1565b905060016007811115611a5457fe5b816007811115611a6057fe5b1415611aa1576040517f08c379a0000000000000000000000000000000000000000000000000000000008152600401611a9890614b9b565b60405180910390fd5b60006007811115611aae57fe5b816007811115611aba57fe5b1415611afb576040517f08c379a0000000000000000000000000000000000000000000000000000000008152600401611af290614a5b565b60405180910390fd5b505b6000611b1043611b0b610c98565b612722565b90506000611b2582611b20610718565b612722565b9050600360008154809291906001019190505550611b416129a8565b604051806101a0016040528060035481526020013373ffffffffffffffffffffffffffffffffffffffff168152602001600081526020018b81526020018a815260200189815260200188815260200184815260200183815260200160008152602001600081526020016000151581526020016000151581525090508060046000836000015181526020019081526020016000206000820151816000015560208201518160010160006101000a81548173ffffffffffffffffffffffffffffffffffffffff021916908373ffffffffffffffffffffffffffffffffffffffff160217905550604082015181600201556060820151816003019080519060200190611c4b929190612a2a565b506080820151816004019080519060200190611c68929190612ab4565b5060a0820151816005019080519060200190611c85929190612b01565b5060c0820151816006019080519060200190611ca2929190612b61565b5060e082015181600701556101008201518160080155610120820151816009015561014082015181600a015561016082015181600b0160006101000a81548160ff02191690831515021790555061018082015181600b0160016101000a81548160ff021916908315150217905550905050806000015160056000836020015173ffffffffffffffffffffffffffffffffffffffff1673ffffffffffffffffffffffffffffffffffffffff168152602001908152602001600020819055507f7d84a6263ae0d98d3329bd7b46bb4e8d6f98cd35a7adb45c274c8b7fd5ebd5e08160000151338c8c8c8c89898e604051611da299989796959493929190614c71565b60405180910390a1806000015194505050505095945050505050565b60046007811115611dcb57fe5b611dd482610ca1565b6007811115611ddf57fe5b14611e1f576040517f08c379a0000000000000000000000000000000000000000000000000000000008152600401611e16906149bb565b60405180910390fd5b60006004600083815260200190815260200160002090506000611ee0426000809054906101000a900473ffffffffffffffffffffffffffffffffffffffff1673ffffffffffffffffffffffffffffffffffffffff16636a42b8f86040518163ffffffff1660e01b815260040160206040518083038186803b158015611ea357600080fd5b505afa158015611eb7573d6000803e3d6000fd5b505050506040513d601f19601f82011682018060405250611edb919081019061344f565b612722565b905060008090505b82600301805490508110156120c5576120b8836003018281548110611f0957fe5b9060005260206000200160009054906101000a900473ffffffffffffffffffffffffffffffffffffffff16846004018381548110611f4357fe5b9060005260206000200154856005018481548110611f5d57fe5b906000526020600020018054600181600116156101000203166002900480601f016020809104026020016040519081016040528092919081815260200182805460018160011615610100020316600290048015611ffb5780601f10611fd057610100808354040283529160200191611ffb565b820191906000526020600020905b815481529060010190602001808311611fde57829003601f168201915b505050505086600601858154811061200f57fe5b906000526020600020018054600181600116156101000203166002900480601f0160208091040260200160405190810160405280929190818152602001828054600181600116156101000203166002900480156120ad5780601f10612082576101008083540402835291602001916120ad565b820191906000526020600020905b81548152906001019060200180831161209057829003601f168201915b5050505050866127d4565b8080600101915050611ee8565b508082600201819055507f9a2e42fd6722813d69113e7d0079d3d940171428df7373df9c7f7617cfda28928382604051612100929190614dae565b60405180910390a1505050565b60405161211990614603565b604051809103902081565b61212c612bc1565b60046000848152602001908152602001600020600c0160008373ffffffffffffffffffffffffffffffffffffffff1673ffffffffffffffffffffffffffffffffffffffff1681526020019081526020016000206040518060600160405290816000820160009054906101000a900460ff161515151581526020016000820160019054906101000a900460ff161515151581526020016000820160029054906101000a90046bffffffffffffffffffffffff166bffffffffffffffffffffffff166bffffffffffffffffffffffff1681525050905092915050565b6005600781111561221357fe5b61221c82610ca1565b600781111561222757fe5b14612267576040517f08c379a000000000000000000000000000000000000000000000000000000000815260040161225e906149db565b60405180910390fd5b6000600460008381526020019081526020016000209050600181600b0160016101000a81548160ff02191690831515021790555060008090505b8160030180549050811015612417576000809054906101000a900473ffffffffffffffffffffffffffffffffffffffff1673ffffffffffffffffffffffffffffffffffffffff16630825f38f8360040183815481106122fc57fe5b906000526020600020015484600301848154811061231657fe5b9060005260206000200160009054906101000a900473ffffffffffffffffffffffffffffffffffffffff1685600401858154811061235057fe5b906000526020600020015486600501868154811061236a57fe5b9060005260206000200187600601878154811061238357fe5b9060005260206000200188600201546040518763ffffffff1660e01b81526004016123b295949392919061478a565b6000604051808303818588803b1580156123cb57600080fd5b505af11580156123df573d6000803e3d6000fd5b50505050506040513d6000823e3d601f19601f8201168201806040525061240991908101906133e5565b5080806001019150506122a1565b507f712ae1383f79ac853f8d882153778e0260ef8f03b504e2866e0593e04d2b291f826040516124479190614c56565b60405180910390a15050565b6001600781111561246057fe5b61246983610ca1565b600781111561247457fe5b146124b4576040517f08c379a00000000000000000000000000000000000000000000000000000000081526004016124ab90614bdb565b60405180910390fd5b6000600460008481526020019081526020016000209050600081600c0160008673ffffffffffffffffffffffffffffffffffffffff1673ffffffffffffffffffffffffffffffffffffffff1681526020019081526020016000209050600015158160000160009054906101000a900460ff16151514612568576040517f08c379a000000000000000000000000000000000000000000000000000000000815260040161255f90614a3b565b60405180910390fd5b6000600160009054906101000a900473ffffffffffffffffffffffffffffffffffffffff1673ffffffffffffffffffffffffffffffffffffffff1663782d6fe18785600701546040518363ffffffff1660e01b81526004016125cb9291906146bb565b60206040518083038186803b1580156125e357600080fd5b505afa1580156125f7573d6000803e3d6000fd5b505050506040513d601f19601f8201168201806040525061261b9190810190613567565b9050831561264c5761263f8360090154826bffffffffffffffffffffffff16612722565b8360090181905550612671565b61266883600a0154826bffffffffffffffffffffffff16612722565b83600a01819055505b60018260000160006101000a81548160ff021916908315150217905550838260000160016101000a81548160ff021916908315150217905550808260000160026101000a8154816bffffffffffffffffffffffff02191690836bffffffffffffffffffffffff1602179055507f877856338e13f63d0c36822ff0ef736b80934cd90574a3a5bc9262c39d217c468686868460405161271294939291906146e4565b60405180910390a1505050505050565b60008082840190508381101561276d576040517f08c379a000000000000000000000000000000000000000000000000000000000815260040161276490614abb565b60405180910390fd5b8091505092915050565b6000828211156127bc576040517f08c379a00000000000000000000000000000000000000000000000000000000081526004016127b390614bfb565b60405180910390fd5b818303905092915050565b6000804690508091505090565b6000809054906101000a900473ffffffffffffffffffffffffffffffffffffffff1673ffffffffffffffffffffffffffffffffffffffff1663f2b06537868686868660405160200161282a959493929190614729565b604051602081830303815290604052805190602001206040518263ffffffff1660e01b815260040161285c919061484c565b60206040518083038186803b15801561287457600080fd5b505afa158015612888573d6000803e3d6000fd5b505050506040513d601f19601f820116820180604052506128ac9190810190613393565b156128ec576040517f08c379a00000000000000000000000000000000000000000000000000000000081526004016128e390614b1b565b60405180910390fd5b6000809054906101000a900473ffffffffffffffffffffffffffffffffffffffff1673ffffffffffffffffffffffffffffffffffffffff16633a66f90186868686866040518663ffffffff1660e01b815260040161294e959493929190614729565b602060405180830381600087803b15801561296857600080fd5b505af115801561297c573d6000803e3d6000fd5b505050506040513d601f19601f820116820180604052506129a091908101906133bc565b505050505050565b604051806101a0016040528060008152602001600073ffffffffffffffffffffffffffffffffffffffff1681526020016000815260200160608152602001606081526020016060815260200160608152602001600081526020016000815260200160008152602001600081526020016000151581526020016000151581525090565b828054828255906000526020600020908101928215612aa3579160200282015b82811115612aa25782518260006101000a81548173ffffffffffffffffffffffffffffffffffffffff021916908373ffffffffffffffffffffffffffffffffffffffff16021790555091602001919060010190612a4a565b5b509050612ab09190612bf4565b5090565b828054828255906000526020600020908101928215612af0579160200282015b82811115612aef578251825591602001919060010190612ad4565b5b509050612afd9190612c37565b5090565b828054828255906000526020600020908101928215612b50579160200282015b82811115612b4f578251829080519060200190612b3f929190612c5c565b5091602001919060010190612b21565b5b509050612b5d9190612cdc565b5090565b828054828255906000526020600020908101928215612bb0579160200282015b82811115612baf578251829080519060200190612b9f929190612d08565b5091602001919060010190612b81565b5b509050612bbd9190612d88565b5090565b604051806060016040528060001515815260200160001515815260200160006bffffffffffffffffffffffff1681525090565b612c3491905b80821115612c3057600081816101000a81549073ffffffffffffffffffffffffffffffffffffffff021916905550600101612bfa565b5090565b90565b612c5991905b80821115612c55576000816000905550600101612c3d565b5090565b90565b828054600181600116156101000203166002900490600052602060002090601f016020900481019282601f10612c9d57805160ff1916838001178555612ccb565b82800160010185558215612ccb579182015b82811115612cca578251825591602001919060010190612caf565b5b509050612cd89190612c37565b5090565b612d0591905b80821115612d015760008181612cf89190612db4565b50600101612ce2565b5090565b90565b828054600181600116156101000203166002900490600052602060002090601f016020900481019282601f10612d4957805160ff1916838001178555612d77565b82800160010185558215612d77579182015b82811115612d76578251825591602001919060010190612d5b565b5b509050612d849190612c37565b5090565b612db191905b80821115612dad5760008181612da49190612dfc565b50600101612d8e565b5090565b90565b50805460018160011615610100020316600290046000825580601f10612dda5750612df9565b601f016020900490600052602060002090810190612df89190612c37565b5b50565b50805460018160011615610100020316600290046000825580601f10612e225750612e41565b601f016020900490600052602060002090810190612e409190612c37565b5b50565b600081359050612e5381615285565b92915050565b600082601f830112612e6a57600080fd5b8135612e7d612e7882614e04565b614dd7565b91508181835260208401935060208101905083856020840282011115612ea257600080fd5b60005b83811015612ed25781612eb88882612e44565b845260208401935060208301925050600181019050612ea5565b5050505092915050565b600082601f830112612eed57600080fd5b8135612f00612efb82614e2c565b614dd7565b9150818183526020840193506020810190508360005b83811015612f465781358601612f2c888261309b565b845260208401935060208301925050600181019050612f16565b5050505092915050565b600082601f830112612f6157600080fd5b8135612f74612f6f82614e54565b614dd7565b9150818183526020840193506020810190508360005b83811015612fba5781358601612fa08882613143565b845260208401935060208301925050600181019050612f8a565b5050505092915050565b600082601f830112612fd557600080fd5b8135612fe8612fe382614e7c565b614dd7565b9150818183526020840193506020810190508385602084028201111561300d57600080fd5b60005b8381101561303d578161302388826131eb565b845260208401935060208301925050600181019050613010565b5050505092915050565b6000813590506130568161529c565b92915050565b60008151905061306b8161529c565b92915050565b600081359050613080816152b3565b92915050565b600081519050613095816152b3565b92915050565b600082601f8301126130ac57600080fd5b81356130bf6130ba82614ea4565b614dd7565b915080825260208301602083018583830111156130db57600080fd5b6130e683828461521b565b50505092915050565b600082601f83011261310057600080fd5b815161311361310e82614ed0565b614dd7565b9150808252602083016020830185838301111561312f57600080fd5b61313a83828461522a565b50505092915050565b600082601f83011261315457600080fd5b813561316761316282614efc565b614dd7565b9150808252602083016020830185838301111561318357600080fd5b61318e83828461521b565b50505092915050565b600082601f8301126131a857600080fd5b81356131bb6131b682614f28565b614dd7565b915080825260208301602083018583830111156131d757600080fd5b6131e283828461521b565b50505092915050565b6000813590506131fa816152ca565b92915050565b60008151905061320f816152ca565b92915050565b600081359050613224816152e1565b92915050565b600081519050613239816152f8565b92915050565b60006020828403121561325157600080fd5b600061325f84828501612e44565b91505092915050565b6000806040838503121561327b57600080fd5b600061328985828601612e44565b925050602061329a858286016131eb565b9150509250929050565b600080600080600060a086880312156132bc57600080fd5b600086013567ffffffffffffffff8111156132d657600080fd5b6132e288828901612e59565b955050602086013567ffffffffffffffff8111156132ff57600080fd5b61330b88828901612fc4565b945050604086013567ffffffffffffffff81111561332857600080fd5b61333488828901612f50565b935050606086013567ffffffffffffffff81111561335157600080fd5b61335d88828901612edc565b925050608086013567ffffffffffffffff81111561337a57600080fd5b61338688828901613197565b9150509295509295909350565b6000602082840312156133a557600080fd5b60006133b38482850161305c565b91505092915050565b6000602082840312156133ce57600080fd5b60006133dc84828501613086565b91505092915050565b6000602082840312156133f757600080fd5b600082015167ffffffffffffffff81111561341157600080fd5b61341d848285016130ef565b91505092915050565b60006020828403121561343857600080fd5b6000613446848285016131eb565b91505092915050565b60006020828403121561346157600080fd5b600061346f84828501613200565b91505092915050565b6000806040838503121561348b57600080fd5b6000613499858286016131eb565b92505060206134aa85828601612e44565b9150509250929050565b600080604083850312156134c757600080fd5b60006134d5858286016131eb565b92505060206134e685828601613047565b9150509250929050565b600080600080600060a0868803121561350857600080fd5b6000613516888289016131eb565b955050602061352788828901613047565b945050604061353888828901613215565b935050606061354988828901613071565b925050608061355a88828901613071565b9150509295509295909350565b60006020828403121561357957600080fd5b60006135878482850161322a565b91505092915050565b600061359c83836135f7565b60208301905092915050565b60006135b48383613838565b905092915050565b60006135c88383613975565b905092915050565b60006135dc838361456c565b60208301905092915050565b6135f181615167565b82525050565b613600816150dd565b82525050565b61360f816150dd565b82525050565b600061362082614fbe565b61362a818561504a565b935061363583614f54565b8060005b8381101561366657815161364d8882613590565b975061365883615016565b925050600181019050613639565b5085935050505092915050565b600061367e82614fc9565b613688818561505b565b93508360208202850161369a85614f64565b8060005b858110156136d657848403895281516136b785826135a8565b94506136c283615023565b925060208a0199505060018101905061369e565b50829750879550505050505092915050565b60006136f382614fd4565b6136fd818561506c565b93508360208202850161370f85614f74565b8060005b8581101561374b578484038952815161372c85826135bc565b945061373783615030565b925060208a01995050600181019050613713565b50829750879550505050505092915050565b600061376882614fdf565b613772818561507d565b935061377d83614f84565b8060005b838110156137ae57815161379588826135d0565b97506137a08361503d565b925050600181019050613781565b5085935050505092915050565b6137c4816150ef565b82525050565b6137d3816150ef565b82525050565b6137e2816150fb565b82525050565b6137f96137f4826150fb565b61525d565b82525050565b600061380a82614ff5565b613814818561509f565b935061382481856020860161522a565b61382d81615267565b840191505092915050565b600061384382614fea565b61384d818561508e565b935061385d81856020860161522a565b61386681615267565b840191505092915050565b60008154600181166000811461388e57600181146138b4576138f8565b607f600283041661389f818761509f565b955060ff1983168652602086019350506138f8565b600282046138c2818761509f565b95506138cd85614f94565b60005b828110156138ef578154818901526001820191506020810190506138d0565b80880195505050505b505092915050565b61390981615179565b82525050565b6139188161519d565b82525050565b613927816151c1565b82525050565b613936816151d3565b82525050565b60006139478261500b565b61395181856150c1565b935061396181856020860161522a565b61396a81615267565b840191505092915050565b600061398082615000565b61398a81856150b0565b935061399a81856020860161522a565b6139a381615267565b840191505092915050565b60006139b982615000565b6139c381856150c1565b93506139d381856020860161522a565b6139dc81615267565b840191505092915050565b600081546001811660008114613a045760018114613a2a57613a6e565b607f6002830416613a1581876150c1565b955060ff198316865260208601935050613a6e565b60028204613a3881876150c1565b9550613a4385614fa9565b60005b82811015613a6557815481890152600182019150602081019050613a46565b80880195505050505b505092915050565b6000613a836039836150c1565b91507f476f7665726e6f72416c7068613a3a5f5f61636365707441646d696e3a20736560008301527f6e646572206d75737420626520676f7620677561726469616e000000000000006020830152604082019050919050565b6000613ae96044836150c1565b91507f476f7665726e6f72416c7068613a3a71756575653a2070726f706f73616c206360008301527f616e206f6e6c792062652071756575656420696620697420697320737563636560208301527f65646564000000000000000000000000000000000000000000000000000000006040830152606082019050919050565b6000613b756045836150c1565b91507f476f7665726e6f72416c7068613a3a657865637574653a2070726f706f73616c60008301527f2063616e206f6e6c79206265206578656375746564206966206974206973207160208301527f75657565640000000000000000000000000000000000000000000000000000006040830152606082019050919050565b6000613c016002836150d2565b91507f19010000000000000000000000000000000000000000000000000000000000006000830152600282019050919050565b6000613c41604c836150c1565b91507f476f7665726e6f72416c7068613a3a5f5f6578656375746553657454696d656c60008301527f6f636b50656e64696e6741646d696e3a2073656e646572206d7573742062652060208301527f676f7620677561726469616e00000000000000000000000000000000000000006040830152606082019050919050565b6000613ccd6018836150c1565b91507f73657450656e64696e6741646d696e28616464726573732900000000000000006000830152602082019050919050565b6000613d0d6029836150c1565b91507f476f7665726e6f72416c7068613a3a73746174653a20696e76616c696420707260008301527f6f706f73616c20696400000000000000000000000000000000000000000000006020830152604082019050919050565b6000613d73602d836150c1565b91507f476f7665726e6f72416c7068613a3a5f63617374566f74653a20766f7465722060008301527f616c726561647920766f746564000000000000000000000000000000000000006020830152604082019050919050565b6000613dd96059836150c1565b91507f476f7665726e6f72416c7068613a3a70726f706f73653a206f6e65206c69766560008301527f2070726f706f73616c207065722070726f706f7365722c20666f756e6420616e60208301527f20616c72656164792070656e64696e672070726f706f73616c000000000000006040830152606082019050919050565b6000613e65604a836150c1565b91507f476f7665726e6f72416c7068613a3a5f5f717565756553657454696d656c6f6360008301527f6b50656e64696e6741646d696e3a2073656e646572206d75737420626520676f60208301527f7620677561726469616e000000000000000000000000000000000000000000006040830152606082019050919050565b6000613ef16028836150c1565b91507f476f7665726e6f72416c7068613a3a70726f706f73653a20746f6f206d616e7960008301527f20616374696f6e730000000000000000000000000000000000000000000000006020830152604082019050919050565b6000613f576011836150c1565b91507f6164646974696f6e206f766572666c6f770000000000000000000000000000006000830152602082019050919050565b6000613f976043836150d2565b91507f454950373132446f6d61696e28737472696e67206e616d652c75696e7432353660008301527f20636861696e49642c6164647265737320766572696679696e67436f6e74726160208301527f63742900000000000000000000000000000000000000000000000000000000006040830152604382019050919050565b60006140236027836150d2565b91507f42616c6c6f742875696e743235362070726f706f73616c49642c626f6f6c207360008301527f7570706f727429000000000000000000000000000000000000000000000000006020830152602782019050919050565b60006140896044836150c1565b91507f476f7665726e6f72416c7068613a3a70726f706f73653a2070726f706f73616c60008301527f2066756e6374696f6e20696e666f726d6174696f6e206172697479206d69736d60208301527f61746368000000000000000000000000000000000000000000000000000000006040830152606082019050919050565b6000614115602f836150c1565b91507f476f7665726e6f72416c7068613a3a63616e63656c3a2070726f706f7365722060008301527f61626f7665207468726573686f6c6400000000000000000000000000000000006020830152604082019050919050565b600061417b6044836150c1565b91507f476f7665726e6f72416c7068613a3a5f71756575654f725265766572743a207060008301527f726f706f73616c20616374696f6e20616c72656164792071756575656420617460208301527f20657461000000000000000000000000000000000000000000000000000000006040830152606082019050919050565b6000614207602c836150c1565b91507f476f7665726e6f72416c7068613a3a70726f706f73653a206d7573742070726f60008301527f7669646520616374696f6e7300000000000000000000000000000000000000006020830152604082019050919050565b600061426d603f836150c1565b91507f476f7665726e6f72416c7068613a3a70726f706f73653a2070726f706f73657260008301527f20766f7465732062656c6f772070726f706f73616c207468726573686f6c64006020830152604082019050919050565b60006142d3602f836150c1565b91507f476f7665726e6f72416c7068613a3a63617374566f746542795369673a20696e60008301527f76616c6964207369676e617475726500000000000000000000000000000000006020830152604082019050919050565b60006143396058836150c1565b91507f476f7665726e6f72416c7068613a3a70726f706f73653a206f6e65206c69766560008301527f2070726f706f73616c207065722070726f706f7365722c20666f756e6420616e60208301527f20616c7265616479206163746976652070726f706f73616c00000000000000006040830152606082019050919050565b60006143c56036836150c1565b91507f476f7665726e6f72416c7068613a3a63616e63656c3a2063616e6e6f7420636160008301527f6e63656c2065786563757465642070726f706f73616c000000000000000000006020830152604082019050919050565b600061442b602a836150c1565b91507f476f7665726e6f72416c7068613a3a5f63617374566f74653a20766f74696e6760008301527f20697320636c6f736564000000000000000000000000000000000000000000006020830152604082019050919050565b60006144916015836150c1565b91507f7375627472616374696f6e20756e646572666c6f7700000000000000000000006000830152602082019050919050565b60006144d16036836150c1565b91507f476f7665726e6f72416c7068613a3a5f5f61626469636174653a2073656e646560008301527f72206d75737420626520676f7620677561726469616e000000000000000000006020830152604082019050919050565b60608201600082015161454060008501826137bb565b50602082015161455360208501826137bb565b50604082015161456660408501826145a8565b50505050565b61457581615138565b82525050565b61458481615138565b82525050565b61459381615142565b82525050565b6145a281615209565b82525050565b6145b18161514f565b82525050565b60006145c282613bf4565b91506145ce82856137e8565b6020820191506145de82846137e8565b6020820191508190509392505050565b60006145f982613f8a565b9150819050919050565b600061460e82614016565b9150819050919050565b600060208201905061462d6000830184613606565b92915050565b600060408201905061464860008301856135e8565b614655602083018461457b565b9392505050565b600060a0820190506146716000830187613606565b61467e602083018661392d565b818103604083015261468f81613cc0565b905081810360608301526146a381856137ff565b90506146b2608083018461457b565b95945050505050565b60006040820190506146d06000830185613606565b6146dd602083018461457b565b9392505050565b60006080820190506146f96000830187613606565b614706602083018661457b565b61471360408301856137ca565b6147206060830184614599565b95945050505050565b600060a08201905061473e6000830188613606565b61474b602083018761457b565b818103604083015261475d818661393c565b9050818103606083015261477181856137ff565b9050614780608083018461457b565b9695505050505050565b600060a08201905061479f6000830188613606565b6147ac602083018761457b565b81810360408301526147be81866139e7565b905081810360608301526147d28185613871565b90506147e1608083018461457b565b9695505050505050565b600060808201905081810360008301526148058187613615565b90508181036020830152614819818661375d565b9050818103604083015261482d81856136e8565b905081810360608301526148418184613673565b905095945050505050565b600060208201905061486160008301846137d9565b92915050565b600060808201905061487c60008301876137d9565b61488960208301866137d9565b614896604083018561457b565b6148a36060830184613606565b95945050505050565b60006060820190506148c160008301866137d9565b6148ce602083018561457b565b6148db60408301846137ca565b949350505050565b60006080820190506148f860008301876137d9565b614905602083018661458a565b61491260408301856137d9565b61491f60608301846137d9565b95945050505050565b600060208201905061493d6000830184613900565b92915050565b6000602082019050614958600083018461390f565b92915050565b6000602082019050614973600083018461391e565b92915050565b6000602082019050818103600083015261499381846139ae565b905092915050565b600060208201905081810360008301526149b481613a76565b9050919050565b600060208201905081810360008301526149d481613adc565b9050919050565b600060208201905081810360008301526149f481613b68565b9050919050565b60006020820190508181036000830152614a1481613c34565b9050919050565b60006020820190508181036000830152614a3481613d00565b9050919050565b60006020820190508181036000830152614a5481613d66565b9050919050565b60006020820190508181036000830152614a7481613dcc565b9050919050565b60006020820190508181036000830152614a9481613e58565b9050919050565b60006020820190508181036000830152614ab481613ee4565b9050919050565b60006020820190508181036000830152614ad481613f4a565b9050919050565b60006020820190508181036000830152614af48161407c565b9050919050565b60006020820190508181036000830152614b1481614108565b9050919050565b60006020820190508181036000830152614b348161416e565b9050919050565b60006020820190508181036000830152614b54816141fa565b9050919050565b60006020820190508181036000830152614b7481614260565b9050919050565b60006020820190508181036000830152614b94816142c6565b9050919050565b60006020820190508181036000830152614bb48161432c565b9050919050565b60006020820190508181036000830152614bd4816143b8565b9050919050565b60006020820190508181036000830152614bf48161441e565b9050919050565b60006020820190508181036000830152614c1481614484565b9050919050565b60006020820190508181036000830152614c34816144c4565b9050919050565b6000606082019050614c50600083018461452a565b92915050565b6000602082019050614c6b600083018461457b565b92915050565b600061012082019050614c87600083018c61457b565b614c94602083018b6135e8565b8181036040830152614ca6818a613615565b90508181036060830152614cba818961375d565b90508181036080830152614cce81886136e8565b905081810360a0830152614ce28187613673565b9050614cf160c083018661457b565b614cfe60e083018561457b565b818103610100830152614d11818461393c565b90509a9950505050505050505050565b600061012082019050614d37600083018c61457b565b614d44602083018b613606565b614d51604083018a61457b565b614d5e606083018961457b565b614d6b608083018861457b565b614d7860a083018761457b565b614d8560c083018661457b565b614d9260e08301856137ca565b614da06101008301846137ca565b9a9950505050505050505050565b6000604082019050614dc3600083018561457b565b614dd0602083018461457b565b9392505050565b6000604051905081810181811067ffffffffffffffff82111715614dfa57600080fd5b8060405250919050565b600067ffffffffffffffff821115614e1b57600080fd5b602082029050602081019050919050565b600067ffffffffffffffff821115614e4357600080fd5b602082029050602081019050919050565b600067ffffffffffffffff821115614e6b57600080fd5b602082029050602081019050919050565b600067ffffffffffffffff821115614e9357600080fd5b602082029050602081019050919050565b600067ffffffffffffffff821115614ebb57600080fd5b601f19601f8301169050602081019050919050565b600067ffffffffffffffff821115614ee757600080fd5b601f19601f8301169050602081019050919050565b600067ffffffffffffffff821115614f1357600080fd5b601f19601f8301169050602081019050919050565b600067ffffffffffffffff821115614f3f57600080fd5b601f19601f8301169050602081019050919050565b6000819050602082019050919050565b6000819050602082019050919050565b6000819050602082019050919050565b6000819050602082019050919050565b60008190508160005260206000209050919050565b60008190508160005260206000209050919050565b600081519050919050565b600081519050919050565b600081519050919050565b600081519050919050565b600081519050919050565b600081519050919050565b600081519050919050565b600081519050919050565b6000602082019050919050565b6000602082019050919050565b6000602082019050919050565b6000602082019050919050565b600082825260208201905092915050565b600082825260208201905092915050565b600082825260208201905092915050565b600082825260208201905092915050565b600082825260208201905092915050565b600082825260208201905092915050565b600082825260208201905092915050565b600082825260208201905092915050565b600081905092915050565b60006150e882615118565b9050919050565b60008115159050919050565b6000819050919050565b600081905061511382615278565b919050565b600073ffffffffffffffffffffffffffffffffffffffff82169050919050565b6000819050919050565b600060ff82169050919050565b60006bffffffffffffffffffffffff82169050919050565b6000615172826151e5565b9050919050565b60006151848261518b565b9050919050565b600061519682615118565b9050919050565b60006151a8826151af565b9050919050565b60006151ba82615118565b9050919050565b60006151cc82615105565b9050919050565b60006151de82615138565b9050919050565b60006151f0826151f7565b9050919050565b600061520282615118565b9050919050565b60006152148261514f565b9050919050565b82818337600083830152505050565b60005b8381101561524857808201518184015260208101905061522d565b83811115615257576000848401525b50505050565b6000819050919050565b6000601f19601f8301169050919050565b6008811061528257fe5b50565b61528e816150dd565b811461529957600080fd5b50565b6152a5816150ef565b81146152b057600080fd5b50565b6152bc816150fb565b81146152c757600080fd5b50565b6152d381615138565b81146152de57600080fd5b50565b6152ea81615142565b81146152f557600080fd5b50565b6153018161514f565b811461530c57600080fd5b5056fea365627a7a72315820a15bcf40d35f0b6b2d499ed975ee154f8923922ecf861cabc624f4168c955f4c6c6578706572696d656e74616cf564736f6c63430005100040",
  "source": "pragma solidity ^0.5.16;\r\npragma experimental ABIEncoderV2;\r\n\r\ncontract GovernorAlpha {\r\n    /// @notice The name of this contract\r\n    string public constant name = \"Bex Governor Alpha\";\r\n\r\n    /// @notice The number of votes in support of a proposal required in order for a quorum to be reached and for a vote to succeed\r\n    function quorumVotes() public pure returns (uint) { return 400000e18; } // 400,000 = 4% of Bex\r\n\r\n    /// @notice The number of votes required in order for a voter to become a proposer\r\n    function proposalThreshold() public pure returns (uint) { return 100000e18; } // 100,000 = 1% of Bex\r\n\r\n    /// @notice The maximum number of actions that can be included in a proposal\r\n    function proposalMaxOperations() public pure returns (uint) { return 10; } // 10 actions\r\n\r\n    /// @notice The delay before voting on a proposal may take place, once proposed\r\n    function votingDelay() public pure returns (uint) { return 1; } // 1 block\r\n\r\n    /// @notice The duration of voting on a proposal, in blocks\r\n    function votingPeriod() public pure returns (uint) { return 17280; } // ~3 days in blocks (assuming 15s blocks)\r\n\r\n    /// @notice The address of the Bex Protocol Timelock\r\n    TimelockInterface public timelock;\r\n\r\n    /// @notice The address of the Bex governance token\r\n    CompInterface public Bex;\r\n\r\n    /// @notice The address of the Governor Guardian\r\n    address public guardian;\r\n\r\n    /// @notice The total number of proposals\r\n    uint public proposalCount;\r\n\r\n    struct Proposal {\r\n        /// @notice Unique id for looking up a proposal\r\n        uint id;\r\n\r\n        /// @notice Creator of the proposal\r\n        address proposer;\r\n\r\n        /// @notice The timestamp that the proposal will be available for execution, set once the vote succeeds\r\n        uint eta;\r\n\r\n        /// @notice the ordered list of target addresses for calls to be made\r\n        address[] targets;\r\n\r\n        /// @notice The ordered list of values (i.e. msg.value) to be passed to the calls to be made\r\n        uint[] values;\r\n\r\n        /// @notice The ordered list of function signatures to be called\r\n        string[] signatures;\r\n\r\n        /// @notice The ordered list of calldata to be passed to each call\r\n        bytes[] calldatas;\r\n\r\n        /// @notice The block at which voting begins: holders must delegate their votes prior to this block\r\n        uint startBlock;\r\n\r\n        /// @notice The block at which voting ends: votes must be cast prior to this block\r\n        uint endBlock;\r\n\r\n        /// @notice Current number of votes in favor of this proposal\r\n        uint forVotes;\r\n\r\n        /// @notice Current number of votes in opposition to this proposal\r\n        uint againstVotes;\r\n\r\n        /// @notice Flag marking whether the proposal has been canceled\r\n        bool canceled;\r\n\r\n        /// @notice Flag marking whether the proposal has been executed\r\n        bool executed;\r\n\r\n        /// @notice Receipts of ballots for the entire set of voters\r\n        mapping (address => Receipt) receipts;\r\n    }\r\n\r\n    /// @notice Ballot receipt record for a voter\r\n    struct Receipt {\r\n        /// @notice Whether or not a vote has been cast\r\n        bool hasVoted;\r\n\r\n        /// @notice Whether or not the voter supports the proposal\r\n        bool support;\r\n\r\n        /// @notice The number of votes the voter had, which were cast\r\n        uint96 votes;\r\n    }\r\n\r\n    /// @notice Possible states that a proposal may be in\r\n    enum ProposalState {\r\n        Pending,\r\n        Active,\r\n        Canceled,\r\n        Defeated,\r\n        Succeeded,\r\n        Queued,\r\n        Expired,\r\n        Executed\r\n    }\r\n\r\n    /// @notice The official record of all proposals ever proposed\r\n    mapping (uint => Proposal) public proposals;\r\n\r\n    /// @notice The latest proposal for each proposer\r\n    mapping (address => uint) public latestProposalIds;\r\n\r\n    /// @notice The EIP-712 typehash for the contract's domain\r\n    bytes32 public constant DOMAIN_TYPEHASH = keccak256(\"EIP712Domain(string name,uint256 chainId,address verifyingContract)\");\r\n\r\n    /// @notice The EIP-712 typehash for the ballot struct used by the contract\r\n    bytes32 public constant BALLOT_TYPEHASH = keccak256(\"Ballot(uint256 proposalId,bool support)\");\r\n\r\n    /// @notice An event emitted when a new proposal is created\r\n    event ProposalCreated(uint id, address proposer, address[] targets, uint[] values, string[] signatures, bytes[] calldatas, uint startBlock, uint endBlock, string description);\r\n\r\n    /// @notice An event emitted when a vote has been cast on a proposal\r\n    event VoteCast(address voter, uint proposalId, bool support, uint votes);\r\n\r\n    /// @notice An event emitted when a proposal has been canceled\r\n    event ProposalCanceled(uint id);\r\n\r\n    /// @notice An event emitted when a proposal has been queued in the Timelock\r\n    event ProposalQueued(uint id, uint eta);\r\n\r\n    /// @notice An event emitted when a proposal has been executed in the Timelock\r\n    event ProposalExecuted(uint id);\r\n\r\n    constructor(address timelock_, address Bex_, address guardian_) public {\r\n        timelock = TimelockInterface(timelock_);\r\n        Bex = CompInterface(Bex_);\r\n        guardian = guardian_;\r\n    }\r\n\r\n    function acceptAdmin() public {\r\n        timelock.acceptAdmin();\r\n    }\r\n\r\n    function propose(address[] memory targets, uint[] memory values, string[] memory signatures, bytes[] memory calldatas, string memory description) public returns (uint) {\r\n        require(Bex.getPriorVotes(msg.sender, sub256(block.number, 1)) > proposalThreshold(), \"GovernorAlpha::propose: proposer votes below proposal threshold\");\r\n        require(targets.length == values.length && targets.length == signatures.length && targets.length == calldatas.length, \"GovernorAlpha::propose: proposal function information arity mismatch\");\r\n        require(targets.length != 0, \"GovernorAlpha::propose: must provide actions\");\r\n        require(targets.length <= proposalMaxOperations(), \"GovernorAlpha::propose: too many actions\");\r\n\r\n        uint latestProposalId = latestProposalIds[msg.sender];\r\n        if (latestProposalId != 0) {\r\n          ProposalState proposersLatestProposalState = state(latestProposalId);\r\n          require(proposersLatestProposalState != ProposalState.Active, \"GovernorAlpha::propose: one live proposal per proposer, found an already active proposal\");\r\n          require(proposersLatestProposalState != ProposalState.Pending, \"GovernorAlpha::propose: one live proposal per proposer, found an already pending proposal\");\r\n        }\r\n\r\n        uint startBlock = add256(block.number, votingDelay());\r\n        uint endBlock = add256(startBlock, votingPeriod());\r\n\r\n        proposalCount++;\r\n        Proposal memory newProposal = Proposal({\r\n            id: proposalCount,\r\n            proposer: msg.sender,\r\n            eta: 0,\r\n            targets: targets,\r\n            values: values,\r\n            signatures: signatures,\r\n            calldatas: calldatas,\r\n            startBlock: startBlock,\r\n            endBlock: endBlock,\r\n            forVotes: 0,\r\n            againstVotes: 0,\r\n            canceled: false,\r\n            executed: false\r\n        });\r\n\r\n        proposals[newProposal.id] = newProposal;\r\n        latestProposalIds[newProposal.proposer] = newProposal.id;\r\n\r\n        emit ProposalCreated(newProposal.id, msg.sender, targets, values, signatures, calldatas, startBlock, endBlock, description);\r\n        return newProposal.id;\r\n    }\r\n\r\n    function queue(uint proposalId) public {\r\n        require(state(proposalId) == ProposalState.Succeeded, \"GovernorAlpha::queue: proposal can only be queued if it is succeeded\");\r\n        Proposal storage proposal = proposals[proposalId];\r\n        uint eta = add256(block.timestamp, timelock.delay());\r\n        for (uint i = 0; i < proposal.targets.length; i++) {\r\n            _queueOrRevert(proposal.targets[i], proposal.values[i], proposal.signatures[i], proposal.calldatas[i], eta);\r\n        }\r\n        proposal.eta = eta;\r\n        emit ProposalQueued(proposalId, eta);\r\n    }\r\n\r\n    function _queueOrRevert(address target, uint value, string memory signature, bytes memory data, uint eta) internal {\r\n        require(!timelock.queuedTransactions(keccak256(abi.encode(target, value, signature, data, eta))), \"GovernorAlpha::_queueOrRevert: proposal action already queued at eta\");\r\n        timelock.queueTransaction(target, value, signature, data, eta);\r\n    }\r\n\r\n    function execute(uint proposalId) public payable {\r\n        require(state(proposalId) == ProposalState.Queued, \"GovernorAlpha::execute: proposal can only be executed if it is queued\");\r\n        Proposal storage proposal = proposals[proposalId];\r\n        proposal.executed = true;\r\n        for (uint i = 0; i < proposal.targets.length; i++) {\r\n            timelock.executeTransaction.value(proposal.values[i])(proposal.targets[i], proposal.values[i], proposal.signatures[i], proposal.calldatas[i], proposal.eta);\r\n        }\r\n        emit ProposalExecuted(proposalId);\r\n    }\r\n\r\n    function cancel(uint proposalId) public {\r\n        ProposalState state = state(proposalId);\r\n        require(state != ProposalState.Executed, \"GovernorAlpha::cancel: cannot cancel executed proposal\");\r\n\r\n        Proposal storage proposal = proposals[proposalId];\r\n        require(msg.sender == guardian || Bex.getPriorVotes(proposal.proposer, sub256(block.number, 1)) < proposalThreshold(), \"GovernorAlpha::cancel: proposer above threshold\");\r\n\r\n        proposal.canceled = true;\r\n        for (uint i = 0; i < proposal.targets.length; i++) {\r\n            timelock.cancelTransaction(proposal.targets[i], proposal.values[i], proposal.signatures[i], proposal.calldatas[i], proposal.eta);\r\n        }\r\n\r\n        emit ProposalCanceled(proposalId);\r\n    }\r\n\r\n    function getActions(uint proposalId) public view returns (address[] memory targets, uint[] memory values, string[] memory signatures, bytes[] memory calldatas) {\r\n        Proposal storage p = proposals[proposalId];\r\n        return (p.targets, p.values, p.signatures, p.calldatas);\r\n    }\r\n\r\n    function getReceipt(uint proposalId, address voter) public view returns (Receipt memory) {\r\n        return proposals[proposalId].receipts[voter];\r\n    }\r\n\r\n    function state(uint proposalId) public view returns (ProposalState) {\r\n        require(proposalCount >= proposalId && proposalId > 0, \"GovernorAlpha::state: invalid proposal id\");\r\n        Proposal storage proposal = proposals[proposalId];\r\n        if (proposal.canceled) {\r\n            return ProposalState.Canceled;\r\n        } else if (block.number <= proposal.startBlock) {\r\n            return ProposalState.Pending;\r\n        } else if (block.number <= proposal.endBlock) {\r\n            return ProposalState.Active;\r\n        } else if (proposal.forVotes <= proposal.againstVotes || proposal.forVotes < quorumVotes()) {\r\n            return ProposalState.Defeated;\r\n        } else if (proposal.eta == 0) {\r\n            return ProposalState.Succeeded;\r\n        } else if (proposal.executed) {\r\n            return ProposalState.Executed;\r\n        } else if (block.timestamp >= add256(proposal.eta, timelock.GRACE_PERIOD())) {\r\n            return ProposalState.Expired;\r\n        } else {\r\n            return ProposalState.Queued;\r\n        }\r\n    }\r\n\r\n    function castVote(uint proposalId, bool support) public {\r\n        return _castVote(msg.sender, proposalId, support);\r\n    }\r\n\r\n    function castVoteBySig(uint proposalId, bool support, uint8 v, bytes32 r, bytes32 s) public {\r\n        bytes32 domainSeparator = keccak256(abi.encode(DOMAIN_TYPEHASH, keccak256(bytes(name)), getChainId(), address(this)));\r\n        bytes32 structHash = keccak256(abi.encode(BALLOT_TYPEHASH, proposalId, support));\r\n        bytes32 digest = keccak256(abi.encodePacked(\"\\x19\\x01\", domainSeparator, structHash));\r\n        address signatory = ecrecover(digest, v, r, s);\r\n        require(signatory != address(0), \"GovernorAlpha::castVoteBySig: invalid signature\");\r\n        return _castVote(signatory, proposalId, support);\r\n    }\r\n\r\n    function _castVote(address voter, uint proposalId, bool support) internal {\r\n        require(state(proposalId) == ProposalState.Active, \"GovernorAlpha::_castVote: voting is closed\");\r\n        Proposal storage proposal = proposals[proposalId];\r\n        Receipt storage receipt = proposal.receipts[voter];\r\n        require(receipt.hasVoted == false, \"GovernorAlpha::_castVote: voter already voted\");\r\n        uint96 votes = Bex.getPriorVotes(voter, proposal.startBlock);\r\n\r\n        if (support) {\r\n            proposal.forVotes = add256(proposal.forVotes, votes);\r\n        } else {\r\n            proposal.againstVotes = add256(proposal.againstVotes, votes);\r\n        }\r\n\r\n        receipt.hasVoted = true;\r\n        receipt.support = support;\r\n        receipt.votes = votes;\r\n\r\n        emit VoteCast(voter, proposalId, support, votes);\r\n    }\r\n\r\n    function __acceptAdmin() public {\r\n        require(msg.sender == guardian, \"GovernorAlpha::__acceptAdmin: sender must be gov guardian\");\r\n        timelock.acceptAdmin();\r\n    }\r\n\r\n    function __abdicate() public {\r\n        require(msg.sender == guardian, \"GovernorAlpha::__abdicate: sender must be gov guardian\");\r\n        guardian = address(0);\r\n    }\r\n\r\n    function __queueSetTimelockPendingAdmin(address newPendingAdmin, uint eta) public {\r\n        require(msg.sender == guardian, \"GovernorAlpha::__queueSetTimelockPendingAdmin: sender must be gov guardian\");\r\n        timelock.queueTransaction(address(timelock), 0, \"setPendingAdmin(address)\", abi.encode(newPendingAdmin), eta);\r\n    }\r\n\r\n    function __executeSetTimelockPendingAdmin(address newPendingAdmin, uint eta) public {\r\n        require(msg.sender == guardian, \"GovernorAlpha::__executeSetTimelockPendingAdmin: sender must be gov guardian\");\r\n        timelock.executeTransaction(address(timelock), 0, \"setPendingAdmin(address)\", abi.encode(newPendingAdmin), eta);\r\n    }\r\n\r\n    function add256(uint256 a, uint256 b) internal pure returns (uint) {\r\n        uint c = a + b;\r\n        require(c >= a, \"addition overflow\");\r\n        return c;\r\n    }\r\n\r\n    function sub256(uint256 a, uint256 b) internal pure returns (uint) {\r\n        require(b <= a, \"subtraction underflow\");\r\n        return a - b;\r\n    }\r\n\r\n    function getChainId() internal pure returns (uint) {\r\n        uint chainId;\r\n        assembly { chainId := chainid() }\r\n        return chainId;\r\n    }\r\n}\r\n\r\ninterface TimelockInterface {\r\n    function delay() external view returns (uint);\r\n    function GRACE_PERIOD() external view returns (uint);\r\n    function acceptAdmin() external;\r\n    function queuedTransactions(bytes32 hash) external view returns (bool);\r\n    function queueTransaction(address target, uint value, string calldata signature, bytes calldata data, uint eta) external returns (bytes32);\r\n    function cancelTransaction(address target, uint value, string calldata signature, bytes calldata data, uint eta) external;\r\n    function executeTransaction(address target, uint value, string calldata signature, bytes calldata data, uint eta) external payable returns (bytes memory);\r\n}\r\n\r\ninterface CompInterface {\r\n    function getPriorVotes(address account, uint blockNumber) external view returns (uint96);\r\n}",
  "sourcePath": "F:\\Projects\\kyyle\\deployment-tests\\contracts\\v5\\Governance\\GovernorAlpha.sol",
  "compiler": {
    "name": "solc",
    "version": "0.5.16+commit.9c3226ce.Emscripten.clang"
  },
  "schemaVersion": "3.2.2-next.0",
  "updatedAt": "2021-03-29T21:25:53.076Z",
  "devdoc": {
    "methods": {}
  },
  "userdoc": {
    "methods": {
      "proposalMaxOperations()": {
        "notice": "The maximum number of actions that can be included in a proposal"
      },
      "proposalThreshold()": {
        "notice": "The number of votes required in order for a voter to become a proposer"
      },
      "quorumVotes()": {
        "notice": "The number of votes in support of a proposal required in order for a quorum to be reached and for a vote to succeed"
      },
      "votingDelay()": {
        "notice": "The delay before voting on a proposal may take place, once proposed"
      },
      "votingPeriod()": {
        "notice": "The duration of voting on a proposal, in blocks"
      }
    }
  }
}