{
  "contractName": "Oms",
  "abi": [
    {
      "constant": true,
      "inputs": [],
      "name": "name",
      "outputs": [
        {
          "name": "",
          "type": "string"
        }
      ],
      "payable": false,
      "stateMutability": "view",
      "type": "function"
    },
    {
      "constant": true,
      "inputs": [],
      "name": "decimals",
      "outputs": [
        {
          "name": "",
          "type": "uint8"
        }
      ],
      "payable": false,
      "stateMutability": "view",
      "type": "function"
    },
    {
      "constant": true,
      "inputs": [],
      "name": "rebasePaused",
      "outputs": [
        {
          "name": "",
          "type": "bool"
        }
      ],
      "payable": false,
      "stateMutability": "view",
      "type": "function"
    },
    {
      "constant": false,
      "inputs": [],
      "name": "renounceOwnership",
      "outputs": [],
      "payable": false,
      "stateMutability": "nonpayable",
      "type": "function"
    },
    {
      "constant": true,
      "inputs": [],
      "name": "tokenPaused",
      "outputs": [
        {
          "name": "",
          "type": "bool"
        }
      ],
      "payable": false,
      "stateMutability": "view",
      "type": "function"
    },
    {
      "constant": true,
      "inputs": [],
      "name": "owner",
      "outputs": [
        {
          "name": "",
          "type": "address"
        }
      ],
      "payable": false,
      "stateMutability": "view",
      "type": "function"
    },
    {
      "constant": true,
      "inputs": [],
      "name": "isOwner",
      "outputs": [
        {
          "name": "",
          "type": "bool"
        }
      ],
      "payable": false,
      "stateMutability": "view",
      "type": "function"
    },
    {
      "constant": true,
      "inputs": [],
      "name": "symbol",
      "outputs": [
        {
          "name": "",
          "type": "string"
        }
      ],
      "payable": false,
      "stateMutability": "view",
      "type": "function"
    },
    {
      "constant": true,
      "inputs": [],
      "name": "omsPolicy",
      "outputs": [
        {
          "name": "",
          "type": "address"
        }
      ],
      "payable": false,
      "stateMutability": "view",
      "type": "function"
    },
    {
      "constant": false,
      "inputs": [
        {
          "name": "newOwner",
          "type": "address"
        }
      ],
      "name": "transferOwnership",
      "outputs": [],
      "payable": false,
      "stateMutability": "nonpayable",
      "type": "function"
    },
    {
      "anonymous": false,
      "inputs": [
        {
          "indexed": true,
          "name": "epoch",
          "type": "uint256"
        },
        {
          "indexed": false,
          "name": "totalSupply",
          "type": "uint256"
        }
      ],
      "name": "LogRebase",
      "type": "event"
    },
    {
      "anonymous": false,
      "inputs": [
        {
          "indexed": false,
          "name": "paused",
          "type": "bool"
        }
      ],
      "name": "LogRebasePaused",
      "type": "event"
    },
    {
      "anonymous": false,
      "inputs": [
        {
          "indexed": false,
          "name": "paused",
          "type": "bool"
        }
      ],
      "name": "LogTokenPaused",
      "type": "event"
    },
    {
      "anonymous": false,
      "inputs": [
        {
          "indexed": false,
          "name": "omsPolicy",
          "type": "address"
        }
      ],
      "name": "LogOmsPolicyUpdated",
      "type": "event"
    },
    {
      "anonymous": false,
      "inputs": [
        {
          "indexed": true,
          "name": "previousOwner",
          "type": "address"
        }
      ],
      "name": "OwnershipRenounced",
      "type": "event"
    },
    {
      "anonymous": false,
      "inputs": [
        {
          "indexed": true,
          "name": "previousOwner",
          "type": "address"
        },
        {
          "indexed": true,
          "name": "newOwner",
          "type": "address"
        }
      ],
      "name": "OwnershipTransferred",
      "type": "event"
    },
    {
      "anonymous": false,
      "inputs": [
        {
          "indexed": true,
          "name": "from",
          "type": "address"
        },
        {
          "indexed": true,
          "name": "to",
          "type": "address"
        },
        {
          "indexed": false,
          "name": "value",
          "type": "uint256"
        }
      ],
      "name": "Transfer",
      "type": "event"
    },
    {
      "anonymous": false,
      "inputs": [
        {
          "indexed": true,
          "name": "owner",
          "type": "address"
        },
        {
          "indexed": true,
          "name": "spender",
          "type": "address"
        },
        {
          "indexed": false,
          "name": "value",
          "type": "uint256"
        }
      ],
      "name": "Approval",
      "type": "event"
    },
    {
      "constant": false,
      "inputs": [
        {
          "name": "omsPolicy_",
          "type": "address"
        }
      ],
      "name": "setOmsPolicy",
      "outputs": [],
      "payable": false,
      "stateMutability": "nonpayable",
      "type": "function"
    },
    {
      "constant": false,
      "inputs": [
        {
          "name": "paused",
          "type": "bool"
        }
      ],
      "name": "setRebasePaused",
      "outputs": [],
      "payable": false,
      "stateMutability": "nonpayable",
      "type": "function"
    },
    {
      "constant": false,
      "inputs": [
        {
          "name": "paused",
          "type": "bool"
        }
      ],
      "name": "setTokenPaused",
      "outputs": [],
      "payable": false,
      "stateMutability": "nonpayable",
      "type": "function"
    },
    {
      "constant": false,
      "inputs": [
        {
          "name": "epoch",
          "type": "uint256"
        },
        {
          "name": "supplyDelta",
          "type": "int256"
        }
      ],
      "name": "rebase",
      "outputs": [
        {
          "name": "",
          "type": "uint256"
        }
      ],
      "payable": false,
      "stateMutability": "nonpayable",
      "type": "function"
    },
    {
      "constant": false,
      "inputs": [
        {
          "name": "name",
          "type": "string"
        },
        {
          "name": "symbol",
          "type": "string"
        },
        {
          "name": "decimals",
          "type": "uint8"
        }
      ],
      "name": "initialize",
      "outputs": [],
      "payable": false,
      "stateMutability": "nonpayable",
      "type": "function"
    },
    {
      "constant": false,
      "inputs": [
        {
          "name": "owner_",
          "type": "address"
        }
      ],
      "name": "initialize",
      "outputs": [],
      "payable": false,
      "stateMutability": "nonpayable",
      "type": "function"
    },
    {
      "constant": true,
      "inputs": [],
      "name": "totalSupply",
      "outputs": [
        {
          "name": "",
          "type": "uint256"
        }
      ],
      "payable": false,
      "stateMutability": "view",
      "type": "function"
    },
    {
      "constant": true,
      "inputs": [
        {
          "name": "who",
          "type": "address"
        }
      ],
      "name": "balanceOf",
      "outputs": [
        {
          "name": "",
          "type": "uint256"
        }
      ],
      "payable": false,
      "stateMutability": "view",
      "type": "function"
    },
    {
      "constant": false,
      "inputs": [
        {
          "name": "to",
          "type": "address"
        },
        {
          "name": "value",
          "type": "uint256"
        }
      ],
      "name": "transfer",
      "outputs": [
        {
          "name": "",
          "type": "bool"
        }
      ],
      "payable": false,
      "stateMutability": "nonpayable",
      "type": "function"
    },
    {
      "constant": true,
      "inputs": [
        {
          "name": "owner_",
          "type": "address"
        },
        {
          "name": "spender",
          "type": "address"
        }
      ],
      "name": "allowance",
      "outputs": [
        {
          "name": "",
          "type": "uint256"
        }
      ],
      "payable": false,
      "stateMutability": "view",
      "type": "function"
    },
    {
      "constant": false,
      "inputs": [
        {
          "name": "from",
          "type": "address"
        },
        {
          "name": "to",
          "type": "address"
        },
        {
          "name": "value",
          "type": "uint256"
        }
      ],
      "name": "transferFrom",
      "outputs": [
        {
          "name": "",
          "type": "bool"
        }
      ],
      "payable": false,
      "stateMutability": "nonpayable",
      "type": "function"
    },
    {
      "constant": false,
      "inputs": [
        {
          "name": "spender",
          "type": "address"
        },
        {
          "name": "value",
          "type": "uint256"
        }
      ],
      "name": "approve",
      "outputs": [
        {
          "name": "",
          "type": "bool"
        }
      ],
      "payable": false,
      "stateMutability": "nonpayable",
      "type": "function"
    },
    {
      "constant": false,
      "inputs": [
        {
          "name": "spender",
          "type": "address"
        },
        {
          "name": "addedValue",
          "type": "uint256"
        }
      ],
      "name": "increaseAllowance",
      "outputs": [
        {
          "name": "",
          "type": "bool"
        }
      ],
      "payable": false,
      "stateMutability": "nonpayable",
      "type": "function"
    },
    {
      "constant": false,
      "inputs": [
        {
          "name": "spender",
          "type": "address"
        },
        {
          "name": "subtractedValue",
          "type": "uint256"
        }
      ],
      "name": "decreaseAllowance",
      "outputs": [
        {
          "name": "",
          "type": "bool"
        }
      ],
      "payable": false,
      "stateMutability": "nonpayable",
      "type": "function"
    }
  ],
  "bytecode": "0x608060405234801561001057600080fd5b50612490806100206000396000f30060806040526004361061013e576000357c0100000000000000000000000000000000000000000000000000000000900463ffffffff16806306fdde0314610143578063095ea7b3146101d35780631624f6c61461023857806318160ddd146102f457806322872e0b1461031f57806323b872dd1461034e57806329519457146103d3578063313ce56714610402578063395093511461043357806353ca9f241461049857806370a08231146104c7578063715018a61461051e5780637a43e23f1461053557806386c75e74146105805780638da5cb5b146105af5780638f32d59b1461060657806395d89b41146106355780639be76c8b146106c5578063a457c2d714610708578063a9059cbb1461076d578063b7525a0c146107d2578063c4d66de814610829578063dd62ed3e1461086c578063f2fde38b146108e3575b600080fd5b34801561014f57600080fd5b50610158610926565b6040518080602001828103825283818151815260200191508051906020019080838360005b8381101561019857808201518184015260208101905061017d565b50505050905090810190601f1680156101c55780820380516001836020036101000a031916815260200191505b509250505060405180910390f35b3480156101df57600080fd5b5061021e600480360381019080803573ffffffffffffffffffffffffffffffffffffffff169060200190929190803590602001909291905050506109c8565b604051808215151515815260200191505060405180910390f35b34801561024457600080fd5b506102f2600480360381019080803590602001908201803590602001908080601f0160208091040260200160405190810160405280939291908181526020018383808284378201915050505050509192919290803590602001908201803590602001908080601f0160208091040260200160405190810160405280939291908181526020018383808284378201915050505050509192919290803560ff169060200190929190505050610ad6565b005b34801561030057600080fd5b50610309610c57565b6040518082815260200191505060405180910390f35b34801561032b57600080fd5b5061034c600480360381019080803515159060200190929190505050610c61565b005b34801561035a57600080fd5b506103b9600480360381019080803573ffffffffffffffffffffffffffffffffffffffff169060200190929190803573ffffffffffffffffffffffffffffffffffffffff16906020019092919080359060200190929190505050610ccc565b604051808215151515815260200191505060405180910390f35b3480156103df57600080fd5b50610400600480360381019080803515159060200190929190505050611025565b005b34801561040e57600080fd5b50610417611090565b604051808260ff1660ff16815260200191505060405180910390f35b34801561043f57600080fd5b5061047e600480360381019080803573ffffffffffffffffffffffffffffffffffffffff169060200190929190803590602001909291905050506110a7565b604051808215151515815260200191505060405180910390f35b3480156104a457600080fd5b506104ad6112bf565b604051808215151515815260200191505060405180910390f35b3480156104d357600080fd5b50610508600480360381019080803573ffffffffffffffffffffffffffffffffffffffff1690602001909291905050506112d2565b6040518082815260200191505060405180910390f35b34801561052a57600080fd5b5061053361132f565b005b34801561054157600080fd5b5061056a60048036038101908080359060200190929190803590602001909291905050506113eb565b6040518082815260200191505060405180910390f35b34801561058c57600080fd5b506105956115b4565b604051808215151515815260200191505060405180910390f35b3480156105bb57600080fd5b506105c46115c7565b604051808273ffffffffffffffffffffffffffffffffffffffff1673ffffffffffffffffffffffffffffffffffffffff16815260200191505060405180910390f35b34801561061257600080fd5b5061061b6115f1565b604051808215151515815260200191505060405180910390f35b34801561064157600080fd5b5061064a611649565b6040518080602001828103825283818151815260200191508051906020019080838360005b8381101561068a57808201518184015260208101905061066f565b50505050905090810190601f1680156106b75780820380516001836020036101000a031916815260200191505b509250505060405180910390f35b3480156106d157600080fd5b50610706600480360381019080803573ffffffffffffffffffffffffffffffffffffffff1690602001909291905050506116eb565b005b34801561071457600080fd5b50610753600480360381019080803573ffffffffffffffffffffffffffffffffffffffff169060200190929190803590602001909291905050506117a5565b604051808215151515815260200191505060405180910390f35b34801561077957600080fd5b506107b8600480360381019080803573ffffffffffffffffffffffffffffffffffffffff16906020019092919080359060200190929190505050611a53565b604051808215151515815260200191505060405180910390f35b3480156107de57600080fd5b506107e7611c9c565b604051808273ffffffffffffffffffffffffffffffffffffffff1673ffffffffffffffffffffffffffffffffffffffff16815260200191505060405180910390f35b34801561083557600080fd5b5061086a600480360381019080803573ffffffffffffffffffffffffffffffffffffffff169060200190929190505050611cc2565b005b34801561087857600080fd5b506108cd600480360381019080803573ffffffffffffffffffffffffffffffffffffffff169060200190929190803573ffffffffffffffffffffffffffffffffffffffff169060200190929190505050611fb8565b6040518082815260200191505060405180910390f35b3480156108ef57600080fd5b50610924600480360381019080803573ffffffffffffffffffffffffffffffffffffffff16906020019092919050505061203f565b005b606060338054600181600116156101000203166002900480601f0160208091040260200160405190810160405280929190818152602001828054600181600116156101000203166002900480156109be5780601f10610993576101008083540402835291602001916109be565b820191906000526020600020905b8154815290600101906020018083116109a157829003601f168201915b5050505050905090565b6000609b60159054906101000a900460ff161515156109e657600080fd5b81609f60003373ffffffffffffffffffffffffffffffffffffffff1673ffffffffffffffffffffffffffffffffffffffff16815260200190815260200160002060008573ffffffffffffffffffffffffffffffffffffffff1673ffffffffffffffffffffffffffffffffffffffff168152602001908152602001600020819055508273ffffffffffffffffffffffffffffffffffffffff163373ffffffffffffffffffffffffffffffffffffffff167f8c5be1e5ebec7d5bd14f71427d1e84f3dd0314c0f7b2291e5b200ac8c7c3b925846040518082815260200191505060405180910390a36001905092915050565b60008060019054906101000a900460ff1680610af65750610af561205e565b5b80610b0d57506000809054906101000a900460ff16155b1515610ba7576040517f08c379a000000000000000000000000000000000000000000000000000000000815260040180806020018281038252602e8152602001807f436f6e747261637420696e7374616e63652068617320616c726561647920626581526020017f656e20696e697469616c697a656400000000000000000000000000000000000081525060400191505060405180910390fd5b600060019054906101000a900460ff1690506001600060016101000a81548160ff02191690831515021790555060016000806101000a81548160ff0219169083151502179055508360339080519060200190610c049291906123bf565b508260349080519060200190610c1b9291906123bf565b5081603560006101000a81548160ff021916908360ff16021790555080600060016101000a81548160ff02191690831515021790555050505050565b6000609c54905090565b610c696115f1565b1515610c7457600080fd5b80609b60146101000a81548160ff0219169083151502179055507fb36927c68760751ec71d827eb30be804be612d87c7c6b6a1f255258c6a1bea6681604051808215151515815260200191505060405180910390a150565b60008083600073ffffffffffffffffffffffffffffffffffffffff168173ffffffffffffffffffffffffffffffffffffffff1614151515610d0c57600080fd5b3073ffffffffffffffffffffffffffffffffffffffff168173ffffffffffffffffffffffffffffffffffffffff1614151515610d4757600080fd5b609b60159054906101000a900460ff16151515610d6357600080fd5b610df284609f60008973ffffffffffffffffffffffffffffffffffffffff1673ffffffffffffffffffffffffffffffffffffffff16815260200190815260200160002060003373ffffffffffffffffffffffffffffffffffffffff1673ffffffffffffffffffffffffffffffffffffffff1681526020019081526020016000205461206f90919063ffffffff16565b609f60008873ffffffffffffffffffffffffffffffffffffffff1673ffffffffffffffffffffffffffffffffffffffff16815260200190815260200160002060003373ffffffffffffffffffffffffffffffffffffffff1673ffffffffffffffffffffffffffffffffffffffff16815260200190815260200160002081905550610e87609d548561209090919063ffffffff16565b9150610edb82609e60008973ffffffffffffffffffffffffffffffffffffffff1673ffffffffffffffffffffffffffffffffffffffff1681526020019081526020016000205461206f90919063ffffffff16565b609e60008873ffffffffffffffffffffffffffffffffffffffff1673ffffffffffffffffffffffffffffffffffffffff16815260200190815260200160002081905550610f7082609e60008873ffffffffffffffffffffffffffffffffffffffff1673ffffffffffffffffffffffffffffffffffffffff168152602001908152602001600020546120ce90919063ffffffff16565b609e60008773ffffffffffffffffffffffffffffffffffffffff1673ffffffffffffffffffffffffffffffffffffffff168152602001908152602001600020819055508473ffffffffffffffffffffffffffffffffffffffff168673ffffffffffffffffffffffffffffffffffffffff167fddf252ad1be2c89b69c2b068fc378daa952ba7f163c4a11628f55a4df523b3ef866040518082815260200191505060405180910390a36001925050509392505050565b61102d6115f1565b151561103857600080fd5b80609b60156101000a81548160ff0219169083151502179055507f398c4e18c8ef7f11eb3921fe2d01d3b469329a5f01febf5ba17f2462f27f439c81604051808215151515815260200191505060405180910390a150565b6000603560009054906101000a900460ff16905090565b6000609b60159054906101000a900460ff161515156110c557600080fd5b61115482609f60003373ffffffffffffffffffffffffffffffffffffffff1673ffffffffffffffffffffffffffffffffffffffff16815260200190815260200160002060008673ffffffffffffffffffffffffffffffffffffffff1673ffffffffffffffffffffffffffffffffffffffff168152602001908152602001600020546120ce90919063ffffffff16565b609f60003373ffffffffffffffffffffffffffffffffffffffff1673ffffffffffffffffffffffffffffffffffffffff16815260200190815260200160002060008573ffffffffffffffffffffffffffffffffffffffff1673ffffffffffffffffffffffffffffffffffffffff168152602001908152602001600020819055508273ffffffffffffffffffffffffffffffffffffffff163373ffffffffffffffffffffffffffffffffffffffff167f8c5be1e5ebec7d5bd14f71427d1e84f3dd0314c0f7b2291e5b200ac8c7c3b925609f60003373ffffffffffffffffffffffffffffffffffffffff1673ffffffffffffffffffffffffffffffffffffffff16815260200190815260200160002060008773ffffffffffffffffffffffffffffffffffffffff1673ffffffffffffffffffffffffffffffffffffffff168152602001908152602001600020546040518082815260200191505060405180910390a36001905092915050565b609b60149054906101000a900460ff1681565b6000611328609d54609e60008573ffffffffffffffffffffffffffffffffffffffff1673ffffffffffffffffffffffffffffffffffffffff168152602001908152602001600020546120ef90919063ffffffff16565b9050919050565b6113376115f1565b151561134257600080fd5b606860009054906101000a900473ffffffffffffffffffffffffffffffffffffffff1673ffffffffffffffffffffffffffffffffffffffff167ff8df31144d9c2f0f6b59d69b8b98abd5459d07f2742c4df920b25aae33c6482060405160405180910390a26000606860006101000a81548173ffffffffffffffffffffffffffffffffffffffff021916908373ffffffffffffffffffffffffffffffffffffffff160217905550565b6000609b60009054906101000a900473ffffffffffffffffffffffffffffffffffffffff1673ffffffffffffffffffffffffffffffffffffffff163373ffffffffffffffffffffffffffffffffffffffff1614151561144957600080fd5b609b60149054906101000a900460ff1615151561146557600080fd5b60008214156114b257827f72725a3b1e5bd622d6bcd1339bb31279c351abe8f541ac7fd320f24e1b1641f2609c546040518082815260200191505060405180910390a2609c5490506115ae565b60008212156114e3576114d86114c783612119565b609c5461206f90919063ffffffff16565b609c819055506114ff565b6114f882609c546120ce90919063ffffffff16565b609c819055505b6000196fffffffffffffffffffffffffffffffff16609c541115611539576000196fffffffffffffffffffffffffffffffff16609c819055505b611568609c546012600a0a629896800260001981151561155557fe5b06600019036120ef90919063ffffffff16565b609d81905550827f72725a3b1e5bd622d6bcd1339bb31279c351abe8f541ac7fd320f24e1b1641f2609c546040518082815260200191505060405180910390a2609c5490505b92915050565b609b60159054906101000a900460ff1681565b6000606860009054906101000a900473ffffffffffffffffffffffffffffffffffffffff16905090565b6000606860009054906101000a900473ffffffffffffffffffffffffffffffffffffffff1673ffffffffffffffffffffffffffffffffffffffff163373ffffffffffffffffffffffffffffffffffffffff1614905090565b606060348054600181600116156101000203166002900480601f0160208091040260200160405190810160405280929190818152602001828054600181600116156101000203166002900480156116e15780601f106116b6576101008083540402835291602001916116e1565b820191906000526020600020905b8154815290600101906020018083116116c457829003601f168201915b5050505050905090565b6116f36115f1565b15156116fe57600080fd5b80609b60006101000a81548173ffffffffffffffffffffffffffffffffffffffff021916908373ffffffffffffffffffffffffffffffffffffffff1602179055507f8129ca6113135e03d2d0946630311e90ccab45260c6cb9bf980d4d5796f0fa9c81604051808273ffffffffffffffffffffffffffffffffffffffff1673ffffffffffffffffffffffffffffffffffffffff16815260200191505060405180910390a150565b600080609b60159054906101000a900460ff161515156117c457600080fd5b609f60003373ffffffffffffffffffffffffffffffffffffffff1673ffffffffffffffffffffffffffffffffffffffff16815260200190815260200160002060008573ffffffffffffffffffffffffffffffffffffffff1673ffffffffffffffffffffffffffffffffffffffff16815260200190815260200160002054905080831015156118d3576000609f60003373ffffffffffffffffffffffffffffffffffffffff1673ffffffffffffffffffffffffffffffffffffffff16815260200190815260200160002060008673ffffffffffffffffffffffffffffffffffffffff1673ffffffffffffffffffffffffffffffffffffffff16815260200190815260200160002081905550611967565b6118e6838261206f90919063ffffffff16565b609f60003373ffffffffffffffffffffffffffffffffffffffff1673ffffffffffffffffffffffffffffffffffffffff16815260200190815260200160002060008673ffffffffffffffffffffffffffffffffffffffff1673ffffffffffffffffffffffffffffffffffffffff168152602001908152602001600020819055505b8373ffffffffffffffffffffffffffffffffffffffff163373ffffffffffffffffffffffffffffffffffffffff167f8c5be1e5ebec7d5bd14f71427d1e84f3dd0314c0f7b2291e5b200ac8c7c3b925609f60003373ffffffffffffffffffffffffffffffffffffffff1673ffffffffffffffffffffffffffffffffffffffff16815260200190815260200160002060008873ffffffffffffffffffffffffffffffffffffffff1673ffffffffffffffffffffffffffffffffffffffff168152602001908152602001600020546040518082815260200191505060405180910390a3600191505092915050565b60008083600073ffffffffffffffffffffffffffffffffffffffff168173ffffffffffffffffffffffffffffffffffffffff1614151515611a9357600080fd5b3073ffffffffffffffffffffffffffffffffffffffff168173ffffffffffffffffffffffffffffffffffffffff1614151515611ace57600080fd5b609b60159054906101000a900460ff16151515611aea57600080fd5b611aff609d548561209090919063ffffffff16565b9150611b5382609e60003373ffffffffffffffffffffffffffffffffffffffff1673ffffffffffffffffffffffffffffffffffffffff1681526020019081526020016000205461206f90919063ffffffff16565b609e60003373ffffffffffffffffffffffffffffffffffffffff1673ffffffffffffffffffffffffffffffffffffffff16815260200190815260200160002081905550611be882609e60008873ffffffffffffffffffffffffffffffffffffffff1673ffffffffffffffffffffffffffffffffffffffff168152602001908152602001600020546120ce90919063ffffffff16565b609e60008773ffffffffffffffffffffffffffffffffffffffff1673ffffffffffffffffffffffffffffffffffffffff168152602001908152602001600020819055508473ffffffffffffffffffffffffffffffffffffffff163373ffffffffffffffffffffffffffffffffffffffff167fddf252ad1be2c89b69c2b068fc378daa952ba7f163c4a11628f55a4df523b3ef866040518082815260200191505060405180910390a360019250505092915050565b609b60009054906101000a900473ffffffffffffffffffffffffffffffffffffffff1681565b60008060019054906101000a900460ff1680611ce25750611ce161205e565b5b80611cf957506000809054906101000a900460ff16155b1515611d93576040517f08c379a000000000000000000000000000000000000000000000000000000000815260040180806020018281038252602e8152602001807f436f6e747261637420696e7374616e63652068617320616c726561647920626581526020017f656e20696e697469616c697a656400000000000000000000000000000000000081525060400191505060405180910390fd5b600060019054906101000a900460ff1690506001600060016101000a81548160ff02191690831515021790555060016000806101000a81548160ff021916908315150217905550611e506040805190810160405280600381526020017f4f6d7300000000000000000000000000000000000000000000000000000000008152506040805190810160405280600381526020017f4f4d5300000000000000000000000000000000000000000000000000000000008152506012610ad6565b611e598261214c565b6000609b60146101000a81548160ff0219169083151502179055506000609b60156101000a81548160ff0219169083151502179055506012600a0a6298968002609c819055506012600a0a6298968002600019811515611eb557fe5b0660001903609e60008473ffffffffffffffffffffffffffffffffffffffff1673ffffffffffffffffffffffffffffffffffffffff16815260200190815260200160002081905550611f2c609c546012600a0a6298968002600019811515611f1957fe5b06600019036120ef90919063ffffffff16565b609d819055508173ffffffffffffffffffffffffffffffffffffffff16600073ffffffffffffffffffffffffffffffffffffffff167fddf252ad1be2c89b69c2b068fc378daa952ba7f163c4a11628f55a4df523b3ef609c546040518082815260200191505060405180910390a380600060016101000a81548160ff0219169083151502179055505050565b6000609f60008473ffffffffffffffffffffffffffffffffffffffff1673ffffffffffffffffffffffffffffffffffffffff16815260200190815260200160002060008373ffffffffffffffffffffffffffffffffffffffff1673ffffffffffffffffffffffffffffffffffffffff16815260200190815260200160002054905092915050565b6120476115f1565b151561205257600080fd5b61205b816122c3565b50565b600080303b90506000811491505090565b60008083831115151561208157600080fd5b82840390508091505092915050565b60008060008414156120a557600091506120c7565b82840290508284828115156120b657fe5b041415156120c357600080fd5b8091505b5092915050565b60008082840190508381101515156120e557600080fd5b8091505092915050565b60008060008311151561210157600080fd5b828481151561210c57fe5b0490508091505092915050565b600060ff60019060020a02821415151561213257600080fd5b600082126121405781612145565b816000035b9050919050565b60008060019054906101000a900460ff168061216c575061216b61205e565b5b8061218357506000809054906101000a900460ff16155b151561221d576040517f08c379a000000000000000000000000000000000000000000000000000000000815260040180806020018281038252602e8152602001807f436f6e747261637420696e7374616e63652068617320616c726561647920626581526020017f656e20696e697469616c697a656400000000000000000000000000000000000081525060400191505060405180910390fd5b600060019054906101000a900460ff1690506001600060016101000a81548160ff02191690831515021790555060016000806101000a81548160ff02191690831515021790555081606860006101000a81548173ffffffffffffffffffffffffffffffffffffffff021916908373ffffffffffffffffffffffffffffffffffffffff16021790555080600060016101000a81548160ff0219169083151502179055505050565b600073ffffffffffffffffffffffffffffffffffffffff168173ffffffffffffffffffffffffffffffffffffffff16141515156122ff57600080fd5b8073ffffffffffffffffffffffffffffffffffffffff16606860009054906101000a900473ffffffffffffffffffffffffffffffffffffffff1673ffffffffffffffffffffffffffffffffffffffff167f8be0079c531659141344cd1fd0a4f28419497f9722a3daafe3b4186f6b6457e060405160405180910390a380606860006101000a81548173ffffffffffffffffffffffffffffffffffffffff021916908373ffffffffffffffffffffffffffffffffffffffff16021790555050565b828054600181600116156101000203166002900490600052602060002090601f016020900481019282601f1061240057805160ff191683800117855561242e565b8280016001018555821561242e579182015b8281111561242d578251825591602001919060010190612412565b5b50905061243b919061243f565b5090565b61246191905b8082111561245d576000816000905550600101612445565b5090565b905600a165627a7a723058206e68f9a5b44afd41b81ae59111d1b03ee4ca6f195342e1c407e06fff5dd496f30029",
  "source": "    /**\r\n     *Submitted for verification at Etherscan.io on 2020-10-19\r\n    */\r\n    \r\n    pragma solidity 0.4.24;\r\n\r\n    import \"./library/SafeMath.sol\";\r\n    import \"./library/SafeMathInt.sol\";\r\n    import \"./interface/IERC20.sol\";\r\n    import \"./common/Initializable.sol\";\r\n    import \"./common/Ownable.sol\";\r\n    import \"./common/ERC20Detailed.sol\";\r\n    \r\n    /**\r\n     * @title Oms ERC20 token\r\n     * @dev This is part of an implementation of the Oms Ideal Money protocol.\r\n     *      Oms is a normal ERC20 token, but its supply can be adjusted by splitting and\r\n     *      combining tokens proportionally across all wallets.\r\n     *\r\n     *      Oms balances are internally represented with a hidden denomination, 'gons'.\r\n     *      We support splitting the currency in expansion and combining the currency on contraction by\r\n     *      changing the exchange rate between the hidden 'gons' and the public 'omss'.\r\n     */\r\n    contract Oms is ERC20Detailed, Ownable {\r\n        // PLEASE READ BEFORE CHANGING ANY ACCOUNTING OR MATH\r\n        // Anytime there is division, there is a risk of numerical instability from rounding errors. In\r\n        // order to minimize this risk, we adhere to the following guidelines:\r\n        // 1) The conversion rate adopted is the number of gons that equals 1 oms.\r\n        //    The inverse rate must not be used--TOTAL_GONS is always the numerator and _totalSupply is\r\n        //    always the denominator. (i.e. If you want to convert gons to omss instead of\r\n        //    multiplying by the inverse rate, you should divide by the normal rate)\r\n        // 2) Gon balances converted into Omss are always rounded down (truncated).\r\n        //\r\n        // We make the following guarantees:\r\n        // - If address 'A' transfers x Omss to address 'B'. A's resulting external balance will\r\n        //   be decreased by precisely x Omss, and B's external balance will be precisely\r\n        //   increased by x Omss.\r\n        //\r\n        // We do not guarantee that the sum of all balances equals the result of calling totalSupply().\r\n        // This is because, for any conversion function 'f()' that has non-zero rounding error,\r\n        // f(x0) + f(x1) + ... + f(xn) is not always equal to f(x0 + x1 + ... xn).\r\n        using SafeMath for uint256;\r\n        using SafeMathInt for int256;\r\n    \r\n        event LogRebase(uint256 indexed epoch, uint256 totalSupply);\r\n        event LogRebasePaused(bool paused);\r\n        event LogTokenPaused(bool paused);\r\n        event LogOmsPolicyUpdated(address omsPolicy);\r\n    \r\n        // Used for authentication\r\n        address public omsPolicy;\r\n    \r\n        modifier onlyOmsPolicy() {\r\n            require(msg.sender == omsPolicy);\r\n            _;\r\n        }\r\n    \r\n        // Precautionary emergency controls.\r\n        bool public rebasePaused;\r\n        bool public tokenPaused;\r\n    \r\n        modifier whenRebaseNotPaused() {\r\n            require(!rebasePaused);\r\n            _;\r\n        }\r\n    \r\n        modifier whenTokenNotPaused() {\r\n            require(!tokenPaused);\r\n            _;\r\n        }\r\n    \r\n        modifier validRecipient(address to) {\r\n            require(to != address(0x0));\r\n            require(to != address(this));\r\n            _;\r\n        }\r\n    \r\n        uint256 private constant DECIMALS = 18;\r\n        uint256 private constant MAX_UINT256 = ~uint256(0);\r\n        uint256 private constant INITIAL_OMS_SUPPLY = 10000000 * 10**DECIMALS;\r\n    \r\n        // TOTAL_GONS is a multiple of INITIAL_OMS_SUPPLY so that _gonsPerFragment is an integer.\r\n        // Use the highest value that fits in a uint256 for max granularity.\r\n        uint256 private constant TOTAL_GONS = MAX_UINT256 -\r\n            (MAX_UINT256 % INITIAL_OMS_SUPPLY);\r\n    \r\n        // MAX_SUPPLY = maximum integer < (sqrt(4*TOTAL_GONS + 1) - 1) / 2\r\n        uint256 private constant MAX_SUPPLY = ~uint128(0); // (2^128) - 1\r\n    \r\n        uint256 private _totalSupply;\r\n        uint256 private _gonsPerFragment;\r\n        mapping(address => uint256) private _gonBalances;\r\n    \r\n        // This is denominated in Omss, because the gons-omss conversion might change before\r\n        // it's fully paid.\r\n        mapping(address => mapping(address => uint256)) private _allowedOmss;\r\n    \r\n        /**\r\n         * @param omsPolicy_ The address of the oms policy contract to use for authentication.\r\n         */\r\n        function setOmsPolicy(address omsPolicy_) external onlyOwner {\r\n            omsPolicy = omsPolicy_;\r\n            emit LogOmsPolicyUpdated(omsPolicy_);\r\n        }\r\n    \r\n        /**\r\n         * @dev Pauses or unpauses the execution of rebase operations.\r\n         * @param paused Pauses rebase operations if this is true.\r\n         */\r\n        function setRebasePaused(bool paused) external onlyOwner {\r\n            rebasePaused = paused;\r\n            emit LogRebasePaused(paused);\r\n        }\r\n    \r\n        /**\r\n         * @dev Pauses or unpauses execution of ERC-20 transactions.\r\n         * @param paused Pauses ERC-20 transactions if this is true.\r\n         */\r\n        function setTokenPaused(bool paused) external onlyOwner {\r\n            tokenPaused = paused;\r\n            emit LogTokenPaused(paused);\r\n        }\r\n    \r\n        /**\r\n         * @dev Notifies Omss contract about a new rebase cycle.\r\n         * @param supplyDelta The number of new oms tokens to add into circulation via expansion.\r\n         * @return The total number of omss after the supply adjustment.\r\n         */\r\n        function rebase(uint256 epoch, int256 supplyDelta)\r\n            external\r\n            onlyOmsPolicy\r\n            whenRebaseNotPaused\r\n            returns (uint256)\r\n        {\r\n            if (supplyDelta == 0) {\r\n                emit LogRebase(epoch, _totalSupply);\r\n                return _totalSupply;\r\n            }\r\n    \r\n            if (supplyDelta < 0) {\r\n                _totalSupply = _totalSupply.sub(uint256(supplyDelta.abs()));\r\n            } else {\r\n                _totalSupply = _totalSupply.add(uint256(supplyDelta));\r\n            }\r\n    \r\n            if (_totalSupply > MAX_SUPPLY) {\r\n                _totalSupply = MAX_SUPPLY;\r\n            }\r\n    \r\n            _gonsPerFragment = TOTAL_GONS.div(_totalSupply);\r\n    \r\n            // From this point forward, _gonsPerFragment is taken as the source of truth.\r\n            // We recalculate a new _totalSupply to be in agreement with the _gonsPerFragment\r\n            // conversion rate.\r\n            // This means our applied supplyDelta can deviate from the requested supplyDelta,\r\n            // but this deviation is guaranteed to be < (_totalSupply^2)/(TOTAL_GONS - _totalSupply).\r\n            //\r\n            // In the case of _totalSupply <= MAX_UINT128 (our current supply cap), this\r\n            // deviation is guaranteed to be < 1, so we can omit this step. If the supply cap is\r\n            // ever increased, it must be re-included.\r\n            // _totalSupply = TOTAL_GONS.div(_gonsPerFragment)\r\n    \r\n            emit LogRebase(epoch, _totalSupply);\r\n            return _totalSupply;\r\n        }\r\n    \r\n        function initialize(address owner_) public initializer {\r\n            ERC20Detailed.initialize(\"Oms\", \"OMS\", uint8(DECIMALS));\r\n            Ownable.initialize(owner_);\r\n    \r\n            rebasePaused = false;\r\n            tokenPaused = false;\r\n    \r\n            _totalSupply = INITIAL_OMS_SUPPLY;\r\n            _gonBalances[owner_] = TOTAL_GONS;\r\n            _gonsPerFragment = TOTAL_GONS.div(_totalSupply);\r\n    \r\n            emit Transfer(address(0x0), owner_, _totalSupply);\r\n        }\r\n    \r\n        /**\r\n         * @return The total number of omss.\r\n         */\r\n        function totalSupply() public view returns (uint256) {\r\n            return _totalSupply;\r\n        }\r\n    \r\n        /**\r\n         * @param who The address to query.\r\n         * @return The balance of the specified address.\r\n         */\r\n        function balanceOf(address who) public view returns (uint256) {\r\n            return _gonBalances[who].div(_gonsPerFragment);\r\n        }\r\n    \r\n        /**\r\n         * @dev Transfer tokens to a specified address.\r\n         * @param to The address to transfer to.\r\n         * @param value The amount to be transferred.\r\n         * @return True on success, false otherwise.\r\n         */\r\n        function transfer(address to, uint256 value)\r\n            public\r\n            validRecipient(to)\r\n            whenTokenNotPaused\r\n            returns (bool)\r\n        {\r\n            uint256 gonValue = value.mul(_gonsPerFragment);\r\n            _gonBalances[msg.sender] = _gonBalances[msg.sender].sub(gonValue);\r\n            _gonBalances[to] = _gonBalances[to].add(gonValue);\r\n            emit Transfer(msg.sender, to, value);\r\n            return true;\r\n        }\r\n    \r\n        /**\r\n         * @dev Function to check the amount of tokens that an owner has allowed to a spender.\r\n         * @param owner_ The address which owns the funds.\r\n         * @param spender The address which will spend the funds.\r\n         * @return The number of tokens still available for the spender.\r\n         */\r\n        function allowance(address owner_, address spender)\r\n            public\r\n            view\r\n            returns (uint256)\r\n        {\r\n            return _allowedOmss[owner_][spender];\r\n        }\r\n    \r\n        /**\r\n         * @dev Transfer tokens from one address to another.\r\n         * @param from The address you want to send tokens from.\r\n         * @param to The address you want to transfer to.\r\n         * @param value The amount of tokens to be transferred.\r\n         */\r\n        function transferFrom(\r\n            address from,\r\n            address to,\r\n            uint256 value\r\n        ) public validRecipient(to) whenTokenNotPaused returns (bool) {\r\n            _allowedOmss[from][msg.sender] = _allowedOmss[from][msg\r\n                .sender]\r\n                .sub(value);\r\n    \r\n            uint256 gonValue = value.mul(_gonsPerFragment);\r\n            _gonBalances[from] = _gonBalances[from].sub(gonValue);\r\n            _gonBalances[to] = _gonBalances[to].add(gonValue);\r\n            emit Transfer(from, to, value);\r\n    \r\n            return true;\r\n        }\r\n    \r\n        /**\r\n         * @dev Approve the passed address to spend the specified amount of tokens on behalf of\r\n         * msg.sender. This method is included for ERC20 compatibility.\r\n         * increaseAllowance and decreaseAllowance should be used instead.\r\n         * Changing an allowance with this method brings the risk that someone may transfer both\r\n         * the old and the new allowance - if they are both greater than zero - if a transfer\r\n         * transaction is mined before the later approve() call is mined.\r\n         *\r\n         * @param spender The address which will spend the funds.\r\n         * @param value The amount of tokens to be spent.\r\n         */\r\n        function approve(address spender, uint256 value)\r\n            public\r\n            whenTokenNotPaused\r\n            returns (bool)\r\n        {\r\n            _allowedOmss[msg.sender][spender] = value;\r\n            emit Approval(msg.sender, spender, value);\r\n            return true;\r\n        }\r\n    \r\n        /**\r\n         * @dev Increase the amount of tokens that an owner has allowed to a spender.\r\n         * This method should be used instead of approve() to avoid the double approval vulnerability\r\n         * described above.\r\n         * @param spender The address which will spend the funds.\r\n         * @param addedValue The amount of tokens to increase the allowance by.\r\n         */\r\n        function increaseAllowance(address spender, uint256 addedValue)\r\n            public\r\n            whenTokenNotPaused\r\n            returns (bool)\r\n        {\r\n            _allowedOmss[msg.sender][spender] = _allowedOmss[msg\r\n                .sender][spender]\r\n                .add(addedValue);\r\n            emit Approval(\r\n                msg.sender,\r\n                spender,\r\n                _allowedOmss[msg.sender][spender]\r\n            );\r\n            return true;\r\n        }\r\n    \r\n        /**\r\n         * @dev Decrease the amount of tokens that an owner has allowed to a spender.\r\n         *\r\n         * @param spender The address which will spend the funds.\r\n         * @param subtractedValue The amount of tokens to decrease the allowance by.\r\n         */\r\n        function decreaseAllowance(address spender, uint256 subtractedValue)\r\n            public\r\n            whenTokenNotPaused\r\n            returns (bool)\r\n        {\r\n            uint256 oldValue = _allowedOmss[msg.sender][spender];\r\n            if (subtractedValue >= oldValue) {\r\n                _allowedOmss[msg.sender][spender] = 0;\r\n            } else {\r\n                _allowedOmss[msg.sender][spender] = oldValue.sub(\r\n                    subtractedValue\r\n                );\r\n            }\r\n            emit Approval(\r\n                msg.sender,\r\n                spender,\r\n                _allowedOmss[msg.sender][spender]\r\n            );\r\n            return true;\r\n        }\r\n    }",
  "sourcePath": "F:\\Projects\\Hitesh\\Oms\\contracts\\v4\\Oms.sol",
  "compiler": {
    "name": "solc",
    "version": "0.4.24+commit.e67f0147.Emscripten.clang"
  },
  "schemaVersion": "3.2.2-next.0",
  "updatedAt": "2021-03-03T19:17:44.362Z",
  "devdoc": {
    "methods": {
      "allowance(address,address)": {
        "details": "Function to check the amount of tokens that an owner has allowed to a spender.\r",
        "params": {
          "owner_": "The address which owns the funds.\r",
          "spender": "The address which will spend the funds.\r"
        },
        "return": "The number of tokens still available for the spender.\r"
      },
      "approve(address,uint256)": {
        "details": "Approve the passed address to spend the specified amount of tokens on behalf of\r msg.sender. This method is included for ERC20 compatibility.\r increaseAllowance and decreaseAllowance should be used instead.\r Changing an allowance with this method brings the risk that someone may transfer both\r the old and the new allowance - if they are both greater than zero - if a transfer\r transaction is mined before the later approve() call is mined.\r ",
        "params": {
          "spender": "The address which will spend the funds.\r",
          "value": "The amount of tokens to be spent.\r"
        }
      },
      "balanceOf(address)": {
        "params": {
          "who": "The address to query.\r"
        },
        "return": "The balance of the specified address.\r"
      },
      "decimals()": {
        "return": "the number of decimals of the token.\r"
      },
      "decreaseAllowance(address,uint256)": {
        "details": "Decrease the amount of tokens that an owner has allowed to a spender.\r ",
        "params": {
          "spender": "The address which will spend the funds.\r",
          "subtractedValue": "The amount of tokens to decrease the allowance by.\r"
        }
      },
      "increaseAllowance(address,uint256)": {
        "details": "Increase the amount of tokens that an owner has allowed to a spender.\r This method should be used instead of approve() to avoid the double approval vulnerability\r described above.\r",
        "params": {
          "addedValue": "The amount of tokens to increase the allowance by.\r",
          "spender": "The address which will spend the funds.\r"
        }
      },
      "isOwner()": {
        "return": "true if `msg.sender` is the owner of the contract.\r"
      },
      "name()": {
        "return": "the name of the token.\r"
      },
      "owner()": {
        "return": "the address of the owner.\r"
      },
      "rebase(uint256,int256)": {
        "details": "Notifies Omss contract about a new rebase cycle.\r",
        "params": {
          "supplyDelta": "The number of new oms tokens to add into circulation via expansion.\r"
        },
        "return": "The total number of omss after the supply adjustment.\r"
      },
      "renounceOwnership()": {
        "details": "Allows the current owner to relinquish control of the contract.\r"
      },
      "setOmsPolicy(address)": {
        "params": {
          "omsPolicy_": "The address of the oms policy contract to use for authentication.\r"
        }
      },
      "setRebasePaused(bool)": {
        "details": "Pauses or unpauses the execution of rebase operations.\r",
        "params": {
          "paused": "Pauses rebase operations if this is true.\r"
        }
      },
      "setTokenPaused(bool)": {
        "details": "Pauses or unpauses execution of ERC-20 transactions.\r",
        "params": {
          "paused": "Pauses ERC-20 transactions if this is true.\r"
        }
      },
      "symbol()": {
        "return": "the symbol of the token.\r"
      },
      "totalSupply()": {
        "return": "The total number of omss.\r"
      },
      "transfer(address,uint256)": {
        "details": "Transfer tokens to a specified address.\r",
        "params": {
          "to": "The address to transfer to.\r",
          "value": "The amount to be transferred.\r"
        },
        "return": "True on success, false otherwise.\r"
      },
      "transferFrom(address,address,uint256)": {
        "details": "Transfer tokens from one address to another.\r",
        "params": {
          "from": "The address you want to send tokens from.\r",
          "to": "The address you want to transfer to.\r",
          "value": "The amount of tokens to be transferred.\r"
        }
      },
      "transferOwnership(address)": {
        "details": "Allows the current owner to transfer control of the contract to a newOwner.\r",
        "params": {
          "newOwner": "The address to transfer ownership to.\r"
        }
      }
    },
    "title": "Oms ERC20 token\r"
  },
  "userdoc": {
    "methods": {
      "renounceOwnership()": {
        "notice": "Renouncing to ownership will leave the contract without an owner.\r It will not be possible to call the functions with the `onlyOwner`\r modifier anymore.\r"
      }
    }
  }
}