{
  "contractName": "OmsPolicy",
  "abi": [
    {
      "constant": true,
      "inputs": [],
      "name": "minRebaseTimeIntervalSec",
      "outputs": [
        {
          "name": "",
          "type": "uint256"
        }
      ],
      "payable": false,
      "stateMutability": "view",
      "type": "function"
    },
    {
      "constant": true,
      "inputs": [],
      "name": "lastRebaseTimestampSec",
      "outputs": [
        {
          "name": "",
          "type": "uint256"
        }
      ],
      "payable": false,
      "stateMutability": "view",
      "type": "function"
    },
    {
      "constant": true,
      "inputs": [],
      "name": "targetAsset",
      "outputs": [
        {
          "name": "",
          "type": "address"
        }
      ],
      "payable": false,
      "stateMutability": "view",
      "type": "function"
    },
    {
      "constant": true,
      "inputs": [],
      "name": "marketOracle",
      "outputs": [
        {
          "name": "",
          "type": "address"
        }
      ],
      "payable": false,
      "stateMutability": "view",
      "type": "function"
    },
    {
      "constant": true,
      "inputs": [],
      "name": "rebaseLag",
      "outputs": [
        {
          "name": "",
          "type": "uint256"
        }
      ],
      "payable": false,
      "stateMutability": "view",
      "type": "function"
    },
    {
      "constant": true,
      "inputs": [],
      "name": "rebaseWindowOffsetSec",
      "outputs": [
        {
          "name": "",
          "type": "uint256"
        }
      ],
      "payable": false,
      "stateMutability": "view",
      "type": "function"
    },
    {
      "constant": false,
      "inputs": [],
      "name": "renounceOwnership",
      "outputs": [],
      "payable": false,
      "stateMutability": "nonpayable",
      "type": "function"
    },
    {
      "constant": true,
      "inputs": [],
      "name": "owner",
      "outputs": [
        {
          "name": "",
          "type": "address"
        }
      ],
      "payable": false,
      "stateMutability": "view",
      "type": "function"
    },
    {
      "constant": true,
      "inputs": [],
      "name": "isOwner",
      "outputs": [
        {
          "name": "",
          "type": "bool"
        }
      ],
      "payable": false,
      "stateMutability": "view",
      "type": "function"
    },
    {
      "constant": true,
      "inputs": [],
      "name": "epoch",
      "outputs": [
        {
          "name": "",
          "type": "uint256"
        }
      ],
      "payable": false,
      "stateMutability": "view",
      "type": "function"
    },
    {
      "constant": true,
      "inputs": [],
      "name": "rebaseWindowLengthSec",
      "outputs": [
        {
          "name": "",
          "type": "uint256"
        }
      ],
      "payable": false,
      "stateMutability": "view",
      "type": "function"
    },
    {
      "constant": true,
      "inputs": [],
      "name": "orchestrator",
      "outputs": [
        {
          "name": "",
          "type": "address"
        }
      ],
      "payable": false,
      "stateMutability": "view",
      "type": "function"
    },
    {
      "constant": true,
      "inputs": [],
      "name": "uFrags",
      "outputs": [
        {
          "name": "",
          "type": "address"
        }
      ],
      "payable": false,
      "stateMutability": "view",
      "type": "function"
    },
    {
      "constant": true,
      "inputs": [],
      "name": "deviationThreshold",
      "outputs": [
        {
          "name": "",
          "type": "uint256"
        }
      ],
      "payable": false,
      "stateMutability": "view",
      "type": "function"
    },
    {
      "constant": false,
      "inputs": [
        {
          "name": "newOwner",
          "type": "address"
        }
      ],
      "name": "transferOwnership",
      "outputs": [],
      "payable": false,
      "stateMutability": "nonpayable",
      "type": "function"
    },
    {
      "anonymous": false,
      "inputs": [
        {
          "indexed": true,
          "name": "epoch",
          "type": "uint256"
        },
        {
          "indexed": false,
          "name": "exchangeRate",
          "type": "uint256"
        },
        {
          "indexed": false,
          "name": "requestedSupplyAdjustment",
          "type": "int256"
        },
        {
          "indexed": false,
          "name": "timestampSec",
          "type": "uint256"
        }
      ],
      "name": "LogRebase",
      "type": "event"
    },
    {
      "anonymous": false,
      "inputs": [
        {
          "indexed": true,
          "name": "previousOwner",
          "type": "address"
        }
      ],
      "name": "OwnershipRenounced",
      "type": "event"
    },
    {
      "anonymous": false,
      "inputs": [
        {
          "indexed": true,
          "name": "previousOwner",
          "type": "address"
        },
        {
          "indexed": true,
          "name": "newOwner",
          "type": "address"
        }
      ],
      "name": "OwnershipTransferred",
      "type": "event"
    },
    {
      "constant": false,
      "inputs": [],
      "name": "rebase",
      "outputs": [],
      "payable": false,
      "stateMutability": "nonpayable",
      "type": "function"
    },
    {
      "constant": false,
      "inputs": [
        {
          "name": "marketOracle_",
          "type": "address"
        }
      ],
      "name": "setMarketOracle",
      "outputs": [],
      "payable": false,
      "stateMutability": "nonpayable",
      "type": "function"
    },
    {
      "constant": false,
      "inputs": [
        {
          "name": "orchestrator_",
          "type": "address"
        }
      ],
      "name": "setOrchestrator",
      "outputs": [],
      "payable": false,
      "stateMutability": "nonpayable",
      "type": "function"
    },
    {
      "constant": false,
      "inputs": [
        {
          "name": "deviationThreshold_",
          "type": "uint256"
        }
      ],
      "name": "setDeviationThreshold",
      "outputs": [],
      "payable": false,
      "stateMutability": "nonpayable",
      "type": "function"
    },
    {
      "constant": false,
      "inputs": [
        {
          "name": "rebaseLag_",
          "type": "uint256"
        }
      ],
      "name": "setRebaseLag",
      "outputs": [],
      "payable": false,
      "stateMutability": "nonpayable",
      "type": "function"
    },
    {
      "constant": false,
      "inputs": [
        {
          "name": "minRebaseTimeIntervalSec_",
          "type": "uint256"
        },
        {
          "name": "rebaseWindowOffsetSec_",
          "type": "uint256"
        },
        {
          "name": "rebaseWindowLengthSec_",
          "type": "uint256"
        }
      ],
      "name": "setRebaseTimingParameters",
      "outputs": [],
      "payable": false,
      "stateMutability": "nonpayable",
      "type": "function"
    },
    {
      "constant": false,
      "inputs": [
        {
          "name": "targetAsset_",
          "type": "address"
        }
      ],
      "name": "setTargetAsset",
      "outputs": [],
      "payable": false,
      "stateMutability": "nonpayable",
      "type": "function"
    },
    {
      "constant": false,
      "inputs": [
        {
          "name": "owner_",
          "type": "address"
        },
        {
          "name": "uFrags_",
          "type": "address"
        }
      ],
      "name": "initialize",
      "outputs": [],
      "payable": false,
      "stateMutability": "nonpayable",
      "type": "function"
    },
    {
      "constant": false,
      "inputs": [
        {
          "name": "sender",
          "type": "address"
        }
      ],
      "name": "initialize",
      "outputs": [],
      "payable": false,
      "stateMutability": "nonpayable",
      "type": "function"
    },
    {
      "constant": true,
      "inputs": [],
      "name": "inRebaseWindow",
      "outputs": [
        {
          "name": "",
          "type": "bool"
        }
      ],
      "payable": false,
      "stateMutability": "view",
      "type": "function"
    }
  ],
  "bytecode": "0x608060405234801561001057600080fd5b506118aa806100206000396000f300608060405260043610610149576000357c0100000000000000000000000000000000000000000000000000000000900463ffffffff168063021018991461014e578063111d04981461017957806316250fd4146101a857806320ce8389146101e95780633a93069b146102165780633d4403ac14610241578063485cc9551461029857806353a15edc146102fb578063609615281461032857806363f6d4c81461037f5780637052b902146103aa578063715018a6146103d55780638b4c80ae146103ec5780638da5cb5b1461042f5780638f32d59b14610486578063900cf0cf146104b55780639466120f146104e05780639e30bac51461050b578063af14052c1461054e578063b74795d914610565578063c4d66de8146105bc578063cd28ef0d146105ff578063d3d55d5114610642578063d94ad83714610699578063f2fde38b146106c4575b600080fd5b34801561015a57600080fd5b50610163610707565b6040518082815260200191505060405180910390f35b34801561018557600080fd5b5061018e61070d565b604051808215151515815260200191505060405180910390f35b3480156101b457600080fd5b506101e7600480360381019080803590602001909291908035906020019092919080359060200190929190505050610763565b005b3480156101f557600080fd5b50610214600480360381019080803590602001909291905050506107ad565b005b34801561022257600080fd5b5061022b6107d9565b6040518082815260200191505060405180910390f35b34801561024d57600080fd5b506102566107df565b604051808273ffffffffffffffffffffffffffffffffffffffff1673ffffffffffffffffffffffffffffffffffffffff16815260200191505060405180910390f35b3480156102a457600080fd5b506102f9600480360381019080803573ffffffffffffffffffffffffffffffffffffffff169060200190929190803573ffffffffffffffffffffffffffffffffffffffff169060200190929190505050610805565b005b34801561030757600080fd5b50610326600480360381019080803590602001909291905050506109cb565b005b34801561033457600080fd5b5061033d6109e8565b604051808273ffffffffffffffffffffffffffffffffffffffff1673ffffffffffffffffffffffffffffffffffffffff16815260200191505060405180910390f35b34801561038b57600080fd5b50610394610a0e565b6040518082815260200191505060405180910390f35b3480156103b657600080fd5b506103bf610a14565b6040518082815260200191505060405180910390f35b3480156103e157600080fd5b506103ea610a1a565b005b3480156103f857600080fd5b5061042d600480360381019080803573ffffffffffffffffffffffffffffffffffffffff169060200190929190505050610ad6565b005b34801561043b57600080fd5b50610444610b2d565b604051808273ffffffffffffffffffffffffffffffffffffffff1673ffffffffffffffffffffffffffffffffffffffff16815260200191505060405180910390f35b34801561049257600080fd5b5061049b610b57565b604051808215151515815260200191505060405180910390f35b3480156104c157600080fd5b506104ca610baf565b6040518082815260200191505060405180910390f35b3480156104ec57600080fd5b506104f5610bb5565b6040518082815260200191505060405180910390f35b34801561051757600080fd5b5061054c600480360381019080803573ffffffffffffffffffffffffffffffffffffffff169060200190929190505050610bbb565b005b34801561055a57600080fd5b50610563610c12565b005b34801561057157600080fd5b5061057a611181565b604051808273ffffffffffffffffffffffffffffffffffffffff1673ffffffffffffffffffffffffffffffffffffffff16815260200191505060405180910390f35b3480156105c857600080fd5b506105fd600480360381019080803573ffffffffffffffffffffffffffffffffffffffff1690602001909291905050506111a7565b005b34801561060b57600080fd5b50610640600480360381019080803573ffffffffffffffffffffffffffffffffffffffff16906020019092919050505061131e565b005b34801561064e57600080fd5b50610657611375565b604051808273ffffffffffffffffffffffffffffffffffffffff1673ffffffffffffffffffffffffffffffffffffffff16815260200191505060405180910390f35b3480156106a557600080fd5b506106ae61139b565b6040518082815260200191505060405180910390f35b3480156106d057600080fd5b50610705600480360381019080803573ffffffffffffffffffffffffffffffffffffffff1690602001909291905050506113a1565b005b606b5481565b6000606d54610727606b54426113c090919063ffffffff16565b1015801561075e5750610747606e54606d546113e590919063ffffffff16565b61075c606b54426113c090919063ffffffff16565b105b905090565b61076b610b57565b151561077657600080fd5b60008311151561078557600080fd5b828210151561079357600080fd5b82606b8190555081606d8190555080606e81905550505050565b6107b5610b57565b15156107c057600080fd5b6000811115156107cf57600080fd5b80606a8190555050565b606c5481565b606860009054906101000a900473ffffffffffffffffffffffffffffffffffffffff1681565b60008060019054906101000a900460ff16806108255750610824611406565b5b8061083c57506000809054906101000a900460ff16155b15156108d6576040517f08c379a000000000000000000000000000000000000000000000000000000000815260040180806020018281038252602e8152602001807f436f6e747261637420696e7374616e63652068617320616c726561647920626581526020017f656e20696e697469616c697a656400000000000000000000000000000000000081525060400191505060405180910390fd5b600060019054906101000a900460ff1690506001600060016101000a81548160ff02191690831515021790555060016000806101000a81548160ff021916908315150217905550610926836111a7565b6002601203600a0a600502606981905550600a606a8190555062015180606b8190555061b6d0606d81905550610708606e819055506000606c819055506000606f8190555081606660006101000a81548173ffffffffffffffffffffffffffffffffffffffff021916908373ffffffffffffffffffffffffffffffffffffffff16021790555080600060016101000a81548160ff021916908315150217905550505050565b6109d3610b57565b15156109de57600080fd5b8060698190555050565b606760009054906101000a900473ffffffffffffffffffffffffffffffffffffffff1681565b606a5481565b606d5481565b610a22610b57565b1515610a2d57600080fd5b603360009054906101000a900473ffffffffffffffffffffffffffffffffffffffff1673ffffffffffffffffffffffffffffffffffffffff167ff8df31144d9c2f0f6b59d69b8b98abd5459d07f2742c4df920b25aae33c6482060405160405180910390a26000603360006101000a81548173ffffffffffffffffffffffffffffffffffffffff021916908373ffffffffffffffffffffffffffffffffffffffff160217905550565b610ade610b57565b1515610ae957600080fd5b80606860006101000a81548173ffffffffffffffffffffffffffffffffffffffff021916908373ffffffffffffffffffffffffffffffffffffffff16021790555050565b6000603360009054906101000a900473ffffffffffffffffffffffffffffffffffffffff16905090565b6000603360009054906101000a900473ffffffffffffffffffffffffffffffffffffffff1673ffffffffffffffffffffffffffffffffffffffff163373ffffffffffffffffffffffffffffffffffffffff1614905090565b606f5481565b606e5481565b610bc3610b57565b1515610bce57600080fd5b80606760006101000a81548173ffffffffffffffffffffffffffffffffffffffff021916908373ffffffffffffffffffffffffffffffffffffffff16021790555050565b6000806000806000607060009054906101000a900473ffffffffffffffffffffffffffffffffffffffff1673ffffffffffffffffffffffffffffffffffffffff163373ffffffffffffffffffffffffffffffffffffffff16141515610c7657600080fd5b610c7e61070d565b1515610c8957600080fd5b42610ca1606b54606c546113e590919063ffffffff16565b101515610cad57600080fd5b610ce8606d54610cda610ccb606b54426113c090919063ffffffff16565b4261141790919063ffffffff16565b6113e590919063ffffffff16565b606c81905550610d046001606f546113e590919063ffffffff16565b606f819055506012600a0a6001029450606760009054906101000a900473ffffffffffffffffffffffffffffffffffffffff1673ffffffffffffffffffffffffffffffffffffffff16633bc5de306040518163ffffffff167c01000000000000000000000000000000000000000000000000000000000281526004016040805180830381600087803b158015610d9957600080fd5b505af1158015610dad573d6000803e3d6000fd5b505050506040513d6040811015610dc357600080fd5b8101908080519060200190929190805190602001909291905050508094508195505050821515610df257600080fd5b6012600a0a600202841115610e0c576012600a0a60020293505b610e168486611438565b9150610e35610e26606a5461156f565b8361159190919063ffffffff16565b9150600082138015610f3357506012600a0a60020260ff60019060020a0219811515610e5d57fe5b04610f3183606660009054906101000a900473ffffffffffffffffffffffffffffffffffffffff1673ffffffffffffffffffffffffffffffffffffffff166318160ddd6040518163ffffffff167c0100000000000000000000000000000000000000000000000000000000028152600401602060405180830381600087803b158015610ee857600080fd5b505af1158015610efc573d6000803e3d6000fd5b505050506040513d6020811015610f1257600080fd5b81019080805190602001909291905050506113e590919063ffffffff16565b115b156110315761102e611029606660009054906101000a900473ffffffffffffffffffffffffffffffffffffffff1673ffffffffffffffffffffffffffffffffffffffff166318160ddd6040518163ffffffff167c0100000000000000000000000000000000000000000000000000000000028152600401602060405180830381600087803b158015610fc457600080fd5b505af1158015610fd8573d6000803e3d6000fd5b505050506040513d6020811015610fee57600080fd5b81019080805190602001909291905050506012600a0a60020260ff60019060020a021981151561101a57fe5b0461141790919063ffffffff16565b61156f565b91505b606660009054906101000a900473ffffffffffffffffffffffffffffffffffffffff1673ffffffffffffffffffffffffffffffffffffffff16637a43e23f606f54846040518363ffffffff167c01000000000000000000000000000000000000000000000000000000000281526004018083815260200182815260200192505050602060405180830381600087803b1580156110cc57600080fd5b505af11580156110e0573d6000803e3d6000fd5b505050506040513d60208110156110f657600080fd5b810190808051906020019092919050505090506012600a0a60020260ff60019060020a021981151561112457fe5b04811115151561113057fe5b606f547f7f5c8486e564c1d27c32da42b1ba6a909114d7bbea36de9a66bc0bebfba26bc385844260405180848152602001838152602001828152602001935050505060405180910390a25050505050565b607060009054906101000a900473ffffffffffffffffffffffffffffffffffffffff1681565b60008060019054906101000a900460ff16806111c757506111c6611406565b5b806111de57506000809054906101000a900460ff16155b1515611278576040517f08c379a000000000000000000000000000000000000000000000000000000000815260040180806020018281038252602e8152602001807f436f6e747261637420696e7374616e63652068617320616c726561647920626581526020017f656e20696e697469616c697a656400000000000000000000000000000000000081525060400191505060405180910390fd5b600060019054906101000a900460ff1690506001600060016101000a81548160ff02191690831515021790555060016000806101000a81548160ff02191690831515021790555081603360006101000a81548173ffffffffffffffffffffffffffffffffffffffff021916908373ffffffffffffffffffffffffffffffffffffffff16021790555080600060016101000a81548160ff0219169083151502179055505050565b611326610b57565b151561133157600080fd5b80607060006101000a81548173ffffffffffffffffffffffffffffffffffffffff021916908373ffffffffffffffffffffffffffffffffffffffff16021790555050565b606660009054906101000a900473ffffffffffffffffffffffffffffffffffffffff1681565b60695481565b6113a9610b57565b15156113b457600080fd5b6113bd816115e9565b50565b60008082141515156113d157600080fd5b81838115156113dc57fe5b06905092915050565b60008082840190508381101515156113fc57600080fd5b8091505092915050565b600080303b90506000811491505090565b60008083831115151561142957600080fd5b82840390508091505092915050565b60008061144584846116e5565b156114535760009150611568565b61145c8361156f565b905061156581611557611480846114728961156f565b61176690919063ffffffff16565b611549606660009054906101000a900473ffffffffffffffffffffffffffffffffffffffff1673ffffffffffffffffffffffffffffffffffffffff166318160ddd6040518163ffffffff167c0100000000000000000000000000000000000000000000000000000000028152600401602060405180830381600087803b15801561150957600080fd5b505af115801561151d573d6000803e3d6000fd5b505050506040513d602081101561153357600080fd5b810190808051906020019092919050505061156f565b6117aa90919063ffffffff16565b61159190919063ffffffff16565b91505b5092915050565b600060ff60019060020a0219821115151561158957600080fd5b819050919050565b60007fffffffffffffffffffffffffffffffffffffffffffffffffffffffffffffffff821415806115ca575060ff60019060020a028314155b15156115d557600080fd5b81838115156115e057fe5b05905092915050565b600073ffffffffffffffffffffffffffffffffffffffff168173ffffffffffffffffffffffffffffffffffffffff161415151561162557600080fd5b8073ffffffffffffffffffffffffffffffffffffffff16603360009054906101000a900473ffffffffffffffffffffffffffffffffffffffff1673ffffffffffffffffffffffffffffffffffffffff167f8be0079c531659141344cd1fd0a4f28419497f9722a3daafe3b4186f6b6457e060405160405180910390a380603360006101000a81548173ffffffffffffffffffffffffffffffffffffffff021916908373ffffffffffffffffffffffffffffffffffffffff16021790555050565b6000806117136012600a0a6117056069548661181690919063ffffffff16565b61185490919063ffffffff16565b9050828410158015611736575080611734848661141790919063ffffffff16565b105b8061175d5750828410801561175c57508061175a858561141790919063ffffffff16565b105b5b91505092915050565b60008082840390506000831215801561177f5750838113155b80611795575060008312801561179457508381135b5b15156117a057600080fd5b8091505092915050565b600080828402905060ff60019060020a02811415806117dd575060ff60019060020a02831660ff60019060020a02851614155b15156117e857600080fd5b600083148061180157508383828115156117fe57fe5b05145b151561180c57600080fd5b8091505092915050565b600080600084141561182b576000915061184d565b828402905082848281151561183c57fe5b0414151561184957600080fd5b8091505b5092915050565b60008060008311151561186657600080fd5b828481151561187157fe5b04905080915050929150505600a165627a7a72305820f81e1722ff1c6a510affe1841b67a86669b8b8e0381c5553a3cdd9943e5940680029",
  "source": "/**\r\n *Submitted for verification at Etherscan.io on 2020-10-19\r\n*/\r\n\r\npragma solidity 0.4.24;\r\n\r\nimport \"./library/SafeMath.sol\";\r\nimport \"./library/SafeMathInt.sol\";\r\nimport \"./interface/IERC20.sol\";\r\nimport \"./interface/IOracle.sol\";\r\nimport \"./interface/UInt256Lib.sol\";\r\nimport \"./common/Initializable.sol\";\r\nimport \"./common/Ownable.sol\";\r\nimport \"./Oms.sol\";\r\n\r\n/**\r\n * @title uOms Monetary Supply Policy\r\n * @dev This is an implementation of the uOms Ideal Money protocol.\r\n *      uOms operates symmetrically on expansion and contraction. It will both split and\r\n *      combine coins to maintain a stable unit price.\r\n *\r\n *      This component regulates the token supply of the uOms ERC20 token in response to\r\n *      market oracles.\r\n */\r\ncontract OmsPolicy is Ownable {\r\n    using SafeMath for uint256;\r\n    using SafeMathInt for int256;\r\n    using UInt256Lib for uint256;\r\n\r\n    event LogRebase(\r\n        uint256 indexed epoch,\r\n        uint256 exchangeRate,\r\n        int256 requestedSupplyAdjustment,\r\n        uint256 timestampSec\r\n    );\r\n\r\n    Oms public uFrags;\r\n\r\n    // Market oracle provides the token/USD exchange rate as an 18 decimal fixed point number.\r\n    // (eg) An oracle value of 1.5e18 it would mean 1 Ample is trading for $1.50.\r\n    IOracle public marketOracle;\r\n\r\n    // The target asset contract address.\r\n    address public targetAsset;\r\n\r\n    // If the current exchange rate is within this fractional distance from the target, no supply\r\n    // update is performed. Fixed point number--same format as the rate.\r\n    // (ie) abs(rate - targetRate) / targetRate < deviationThreshold, then no supply change.\r\n    // DECIMALS Fixed point number.\r\n    uint256 public deviationThreshold;\r\n\r\n    // The rebase lag parameter, used to dampen the applied supply adjustment by 1 / rebaseLag\r\n    // Check setRebaseLag comments for more details.\r\n    // Natural number, no decimal places.\r\n    uint256 public rebaseLag;\r\n\r\n    // More than this much time must pass between rebase operations.\r\n    uint256 public minRebaseTimeIntervalSec;\r\n\r\n    // Block timestamp of last rebase operation\r\n    uint256 public lastRebaseTimestampSec;\r\n\r\n    // The rebase window begins this many seconds into the minRebaseTimeInterval period.\r\n    // For example if minRebaseTimeInterval is 24hrs, it represents the time of day in seconds.\r\n    uint256 public rebaseWindowOffsetSec;\r\n\r\n    // The length of the time window where a rebase operation is allowed to execute, in seconds.\r\n    uint256 public rebaseWindowLengthSec;\r\n\r\n    // The number of rebase cycles since inception\r\n    uint256 public epoch;\r\n\r\n    uint256 private constant DECIMALS = 18;\r\n\r\n    // Due to the expression in computeSupplyDelta(), MAX_RATE * MAX_SUPPLY must fit into an int256.\r\n    // Both are 18 decimals fixed point numbers.\r\n    uint256 private constant MAX_RATE = 2 * 10**DECIMALS;\r\n    // MAX_SUPPLY = MAX_INT256 / MAX_RATE\r\n    uint256 private constant MAX_SUPPLY = ~(uint256(1) << 255) / MAX_RATE;\r\n\r\n    // target rate 1\r\n    uint256 private constant TARGET_RATE = 1 * 10**DECIMALS;\r\n\r\n    // This module orchestrates the rebase execution and downstream notification.\r\n    address public orchestrator;\r\n\r\n    modifier onlyOrchestrator() {\r\n        require(msg.sender == orchestrator);\r\n        _;\r\n    }\r\n\r\n    /**\r\n     * @notice Initiates a new rebase operation, provided the minimum time period has elapsed.\r\n     *\r\n     * @dev The supply adjustment equals (_totalSupply * DeviationFromTargetRate) / rebaseLag\r\n     *      Where DeviationFromTargetRate is (MarketOracleRate - targetRate) / targetRate\r\n     *      and targetRate is 1\r\n     */\r\n    function rebase() external onlyOrchestrator {\r\n        require(inRebaseWindow());\r\n\r\n        // This comparison also ensures there is no reentrancy.\r\n        require(lastRebaseTimestampSec.add(minRebaseTimeIntervalSec) < now);\r\n\r\n        // Snap the rebase time to the start of this window.\r\n        lastRebaseTimestampSec = now.sub(\r\n            now.mod(minRebaseTimeIntervalSec)).add(rebaseWindowOffsetSec);\r\n\r\n        epoch = epoch.add(1);\r\n\r\n        uint256 targetRate = TARGET_RATE;\r\n\r\n        uint256 exchangeRate;\r\n        bool rateValid;\r\n        (exchangeRate, rateValid) = marketOracle.getData();\r\n        require(rateValid);\r\n\r\n        if (exchangeRate > MAX_RATE) {\r\n            exchangeRate = MAX_RATE;\r\n        }\r\n\r\n        int256 supplyDelta = computeSupplyDelta(exchangeRate, targetRate);\r\n\r\n        // Apply the Dampening factor.\r\n        supplyDelta = supplyDelta.div(rebaseLag.toInt256Safe());\r\n\r\n        if (supplyDelta > 0 && uFrags.totalSupply().add(uint256(supplyDelta)) > MAX_SUPPLY) {\r\n            supplyDelta = (MAX_SUPPLY.sub(uFrags.totalSupply())).toInt256Safe();\r\n        }\r\n\r\n        uint256 supplyAfterRebase = uFrags.rebase(epoch, supplyDelta);\r\n        assert(supplyAfterRebase <= MAX_SUPPLY);\r\n        emit LogRebase(epoch, exchangeRate, supplyDelta, now);\r\n    }\r\n\r\n    /**\r\n     * @notice Sets the reference to the market oracle.\r\n     * @param marketOracle_ The address of the market oracle contract.\r\n     */\r\n    function setMarketOracle(IOracle marketOracle_)\r\n        external\r\n        onlyOwner\r\n    {\r\n        marketOracle = marketOracle_;\r\n    }\r\n\r\n    /**\r\n     * @notice Sets the reference to the orchestrator.\r\n     * @param orchestrator_ The address of the orchestrator contract.\r\n     */\r\n    function setOrchestrator(address orchestrator_)\r\n        external\r\n        onlyOwner\r\n    {\r\n        orchestrator = orchestrator_;\r\n    }\r\n\r\n    /**\r\n     * @notice Sets the deviation threshold fraction. If the exchange rate given by the market\r\n     *         oracle is within this fractional distance from the targetRate, then no supply\r\n     *         modifications are made. DECIMALS fixed point number.\r\n     * @param deviationThreshold_ The new exchange rate threshold fraction.\r\n     */\r\n    function setDeviationThreshold(uint256 deviationThreshold_)\r\n        external\r\n        onlyOwner\r\n    {\r\n        deviationThreshold = deviationThreshold_;\r\n    }\r\n\r\n    /**\r\n     * @notice Sets the rebase lag parameter.\r\n               It is used to dampen the applied supply adjustment by 1 / rebaseLag\r\n               If the rebase lag R, equals 1, the smallest value for R, then the full supply\r\n               correction is applied on each rebase cycle.\r\n               If it is greater than 1, then a correction of 1/R of is applied on each rebase.\r\n     * @param rebaseLag_ The new rebase lag parameter.\r\n     */\r\n    function setRebaseLag(uint256 rebaseLag_)\r\n        external\r\n        onlyOwner\r\n    {\r\n        require(rebaseLag_ > 0);\r\n        rebaseLag = rebaseLag_;\r\n    }\r\n\r\n    /**\r\n     * @notice Sets the parameters which control the timing and frequency of\r\n     *         rebase operations.\r\n     *         a) the minimum time period that must elapse between rebase cycles.\r\n     *         b) the rebase window offset parameter.\r\n     *         c) the rebase window length parameter.\r\n     * @param minRebaseTimeIntervalSec_ More than this much time must pass between rebase\r\n     *        operations, in seconds.\r\n     * @param rebaseWindowOffsetSec_ The number of seconds from the beginning of\r\n              the rebase interval, where the rebase window begins.\r\n     * @param rebaseWindowLengthSec_ The length of the rebase window in seconds.\r\n     */\r\n    function setRebaseTimingParameters(\r\n        uint256 minRebaseTimeIntervalSec_,\r\n        uint256 rebaseWindowOffsetSec_,\r\n        uint256 rebaseWindowLengthSec_)\r\n        external\r\n        onlyOwner\r\n    {\r\n        require(minRebaseTimeIntervalSec_ > 0);\r\n        require(rebaseWindowOffsetSec_ < minRebaseTimeIntervalSec_);\r\n\r\n        minRebaseTimeIntervalSec = minRebaseTimeIntervalSec_;\r\n        rebaseWindowOffsetSec = rebaseWindowOffsetSec_;\r\n        rebaseWindowLengthSec = rebaseWindowLengthSec_;\r\n    }\r\n\r\n    /**\r\n     * @notice Sets the asset contract address to rebase.\r\n     * @param targetAsset_ Address of the asset token.\r\n     */\r\n    function setTargetAsset(\r\n        address targetAsset_)\r\n        external\r\n        onlyOwner\r\n    {\r\n        targetAsset = targetAsset_;\r\n    }\r\n\r\n    /**\r\n     * @dev ZOS upgradable contract initialization method.\r\n     *      It is called at the time of contract creation to invoke parent class initializers and\r\n     *      initialize the contract's state variables.\r\n     */\r\n    function initialize(address owner_, Oms uFrags_)\r\n        public\r\n        initializer\r\n    {\r\n        Ownable.initialize(owner_);\r\n\r\n        // deviationThreshold = 0.05e18 = 5e16\r\n        deviationThreshold = 5 * 10 ** (DECIMALS-2);\r\n\r\n        // rebaseLag = 30;\r\n        rebaseLag = 10;\r\n        minRebaseTimeIntervalSec = 1 days;\r\n        rebaseWindowOffsetSec = 46800;  // 3PM UTC\r\n        rebaseWindowLengthSec = 30 minutes;\r\n        lastRebaseTimestampSec = 0;\r\n        epoch = 0;\r\n\r\n        uFrags = uFrags_;\r\n    }\r\n\r\n    /**\r\n     * @return If the latest block timestamp is within the rebase time window it, returns true.\r\n     *         Otherwise, returns false.\r\n     */\r\n    function inRebaseWindow() public view returns (bool) {\r\n        return (\r\n            now.mod(minRebaseTimeIntervalSec) >= rebaseWindowOffsetSec &&\r\n            now.mod(minRebaseTimeIntervalSec) < (rebaseWindowOffsetSec.add(rebaseWindowLengthSec))\r\n        );\r\n    }\r\n\r\n    /**\r\n     * @return Computes the total supply adjustment in response to the exchange rate\r\n     *         and the targetRate.\r\n     */\r\n    function computeSupplyDelta(uint256 rate, uint256 targetRate)\r\n        private\r\n        view\r\n        returns (int256)\r\n    {\r\n        if (withinDeviationThreshold(rate, targetRate)) {\r\n            return 0;\r\n        }\r\n\r\n        // supplyDelta = totalSupply * (rate - targetRate) / targetRate\r\n        int256 targetRateSigned = targetRate.toInt256Safe();\r\n        return uFrags.totalSupply().toInt256Safe()\r\n            .mul(rate.toInt256Safe().sub(targetRateSigned))\r\n            .div(targetRateSigned);\r\n    }\r\n\r\n    /**\r\n     * @param rate The current exchange rate, an 18 decimal fixed point number.\r\n     * @param targetRate The target exchange rate, an 18 decimal fixed point number.\r\n     * @return If the rate is within the deviation threshold from the target rate, returns true.\r\n     *         Otherwise, returns false.\r\n     */\r\n    function withinDeviationThreshold(uint256 rate, uint256 targetRate)\r\n        private\r\n        view\r\n        returns (bool)\r\n    {\r\n        uint256 absoluteDeviationThreshold = targetRate.mul(deviationThreshold)\r\n            .div(10 ** DECIMALS);\r\n\r\n        return (rate >= targetRate && rate.sub(targetRate) < absoluteDeviationThreshold)\r\n            || (rate < targetRate && targetRate.sub(rate) < absoluteDeviationThreshold);\r\n    }\r\n}",
  "sourcePath": "F:\\Projects\\Hitesh\\Oms\\contracts\\v4\\OmsPolicy.sol",
  "compiler": {
    "name": "solc",
    "version": "0.4.24+commit.e67f0147.Emscripten.clang"
  },
  "schemaVersion": "3.2.2-next.0",
  "updatedAt": "2021-03-03T19:17:44.373Z",
  "devdoc": {
    "methods": {
      "inRebaseWindow()": {
        "return": "If the latest block timestamp is within the rebase time window it, returns true.\r        Otherwise, returns false.\r"
      },
      "initialize(address)": {
        "details": "The Ownable constructor sets the original `owner` of the contract to the sender\r account.\r"
      },
      "initialize(address,address)": {
        "details": "ZOS upgradable contract initialization method.\r     It is called at the time of contract creation to invoke parent class initializers and\r     initialize the contract's state variables.\r"
      },
      "isOwner()": {
        "return": "true if `msg.sender` is the owner of the contract.\r"
      },
      "owner()": {
        "return": "the address of the owner.\r"
      },
      "rebase()": {
        "details": "The supply adjustment equals (_totalSupply * DeviationFromTargetRate) / rebaseLag\r     Where DeviationFromTargetRate is (MarketOracleRate - targetRate) / targetRate\r     and targetRate is 1\r"
      },
      "renounceOwnership()": {
        "details": "Allows the current owner to relinquish control of the contract.\r"
      },
      "setDeviationThreshold(uint256)": {
        "params": {
          "deviationThreshold_": "The new exchange rate threshold fraction.\r"
        }
      },
      "setMarketOracle(address)": {
        "params": {
          "marketOracle_": "The address of the market oracle contract.\r"
        }
      },
      "setOrchestrator(address)": {
        "params": {
          "orchestrator_": "The address of the orchestrator contract.\r"
        }
      },
      "setRebaseLag(uint256)": {
        "params": {
          "rebaseLag_": "The new rebase lag parameter.\r"
        }
      },
      "setRebaseTimingParameters(uint256,uint256,uint256)": {
        "params": {
          "minRebaseTimeIntervalSec_": "More than this much time must pass between rebase\r       operations, in seconds.\r",
          "rebaseWindowLengthSec_": "The length of the rebase window in seconds.\r",
          "rebaseWindowOffsetSec_": "The number of seconds from the beginning of\r the rebase interval, where the rebase window begins.\r"
        }
      },
      "setTargetAsset(address)": {
        "params": {
          "targetAsset_": "Address of the asset token.\r"
        }
      },
      "transferOwnership(address)": {
        "details": "Allows the current owner to transfer control of the contract to a newOwner.\r",
        "params": {
          "newOwner": "The address to transfer ownership to.\r"
        }
      }
    },
    "title": "uOms Monetary Supply Policy\r"
  },
  "userdoc": {
    "methods": {
      "rebase()": {
        "notice": "Initiates a new rebase operation, provided the minimum time period has elapsed.\r "
      },
      "renounceOwnership()": {
        "notice": "Renouncing to ownership will leave the contract without an owner.\r It will not be possible to call the functions with the `onlyOwner`\r modifier anymore.\r"
      },
      "setDeviationThreshold(uint256)": {
        "notice": "Sets the deviation threshold fraction. If the exchange rate given by the market\r        oracle is within this fractional distance from the targetRate, then no supply\r        modifications are made. DECIMALS fixed point number.\r"
      },
      "setMarketOracle(address)": {
        "notice": "Sets the reference to the market oracle.\r"
      },
      "setOrchestrator(address)": {
        "notice": "Sets the reference to the orchestrator.\r"
      },
      "setRebaseLag(uint256)": {
        "notice": "Sets the rebase lag parameter.\r It is used to dampen the applied supply adjustment by 1 / rebaseLag\r If the rebase lag R, equals 1, the smallest value for R, then the full supply\r correction is applied on each rebase cycle.\r If it is greater than 1, then a correction of 1/R of is applied on each rebase.\r"
      },
      "setRebaseTimingParameters(uint256,uint256,uint256)": {
        "notice": "Sets the parameters which control the timing and frequency of\r        rebase operations.\r        a) the minimum time period that must elapse between rebase cycles.\r        b) the rebase window offset parameter.\r        c) the rebase window length parameter.\r"
      },
      "setTargetAsset(address)": {
        "notice": "Sets the asset contract address to rebase.\r"
      }
    }
  }
}