{
  "contractName": "Oracle",
  "abi": [
    {
      "inputs": [
        {
          "internalType": "address",
          "name": "factory",
          "type": "address"
        },
        {
          "internalType": "address",
          "name": "tokenA",
          "type": "address"
        },
        {
          "internalType": "address",
          "name": "tokenB",
          "type": "address"
        }
      ],
      "stateMutability": "nonpayable",
      "type": "constructor"
    },
    {
      "inputs": [],
      "name": "PERIOD",
      "outputs": [
        {
          "internalType": "uint256",
          "name": "",
          "type": "uint256"
        }
      ],
      "stateMutability": "view",
      "type": "function"
    },
    {
      "inputs": [],
      "name": "blockTimestampLast",
      "outputs": [
        {
          "internalType": "uint32",
          "name": "",
          "type": "uint32"
        }
      ],
      "stateMutability": "view",
      "type": "function"
    },
    {
      "inputs": [],
      "name": "price0Average",
      "outputs": [
        {
          "internalType": "uint224",
          "name": "_x",
          "type": "uint224"
        }
      ],
      "stateMutability": "view",
      "type": "function"
    },
    {
      "inputs": [],
      "name": "price0CumulativeLast",
      "outputs": [
        {
          "internalType": "uint256",
          "name": "",
          "type": "uint256"
        }
      ],
      "stateMutability": "view",
      "type": "function"
    },
    {
      "inputs": [],
      "name": "price1Average",
      "outputs": [
        {
          "internalType": "uint224",
          "name": "_x",
          "type": "uint224"
        }
      ],
      "stateMutability": "view",
      "type": "function"
    },
    {
      "inputs": [],
      "name": "price1CumulativeLast",
      "outputs": [
        {
          "internalType": "uint256",
          "name": "",
          "type": "uint256"
        }
      ],
      "stateMutability": "view",
      "type": "function"
    },
    {
      "inputs": [],
      "name": "token0",
      "outputs": [
        {
          "internalType": "address",
          "name": "",
          "type": "address"
        }
      ],
      "stateMutability": "view",
      "type": "function"
    },
    {
      "inputs": [],
      "name": "token1",
      "outputs": [
        {
          "internalType": "address",
          "name": "",
          "type": "address"
        }
      ],
      "stateMutability": "view",
      "type": "function"
    },
    {
      "inputs": [],
      "name": "getData",
      "outputs": [
        {
          "internalType": "uint256",
          "name": "amountOut",
          "type": "uint256"
        },
        {
          "internalType": "bool",
          "name": "status",
          "type": "bool"
        }
      ],
      "stateMutability": "nonpayable",
      "type": "function"
    },
    {
      "inputs": [
        {
          "internalType": "address",
          "name": "token",
          "type": "address"
        },
        {
          "internalType": "uint256",
          "name": "amountIn",
          "type": "uint256"
        }
      ],
      "name": "consult",
      "outputs": [
        {
          "internalType": "uint256",
          "name": "amountOut",
          "type": "uint256"
        }
      ],
      "stateMutability": "view",
      "type": "function"
    }
  ],
  "bytecode": "0x60e0604052731b3924f88a5ee1d9c86b97dce55d99d4b22db5696000806101000a81548173ffffffffffffffffffffffffffffffffffffffff021916908373ffffffffffffffffffffffffffffffffffffffff1602179055503480156200006557600080fd5b506040516200207c3803806200207c833981810160405260608110156200008b57600080fd5b810190808051906020019092919080519060200190929190805190602001909291905050506000620000ca8484846200050460201b620014d71760201c565b90508073ffffffffffffffffffffffffffffffffffffffff1660808173ffffffffffffffffffffffffffffffffffffffff1660601b815250508073ffffffffffffffffffffffffffffffffffffffff16630dfe16816040518163ffffffff1660e01b815260040160206040518083038186803b1580156200014a57600080fd5b505afa1580156200015f573d6000803e3d6000fd5b505050506040513d60208110156200017657600080fd5b810190808051906020019092919050505073ffffffffffffffffffffffffffffffffffffffff1660a08173ffffffffffffffffffffffffffffffffffffffff1660601b815250508073ffffffffffffffffffffffffffffffffffffffff1663d21220a76040518163ffffffff1660e01b815260040160206040518083038186803b1580156200020457600080fd5b505afa15801562000219573d6000803e3d6000fd5b505050506040513d60208110156200023057600080fd5b810190808051906020019092919050505073ffffffffffffffffffffffffffffffffffffffff1660c08173ffffffffffffffffffffffffffffffffffffffff1660601b815250508073ffffffffffffffffffffffffffffffffffffffff16635909c0d56040518163ffffffff1660e01b815260040160206040518083038186803b158015620002be57600080fd5b505afa158015620002d3573d6000803e3d6000fd5b505050506040513d6020811015620002ea57600080fd5b81019080805190602001909291905050506001819055508073ffffffffffffffffffffffffffffffffffffffff16635a3d54936040518163ffffffff1660e01b815260040160206040518083038186803b1580156200034857600080fd5b505afa1580156200035d573d6000803e3d6000fd5b505050506040513d60208110156200037457600080fd5b81019080805190602001909291905050506002819055506000808273ffffffffffffffffffffffffffffffffffffffff16630902f1ac6040518163ffffffff1660e01b815260040160606040518083038186803b158015620003d557600080fd5b505afa158015620003ea573d6000803e3d6000fd5b505050506040513d60608110156200040157600080fd5b81019080805190602001909291908051906020019092919080519060200190929190505050600360008291906101000a81548163ffffffff021916908363ffffffff1602179055508193508294505050506000826dffffffffffffffffffffffffffff16141580156200048557506000816dffffffffffffffffffffffffffff1614155b620004f8576040517f08c379a00000000000000000000000000000000000000000000000000000000081526004018080602001828103825260188152602001807f4f7261636c6550726963653a204e4f5f5245534552564553000000000000000081525060200191505060405180910390fd5b505050505050620007e3565b60008060006200051b85856200066760201b60201c565b91509150858282604051602001808373ffffffffffffffffffffffffffffffffffffffff1673ffffffffffffffffffffffffffffffffffffffff1660601b81526014018273ffffffffffffffffffffffffffffffffffffffff1673ffffffffffffffffffffffffffffffffffffffff1660601b8152601401925050506040516020818303038152906040528051906020012060405160200180807fff000000000000000000000000000000000000000000000000000000000000008152506001018373ffffffffffffffffffffffffffffffffffffffff1673ffffffffffffffffffffffffffffffffffffffff1660601b8152601401828152602001807f96e8ac4277198ff8b6f785478aa9a39f403cb768dd02cbee326c3e7da348845f815250602001925050506040516020818303038152906040528051906020012060001c925050509392505050565b6000808273ffffffffffffffffffffffffffffffffffffffff168473ffffffffffffffffffffffffffffffffffffffff161415620006f1576040517f08c379a0000000000000000000000000000000000000000000000000000000008152600401808060200182810382526025815260200180620020576025913960400191505060405180910390fd5b8273ffffffffffffffffffffffffffffffffffffffff168473ffffffffffffffffffffffffffffffffffffffff16106200072d57828462000730565b83835b8092508193505050600073ffffffffffffffffffffffffffffffffffffffff168273ffffffffffffffffffffffffffffffffffffffff161415620007dc576040517f08c379a000000000000000000000000000000000000000000000000000000000815260040180806020018281038252601e8152602001807f556e697377617056324c6962726172793a205a45524f5f41444452455353000081525060200191505060405180910390fd5b9250929050565b60805160601c60a05160601c60c05160601c61182a6200082d600039806104b6528061074152806109455250806102fc5280610370528061063d525080610971525061182a6000f3fe608060405234801561001057600080fd5b506004361061009e5760003560e01c80635e6aaf2c116100665780635e6aaf2c146101b4578063a6bb45391461020e578063b4d1d79514610268578063c5700a0214610286578063d21220a7146102b05761009e565b80630dfe1681146100a35780633bc5de30146100ed5780633ddac953146101165780635909c0d5146101785780635a3d549314610196575b600080fd5b6100ab6102fa565b604051808273ffffffffffffffffffffffffffffffffffffffff1673ffffffffffffffffffffffffffffffffffffffff16815260200191505060405180910390f35b6100f561031e565b60405180838152602001821515151581526020019250505060405180910390f35b6101626004803603604081101561012c57600080fd5b81019080803573ffffffffffffffffffffffffffffffffffffffff16906020019092919080359060200190929190505050610639565b6040518082815260200191505060405180910390f35b6101806108b2565b6040518082815260200191505060405180910390f35b61019e6108b8565b6040518082815260200191505060405180910390f35b6101bc6108be565b60405180827bffffffffffffffffffffffffffffffffffffffffffffffffffffffff167bffffffffffffffffffffffffffffffffffffffffffffffffffffffff16815260200191505060405180910390f35b6102166108f2565b60405180827bffffffffffffffffffffffffffffffffffffffffffffffffffffffff167bffffffffffffffffffffffffffffffffffffffffffffffffffffffff16815260200191505060405180910390f35b610270610926565b6040518082815260200191505060405180910390f35b61028e61092d565b604051808263ffffffff1663ffffffff16815260200191505060405180910390f35b6102b8610943565b604051808273ffffffffffffffffffffffffffffffffffffffff1673ffffffffffffffffffffffffffffffffffffffff16815260200191505060405180910390f35b7f000000000000000000000000000000000000000000000000000000000000000081565b600080610329610967565b6000670de0b6b3a764000090506000809054906101000a900473ffffffffffffffffffffffffffffffffffffffff1673ffffffffffffffffffffffffffffffffffffffff167f000000000000000000000000000000000000000000000000000000000000000073ffffffffffffffffffffffffffffffffffffffff161461047c57610447610442670de0b6b3a764000060046040518060200160405290816000820160009054906101000a90047bffffffffffffffffffffffffffffffffffffffffffffffffffffffff167bffffffffffffffffffffffffffffffffffffffffffffffffffffffff167bffffffffffffffffffffffffffffffffffffffffffffffffffffffff1681525050610ba090919063ffffffff16565b610c97565b71ffffffffffffffffffffffffffffffffffff16905061047564e8d4a5100082610cac90919063ffffffff16565b905061062d565b6000809054906101000a900473ffffffffffffffffffffffffffffffffffffffff1673ffffffffffffffffffffffffffffffffffffffff167f000000000000000000000000000000000000000000000000000000000000000073ffffffffffffffffffffffffffffffffffffffff16141561055f576040517f08c379a000000000000000000000000000000000000000000000000000000000815260040180806020018281038252601a8152602001807f4f7261636c6550726963653a20494e56414c49445f544f4b454e00000000000081525060200191505060405180910390fd5b6105fc6105f7670de0b6b3a764000060056040518060200160405290816000820160009054906101000a90047bffffffffffffffffffffffffffffffffffffffffffffffffffffffff167bffffffffffffffffffffffffffffffffffffffffffffffffffffffff167bffffffffffffffffffffffffffffffffffffffffffffffffffffffff1681525050610ba090919063ffffffff16565b610c97565b71ffffffffffffffffffffffffffffffffffff16905061062a64e8d4a5100082610cac90919063ffffffff16565b90505b80600192509250509091565b60007f000000000000000000000000000000000000000000000000000000000000000073ffffffffffffffffffffffffffffffffffffffff168373ffffffffffffffffffffffffffffffffffffffff16141561073f5761072461071f8360046040518060200160405290816000820160009054906101000a90047bffffffffffffffffffffffffffffffffffffffffffffffffffffffff167bffffffffffffffffffffffffffffffffffffffffffffffffffffffff167bffffffffffffffffffffffffffffffffffffffffffffffffffffffff1681525050610ba090919063ffffffff16565b610c97565b71ffffffffffffffffffffffffffffffffffff1690506108ac565b7f000000000000000000000000000000000000000000000000000000000000000073ffffffffffffffffffffffffffffffffffffffff168373ffffffffffffffffffffffffffffffffffffffff1614610800576040517f08c379a000000000000000000000000000000000000000000000000000000000815260040180806020018281038252601a8152602001807f4f7261636c6550726963653a20494e56414c49445f544f4b454e00000000000081525060200191505060405180910390fd5b6108956108908360056040518060200160405290816000820160009054906101000a90047bffffffffffffffffffffffffffffffffffffffffffffffffffffffff167bffffffffffffffffffffffffffffffffffffffffffffffffffffffff167bffffffffffffffffffffffffffffffffffffffffffffffffffffffff1681525050610ba090919063ffffffff16565b610c97565b71ffffffffffffffffffffffffffffffffffff1690505b92915050565b60015481565b60025481565b60058060000160009054906101000a90047bffffffffffffffffffffffffffffffffffffffffffffffffffffffff16905081565b60048060000160009054906101000a90047bffffffffffffffffffffffffffffffffffffffffffffffffffffffff16905081565b6201518081565b600360009054906101000a900463ffffffff1681565b7f000000000000000000000000000000000000000000000000000000000000000081565b60008060006109957f0000000000000000000000000000000000000000000000000000000000000000610d41565b9250925092506000600360009054906101000a900463ffffffff1682039050620151808163ffffffff161015610a33576040517f08c379a000000000000000000000000000000000000000000000000000000000815260040180806020018281038252601f8152602001807f4f7261636c6550726963653a20504552494f445f4e4f545f454c41505345440081525060200191505060405180910390fd5b60405180602001604052808263ffffffff16600154870381610a5157fe5b047bffffffffffffffffffffffffffffffffffffffffffffffffffffffff16815250600460008201518160000160006101000a8154817bffffffffffffffffffffffffffffffffffffffffffffffffffffffff02191690837bffffffffffffffffffffffffffffffffffffffffffffffffffffffff16021790555090505060405180602001604052808263ffffffff16600254860381610aed57fe5b047bffffffffffffffffffffffffffffffffffffffffffffffffffffffff16815250600560008201518160000160006101000a8154817bffffffffffffffffffffffffffffffffffffffffffffffffffffffff02191690837bffffffffffffffffffffffffffffffffffffffffffffffffffffffff160217905550905050836001819055508260028190555081600360006101000a81548163ffffffff021916908363ffffffff16021790555050505050565b610ba8611493565b60008090506000831480610c0d575083600001517bffffffffffffffffffffffffffffffffffffffffffffffffffffffff16838486600001517bffffffffffffffffffffffffffffffffffffffffffffffffffffffff160292508281610c0a57fe5b04145b610c7f576040517f08c379a00000000000000000000000000000000000000000000000000000000081526004018080602001828103825260198152602001807f4669786564506f696e743a3a6d756c3a206f766572666c6f770000000000000081525060200191505060405180910390fd5b60405180602001604052808281525091505092915050565b6000607060ff168260000151901c9050919050565b600080821480610cc95750828283850292508281610cc657fe5b04145b610d3b576040517f08c379a00000000000000000000000000000000000000000000000000000000081526004018080602001828103825260148152602001807f64732d6d6174682d6d756c2d6f766572666c6f7700000000000000000000000081525060200191505060405180910390fd5b92915050565b6000806000610d4e610fcc565b90508373ffffffffffffffffffffffffffffffffffffffff16635909c0d56040518163ffffffff1660e01b815260040160206040518083038186803b158015610d9657600080fd5b505afa158015610daa573d6000803e3d6000fd5b505050506040513d6020811015610dc057600080fd5b810190808051906020019092919050505092508373ffffffffffffffffffffffffffffffffffffffff16635a3d54936040518163ffffffff1660e01b815260040160206040518083038186803b158015610e1957600080fd5b505afa158015610e2d573d6000803e3d6000fd5b505050506040513d6020811015610e4357600080fd5b8101908080519060200190929190505050915060008060008673ffffffffffffffffffffffffffffffffffffffff16630902f1ac6040518163ffffffff1660e01b815260040160606040518083038186803b158015610ea157600080fd5b505afa158015610eb5573d6000803e3d6000fd5b505050506040513d6060811015610ecb57600080fd5b810190808051906020019092919080519060200190929190805190602001909291905050509250925092508363ffffffff168163ffffffff1614610fc257600081850390508063ffffffff16610f41846dffffffffffffffffffffffffffff16866dffffffffffffffffffffffffffff16610fe2565b600001517bffffffffffffffffffffffffffffffffffffffffffffffffffffffff1602870196508063ffffffff16610f99856dffffffffffffffffffffffffffff16856dffffffffffffffffffffffffffff16610fe2565b600001517bffffffffffffffffffffffffffffffffffffffffffffffffffffffff160286019550505b5050509193909250565b60006401000000004281610fdc57fe5b06905090565b610fea6114a6565b60008211611043576040517f08c379a00000000000000000000000000000000000000000000000000000000081526004018080602001828103825260268152602001806117cf6026913960400191505060405180910390fd5b600083141561108157604051806020016040528060007bffffffffffffffffffffffffffffffffffffffffffffffffffffffff1681525090506112bd565b7fffffffffffffffffffffffffffffffffffffffffffffffffffffffffffffffff71ffffffffffffffffffffffffffffffffffff1683116111ba57600082607060ff1685901b816110ce57fe5b0490507fffffffffffffffffffffffffffffffffffffffffffffffffffffffffffffffff7bffffffffffffffffffffffffffffffffffffffffffffffffffffffff16811115611185576040517f08c379a000000000000000000000000000000000000000000000000000000000815260040180806020018281038252601e8152602001807f4669786564506f696e743a3a6672616374696f6e3a206f766572666c6f77000081525060200191505060405180910390fd5b6040518060200160405280827bffffffffffffffffffffffffffffffffffffffffffffffffffffffff168152509150506112bd565b60006111d6846e010000000000000000000000000000856112c3565b90507fffffffffffffffffffffffffffffffffffffffffffffffffffffffffffffffff7bffffffffffffffffffffffffffffffffffffffffffffffffffffffff1681111561128c576040517f08c379a000000000000000000000000000000000000000000000000000000000815260040180806020018281038252601e8152602001807f4669786564506f696e743a3a6672616374696f6e3a206f766572666c6f77000081525060200191505060405180910390fd5b6040518060200160405280827bffffffffffffffffffffffffffffffffffffffffffffffffffffffff168152509150505b92915050565b60008060006112d286866113a3565b91509150600084806112e057fe5b8688099050828111156112f4576001820391505b808303925060008214156113165784838161130b57fe5b04935050505061139c565b84821061138b576040517f08c379a000000000000000000000000000000000000000000000000000000000815260040180806020018281038252601a8152602001807f46756c6c4d6174683a2046554c4c4449565f4f564552464c4f5700000000000081525060200191505060405180910390fd5b6113968383876113f6565b93505050505b9392505050565b60008060007fffffffffffffffffffffffffffffffffffffffffffffffffffffffffffffffff806113d057fe5b848609905083850292508281039150828110156113ee576001820391505b509250929050565b600080826000038316905080838161140a57fe5b04925080858161141657fe5b049450600181826000038161142757fe5b04018402850194506000600190508084026002038102905080840260020381029050808402600203810290508084026002038102905080840260020381029050808402600203810290508084026002038102905080840260020381029050808602925050509392505050565b6040518060200160405280600081525090565b604051806020016040528060007bffffffffffffffffffffffffffffffffffffffffffffffffffffffff1681525090565b60008060006114e68585611632565b91509150858282604051602001808373ffffffffffffffffffffffffffffffffffffffff1673ffffffffffffffffffffffffffffffffffffffff1660601b81526014018273ffffffffffffffffffffffffffffffffffffffff1673ffffffffffffffffffffffffffffffffffffffff1660601b8152601401925050506040516020818303038152906040528051906020012060405160200180807fff000000000000000000000000000000000000000000000000000000000000008152506001018373ffffffffffffffffffffffffffffffffffffffff1673ffffffffffffffffffffffffffffffffffffffff1660601b8152601401828152602001807f96e8ac4277198ff8b6f785478aa9a39f403cb768dd02cbee326c3e7da348845f815250602001925050506040516020818303038152906040528051906020012060001c925050509392505050565b6000808273ffffffffffffffffffffffffffffffffffffffff168473ffffffffffffffffffffffffffffffffffffffff1614156116ba576040517f08c379a00000000000000000000000000000000000000000000000000000000081526004018080602001828103825260258152602001806117aa6025913960400191505060405180910390fd5b8273ffffffffffffffffffffffffffffffffffffffff168473ffffffffffffffffffffffffffffffffffffffff16106116f45782846116f7565b83835b8092508193505050600073ffffffffffffffffffffffffffffffffffffffff168273ffffffffffffffffffffffffffffffffffffffff1614156117a2576040517f08c379a000000000000000000000000000000000000000000000000000000000815260040180806020018281038252601e8152602001807f556e697377617056324c6962726172793a205a45524f5f41444452455353000081525060200191505060405180910390fd5b925092905056fe556e697377617056324c6962726172793a204944454e544943414c5f4144445245535345534669786564506f696e743a3a6672616374696f6e3a206469766973696f6e206279207a65726fa2646970667358221220d2920b022280cb85035dd4c201def231cd0ba88b4c27d85d3e7488eb98d89fa064736f6c63430006060033556e697377617056324c6962726172793a204944454e544943414c5f414444524553534553",
  "immutableReferences": {
    "3491": [
      {
        "length": 32,
        "start": 2417
      }
    ],
    "3493": [
      {
        "length": 32,
        "start": 764
      },
      {
        "length": 32,
        "start": 880
      },
      {
        "length": 32,
        "start": 1597
      }
    ],
    "3495": [
      {
        "length": 32,
        "start": 1206
      },
      {
        "length": 32,
        "start": 1857
      },
      {
        "length": 32,
        "start": 2373
      }
    ]
  },
  "source": "pragma solidity =0.6.6;\r\n\r\n// a library for performing overflow-safe math, courtesy of DappHub (https://github.com/dapphub/ds-math)\r\nlibrary SafeMath {\r\n    function add(uint x, uint y) internal pure returns (uint z) {\r\n        require((z = x + y) >= x, 'ds-math-add-overflow');\r\n    }\r\n\r\n    function sub(uint x, uint y) internal pure returns (uint z) {\r\n        require((z = x - y) <= x, 'ds-math-sub-underflow');\r\n    }\r\n\r\n    function mul(uint x, uint y) internal pure returns (uint z) {\r\n        require(y == 0 || (z = x * y) / y == x, 'ds-math-mul-overflow');\r\n    }\r\n}\r\n\r\ninterface IUniswapV2Pair {\r\n    event Approval(address indexed owner, address indexed spender, uint value);\r\n    event Transfer(address indexed from, address indexed to, uint value);\r\n\r\n    function name() external pure returns (string memory);\r\n    function symbol() external pure returns (string memory);\r\n    function decimals() external pure returns (uint8);\r\n    function totalSupply() external view returns (uint);\r\n    function balanceOf(address owner) external view returns (uint);\r\n    function allowance(address owner, address spender) external view returns (uint);\r\n\r\n    function approve(address spender, uint value) external returns (bool);\r\n    function transfer(address to, uint value) external returns (bool);\r\n    function transferFrom(address from, address to, uint value) external returns (bool);\r\n\r\n    function DOMAIN_SEPARATOR() external view returns (bytes32);\r\n    function PERMIT_TYPEHASH() external pure returns (bytes32);\r\n    function nonces(address owner) external view returns (uint);\r\n\r\n    function permit(address owner, address spender, uint value, uint deadline, uint8 v, bytes32 r, bytes32 s) external;\r\n\r\n    event Mint(address indexed sender, uint amount0, uint amount1);\r\n    event Burn(address indexed sender, uint amount0, uint amount1, address indexed to);\r\n    event Swap(\r\n        address indexed sender,\r\n        uint amount0In,\r\n        uint amount1In,\r\n        uint amount0Out,\r\n        uint amount1Out,\r\n        address indexed to\r\n    );\r\n    event Sync(uint112 reserve0, uint112 reserve1);\r\n\r\n    function MINIMUM_LIQUIDITY() external pure returns (uint);\r\n    function factory() external view returns (address);\r\n    function token0() external view returns (address);\r\n    function token1() external view returns (address);\r\n    function getReserves() external view returns (uint112 reserve0, uint112 reserve1, uint32 blockTimestampLast);\r\n    function price0CumulativeLast() external view returns (uint);\r\n    function price1CumulativeLast() external view returns (uint);\r\n    function kLast() external view returns (uint);\r\n\r\n    function mint(address to) external returns (uint liquidity);\r\n    function burn(address to) external returns (uint amount0, uint amount1);\r\n    function swap(uint amount0Out, uint amount1Out, address to, bytes calldata data) external;\r\n    function skim(address to) external;\r\n    function sync() external;\r\n\r\n    function initialize(address, address) external;\r\n}\r\n\r\ninterface IUniswapV2Factory {\r\n    event PairCreated(address indexed token0, address indexed token1, address pair, uint);\r\n\r\n    function feeTo() external view returns (address);\r\n    function feeToSetter() external view returns (address);\r\n\r\n    function getPair(address tokenA, address tokenB) external view returns (address pair);\r\n    function allPairs(uint) external view returns (address pair);\r\n    function allPairsLength() external view returns (uint);\r\n\r\n    function createPair(address tokenA, address tokenB) external returns (address pair);\r\n\r\n    function setFeeTo(address) external;\r\n    function setFeeToSetter(address) external;\r\n}\r\n\r\n// taken from https://medium.com/coinmonks/math-in-solidity-part-3-percents-and-proportions-4db014e080b1\r\n// license is CC-BY-4.0\r\nlibrary FullMath {\r\n    function fullMul(uint256 x, uint256 y) internal pure returns (uint256 l, uint256 h) {\r\n        uint256 mm = mulmod(x, y, uint256(-1));\r\n        l = x * y;\r\n        h = mm - l;\r\n        if (mm < l) h -= 1;\r\n    }\r\n\r\n    function fullDiv(\r\n        uint256 l,\r\n        uint256 h,\r\n        uint256 d\r\n    ) private pure returns (uint256) {\r\n        uint256 pow2 = d & -d;\r\n        d /= pow2;\r\n        l /= pow2;\r\n        l += h * ((-pow2) / pow2 + 1);\r\n        uint256 r = 1;\r\n        r *= 2 - d * r;\r\n        r *= 2 - d * r;\r\n        r *= 2 - d * r;\r\n        r *= 2 - d * r;\r\n        r *= 2 - d * r;\r\n        r *= 2 - d * r;\r\n        r *= 2 - d * r;\r\n        r *= 2 - d * r;\r\n        return l * r;\r\n    }\r\n\r\n    function mulDiv(\r\n        uint256 x,\r\n        uint256 y,\r\n        uint256 d\r\n    ) internal pure returns (uint256) {\r\n        (uint256 l, uint256 h) = fullMul(x, y);\r\n\r\n        uint256 mm = mulmod(x, y, d);\r\n        if (mm > l) h -= 1;\r\n        l -= mm;\r\n\r\n        if (h == 0) return l / d;\r\n\r\n        require(h < d, 'FullMath: FULLDIV_OVERFLOW');\r\n        return fullDiv(l, h, d);\r\n    }\r\n}\r\n\r\n\r\n// computes square roots using the babylonian method\r\n// https://en.wikipedia.org/wiki/Methods_of_computing_square_roots#Babylonian_method\r\nlibrary Babylonian {\r\n    // credit for this implementation goes to\r\n    // https://github.com/abdk-consulting/abdk-libraries-solidity/blob/master/ABDKMath64x64.sol#L687\r\n    function sqrt(uint256 x) internal pure returns (uint256) {\r\n        if (x == 0) return 0;\r\n        // this block is equivalent to r = uint256(1) << (BitMath.mostSignificantBit(x) / 2);\r\n        // however that code costs significantly more gas\r\n        uint256 xx = x;\r\n        uint256 r = 1;\r\n        if (xx >= 0x100000000000000000000000000000000) {\r\n            xx >>= 128;\r\n            r <<= 64;\r\n        }\r\n        if (xx >= 0x10000000000000000) {\r\n            xx >>= 64;\r\n            r <<= 32;\r\n        }\r\n        if (xx >= 0x100000000) {\r\n            xx >>= 32;\r\n            r <<= 16;\r\n        }\r\n        if (xx >= 0x10000) {\r\n            xx >>= 16;\r\n            r <<= 8;\r\n        }\r\n        if (xx >= 0x100) {\r\n            xx >>= 8;\r\n            r <<= 4;\r\n        }\r\n        if (xx >= 0x10) {\r\n            xx >>= 4;\r\n            r <<= 2;\r\n        }\r\n        if (xx >= 0x8) {\r\n            r <<= 1;\r\n        }\r\n        r = (r + x / r) >> 1;\r\n        r = (r + x / r) >> 1;\r\n        r = (r + x / r) >> 1;\r\n        r = (r + x / r) >> 1;\r\n        r = (r + x / r) >> 1;\r\n        r = (r + x / r) >> 1;\r\n        r = (r + x / r) >> 1; // Seven iterations should be enough\r\n        uint256 r1 = x / r;\r\n        return (r < r1 ? r : r1);\r\n    }\r\n}\r\n\r\n\r\nlibrary BitMath {\r\n    // returns the 0 indexed position of the most significant bit of the input x\r\n    // s.t. x >= 2**msb and x < 2**(msb+1)\r\n    function mostSignificantBit(uint256 x) internal pure returns (uint8 r) {\r\n        require(x > 0, 'BitMath::mostSignificantBit: zero');\r\n\r\n        if (x >= 0x100000000000000000000000000000000) {\r\n            x >>= 128;\r\n            r += 128;\r\n        }\r\n        if (x >= 0x10000000000000000) {\r\n            x >>= 64;\r\n            r += 64;\r\n        }\r\n        if (x >= 0x100000000) {\r\n            x >>= 32;\r\n            r += 32;\r\n        }\r\n        if (x >= 0x10000) {\r\n            x >>= 16;\r\n            r += 16;\r\n        }\r\n        if (x >= 0x100) {\r\n            x >>= 8;\r\n            r += 8;\r\n        }\r\n        if (x >= 0x10) {\r\n            x >>= 4;\r\n            r += 4;\r\n        }\r\n        if (x >= 0x4) {\r\n            x >>= 2;\r\n            r += 2;\r\n        }\r\n        if (x >= 0x2) r += 1;\r\n    }\r\n\r\n    // returns the 0 indexed position of the least significant bit of the input x\r\n    // s.t. (x & 2**lsb) != 0 and (x & (2**(lsb) - 1)) == 0)\r\n    // i.e. the bit at the index is set and the mask of all lower bits is 0\r\n    function leastSignificantBit(uint256 x) internal pure returns (uint8 r) {\r\n        require(x > 0, 'BitMath::leastSignificantBit: zero');\r\n\r\n        r = 255;\r\n        if (x & uint128(-1) > 0) {\r\n            r -= 128;\r\n        } else {\r\n            x >>= 128;\r\n        }\r\n        if (x & uint64(-1) > 0) {\r\n            r -= 64;\r\n        } else {\r\n            x >>= 64;\r\n        }\r\n        if (x & uint32(-1) > 0) {\r\n            r -= 32;\r\n        } else {\r\n            x >>= 32;\r\n        }\r\n        if (x & uint16(-1) > 0) {\r\n            r -= 16;\r\n        } else {\r\n            x >>= 16;\r\n        }\r\n        if (x & uint8(-1) > 0) {\r\n            r -= 8;\r\n        } else {\r\n            x >>= 8;\r\n        }\r\n        if (x & 0xf > 0) {\r\n            r -= 4;\r\n        } else {\r\n            x >>= 4;\r\n        }\r\n        if (x & 0x3 > 0) {\r\n            r -= 2;\r\n        } else {\r\n            x >>= 2;\r\n        }\r\n        if (x & 0x1 > 0) r -= 1;\r\n    }\r\n}\r\n\r\n\r\n// a library for handling binary fixed point numbers (https://en.wikipedia.org/wiki/Q_(number_format))\r\nlibrary FixedPoint {\r\n    // range: [0, 2**112 - 1]\r\n    // resolution: 1 / 2**112\r\n    struct uq112x112 {\r\n        uint224 _x;\r\n    }\r\n\r\n    // range: [0, 2**144 - 1]\r\n    // resolution: 1 / 2**112\r\n    struct uq144x112 {\r\n        uint256 _x;\r\n    }\r\n\r\n    uint8 public constant RESOLUTION = 112;\r\n    uint256 public constant Q112 = 0x10000000000000000000000000000; // 2**112\r\n    uint256 private constant Q224 = 0x100000000000000000000000000000000000000000000000000000000; // 2**224\r\n    uint256 private constant LOWER_MASK = 0xffffffffffffffffffffffffffff; // decimal of UQ*x112 (lower 112 bits)\r\n\r\n    // encode a uint112 as a UQ112x112\r\n    function encode(uint112 x) internal pure returns (uq112x112 memory) {\r\n        return uq112x112(uint224(x) << RESOLUTION);\r\n    }\r\n\r\n    // encodes a uint144 as a UQ144x112\r\n    function encode144(uint144 x) internal pure returns (uq144x112 memory) {\r\n        return uq144x112(uint256(x) << RESOLUTION);\r\n    }\r\n\r\n    // decode a UQ112x112 into a uint112 by truncating after the radix point\r\n    function decode(uq112x112 memory self) internal pure returns (uint112) {\r\n        return uint112(self._x >> RESOLUTION);\r\n    }\r\n\r\n    // decode a UQ144x112 into a uint144 by truncating after the radix point\r\n    function decode144(uq144x112 memory self) internal pure returns (uint144) {\r\n        return uint144(self._x >> RESOLUTION);\r\n    }\r\n\r\n    // multiply a UQ112x112 by a uint, returning a UQ144x112\r\n    // reverts on overflow\r\n    function mul(uq112x112 memory self, uint256 y) internal pure returns (uq144x112 memory) {\r\n        uint256 z = 0;\r\n        require(y == 0 || (z = self._x * y) / y == self._x, 'FixedPoint::mul: overflow');\r\n        return uq144x112(z);\r\n    }\r\n\r\n    // multiply a UQ112x112 by an int and decode, returning an int\r\n    // reverts on overflow\r\n    function muli(uq112x112 memory self, int256 y) internal pure returns (int256) {\r\n        uint256 z = FullMath.mulDiv(self._x, uint256(y < 0 ? -y : y), Q112);\r\n        require(z < 2**255, 'FixedPoint::muli: overflow');\r\n        return y < 0 ? -int256(z) : int256(z);\r\n    }\r\n\r\n    // multiply a UQ112x112 by a UQ112x112, returning a UQ112x112\r\n    // lossy\r\n    function muluq(uq112x112 memory self, uq112x112 memory other) internal pure returns (uq112x112 memory) {\r\n        if (self._x == 0 || other._x == 0) {\r\n            return uq112x112(0);\r\n        }\r\n        uint112 upper_self = uint112(self._x >> RESOLUTION); // * 2^0\r\n        uint112 lower_self = uint112(self._x & LOWER_MASK); // * 2^-112\r\n        uint112 upper_other = uint112(other._x >> RESOLUTION); // * 2^0\r\n        uint112 lower_other = uint112(other._x & LOWER_MASK); // * 2^-112\r\n\r\n        // partial products\r\n        uint224 upper = uint224(upper_self) * upper_other; // * 2^0\r\n        uint224 lower = uint224(lower_self) * lower_other; // * 2^-224\r\n        uint224 uppers_lowero = uint224(upper_self) * lower_other; // * 2^-112\r\n        uint224 uppero_lowers = uint224(upper_other) * lower_self; // * 2^-112\r\n\r\n        // so the bit shift does not overflow\r\n        require(upper <= uint112(-1), 'FixedPoint::muluq: upper overflow');\r\n\r\n        // this cannot exceed 256 bits, all values are 224 bits\r\n        uint256 sum = uint256(upper << RESOLUTION) + uppers_lowero + uppero_lowers + (lower >> RESOLUTION);\r\n\r\n        // so the cast does not overflow\r\n        require(sum <= uint224(-1), 'FixedPoint::muluq: sum overflow');\r\n\r\n        return uq112x112(uint224(sum));\r\n    }\r\n\r\n    // divide a UQ112x112 by a UQ112x112, returning a UQ112x112\r\n    function divuq(uq112x112 memory self, uq112x112 memory other) internal pure returns (uq112x112 memory) {\r\n        require(other._x > 0, 'FixedPoint::divuq: division by zero');\r\n        if (self._x == other._x) {\r\n            return uq112x112(uint224(Q112));\r\n        }\r\n        if (self._x <= uint144(-1)) {\r\n            uint256 value = (uint256(self._x) << RESOLUTION) / other._x;\r\n            require(value <= uint224(-1), 'FixedPoint::divuq: overflow');\r\n            return uq112x112(uint224(value));\r\n        }\r\n\r\n        uint256 result = FullMath.mulDiv(Q112, self._x, other._x);\r\n        require(result <= uint224(-1), 'FixedPoint::divuq: overflow');\r\n        return uq112x112(uint224(result));\r\n    }\r\n\r\n    // returns a UQ112x112 which represents the ratio of the numerator to the denominator\r\n    // can be lossy\r\n    function fraction(uint256 numerator, uint256 denominator) internal pure returns (uq112x112 memory) {\r\n        require(denominator > 0, 'FixedPoint::fraction: division by zero');\r\n        if (numerator == 0) return FixedPoint.uq112x112(0);\r\n\r\n        if (numerator <= uint144(-1)) {\r\n            uint256 result = (numerator << RESOLUTION) / denominator;\r\n            require(result <= uint224(-1), 'FixedPoint::fraction: overflow');\r\n            return uq112x112(uint224(result));\r\n        } else {\r\n            uint256 result = FullMath.mulDiv(numerator, Q112, denominator);\r\n            require(result <= uint224(-1), 'FixedPoint::fraction: overflow');\r\n            return uq112x112(uint224(result));\r\n        }\r\n    }\r\n\r\n    // take the reciprocal of a UQ112x112\r\n    // reverts on overflow\r\n    // lossy\r\n    function reciprocal(uq112x112 memory self) internal pure returns (uq112x112 memory) {\r\n        require(self._x != 0, 'FixedPoint::reciprocal: reciprocal of zero');\r\n        require(self._x != 1, 'FixedPoint::reciprocal: overflow');\r\n        return uq112x112(uint224(Q224 / self._x));\r\n    }\r\n\r\n    // square root of a UQ112x112\r\n    // lossy between 0/1 and 40 bits\r\n    function sqrt(uq112x112 memory self) internal pure returns (uq112x112 memory) {\r\n        if (self._x <= uint144(-1)) {\r\n            return uq112x112(uint224(Babylonian.sqrt(uint256(self._x) << 112)));\r\n        }\r\n\r\n        uint8 safeShiftBits = 255 - BitMath.mostSignificantBit(self._x);\r\n        safeShiftBits -= safeShiftBits % 2;\r\n        return uq112x112(uint224(Babylonian.sqrt(uint256(self._x) << safeShiftBits) << ((112 - safeShiftBits) / 2)));\r\n    }\r\n}\r\n\r\n// library with helper methods for oracles that are concerned with computing average prices\r\nlibrary UniswapV2OracleLibrary {\r\n    using FixedPoint for *;\r\n\r\n    // helper function that returns the current block timestamp within the range of uint32, i.e. [0, 2**32 - 1]\r\n    function currentBlockTimestamp() internal view returns (uint32) {\r\n        return uint32(block.timestamp % 2 ** 32);\r\n    }\r\n\r\n    // produces the cumulative price using counterfactuals to save gas and avoid a call to sync.\r\n    function currentCumulativePrices(\r\n        address pair\r\n    ) internal view returns (uint price0Cumulative, uint price1Cumulative, uint32 blockTimestamp) {\r\n        blockTimestamp = currentBlockTimestamp();\r\n        price0Cumulative = IUniswapV2Pair(pair).price0CumulativeLast();\r\n        price1Cumulative = IUniswapV2Pair(pair).price1CumulativeLast();\r\n\r\n        // if time has elapsed since the last update on the pair, mock the accumulated price values\r\n        (uint112 reserve0, uint112 reserve1, uint32 blockTimestampLast) = IUniswapV2Pair(pair).getReserves();\r\n        if (blockTimestampLast != blockTimestamp) {\r\n            // subtraction overflow is desired\r\n            uint32 timeElapsed = blockTimestamp - blockTimestampLast;\r\n            // addition overflow is desired\r\n            // counterfactual\r\n            price0Cumulative += uint(FixedPoint.fraction(reserve1, reserve0)._x) * timeElapsed;\r\n            // counterfactual\r\n            price1Cumulative += uint(FixedPoint.fraction(reserve0, reserve1)._x) * timeElapsed;\r\n        }\r\n    }\r\n}\r\n\r\nlibrary UniswapV2Library {\r\n    using SafeMath for uint;\r\n\r\n    // returns sorted token addresses, used to handle return values from pairs sorted in this order\r\n    function sortTokens(address tokenA, address tokenB) internal pure returns (address token0, address token1) {\r\n        require(tokenA != tokenB, 'UniswapV2Library: IDENTICAL_ADDRESSES');\r\n        (token0, token1) = tokenA < tokenB ? (tokenA, tokenB) : (tokenB, tokenA);\r\n        require(token0 != address(0), 'UniswapV2Library: ZERO_ADDRESS');\r\n    }\r\n\r\n    // calculates the CREATE2 address for a pair without making any external calls\r\n    function pairFor(address factory, address tokenA, address tokenB) internal pure returns (address pair) {\r\n        (address token0, address token1) = sortTokens(tokenA, tokenB);\r\n        pair = address(uint(keccak256(abi.encodePacked(\r\n                hex'ff',\r\n                factory,\r\n                keccak256(abi.encodePacked(token0, token1)),\r\n                hex'96e8ac4277198ff8b6f785478aa9a39f403cb768dd02cbee326c3e7da348845f' // init code hash\r\n            ))));\r\n    }\r\n\r\n    // fetches and sorts the reserves for a pair\r\n    function getReserves(address factory, address tokenA, address tokenB) internal view returns (uint reserveA, uint reserveB) {\r\n        (address token0,) = sortTokens(tokenA, tokenB);\r\n        (uint reserve0, uint reserve1,) = IUniswapV2Pair(pairFor(factory, tokenA, tokenB)).getReserves();\r\n        (reserveA, reserveB) = tokenA == token0 ? (reserve0, reserve1) : (reserve1, reserve0);\r\n    }\r\n\r\n    // given some amount of an asset and pair reserves, returns an equivalent amount of the other asset\r\n    function quote(uint amountA, uint reserveA, uint reserveB) internal pure returns (uint amountB) {\r\n        require(amountA > 0, 'UniswapV2Library: INSUFFICIENT_AMOUNT');\r\n        require(reserveA > 0 && reserveB > 0, 'UniswapV2Library: INSUFFICIENT_LIQUIDITY');\r\n        amountB = amountA.mul(reserveB) / reserveA;\r\n    }\r\n\r\n    // given an input amount of an asset and pair reserves, returns the maximum output amount of the other asset\r\n    function getAmountOut(uint amountIn, uint reserveIn, uint reserveOut) internal pure returns (uint amountOut) {\r\n        require(amountIn > 0, 'UniswapV2Library: INSUFFICIENT_INPUT_AMOUNT');\r\n        require(reserveIn > 0 && reserveOut > 0, 'UniswapV2Library: INSUFFICIENT_LIQUIDITY');\r\n        uint amountInWithFee = amountIn.mul(997);\r\n        uint numerator = amountInWithFee.mul(reserveOut);\r\n        uint denominator = reserveIn.mul(1000).add(amountInWithFee);\r\n        amountOut = numerator / denominator;\r\n    }\r\n\r\n    // given an output amount of an asset and pair reserves, returns a required input amount of the other asset\r\n    function getAmountIn(uint amountOut, uint reserveIn, uint reserveOut) internal pure returns (uint amountIn) {\r\n        require(amountOut > 0, 'UniswapV2Library: INSUFFICIENT_OUTPUT_AMOUNT');\r\n        require(reserveIn > 0 && reserveOut > 0, 'UniswapV2Library: INSUFFICIENT_LIQUIDITY');\r\n        uint numerator = reserveIn.mul(amountOut).mul(1000);\r\n        uint denominator = reserveOut.sub(amountOut).mul(997);\r\n        amountIn = (numerator / denominator).add(1);\r\n    }\r\n\r\n    // performs chained getAmountOut calculations on any number of pairs\r\n    function getAmountsOut(address factory, uint amountIn, address[] memory path) internal view returns (uint[] memory amounts) {\r\n        require(path.length >= 2, 'UniswapV2Library: INVALID_PATH');\r\n        amounts = new uint[](path.length);\r\n        amounts[0] = amountIn;\r\n        for (uint i; i < path.length - 1; i++) {\r\n            (uint reserveIn, uint reserveOut) = getReserves(factory, path[i], path[i + 1]);\r\n            amounts[i + 1] = getAmountOut(amounts[i], reserveIn, reserveOut);\r\n        }\r\n    }\r\n\r\n    // performs chained getAmountIn calculations on any number of pairs\r\n    function getAmountsIn(address factory, uint amountOut, address[] memory path) internal view returns (uint[] memory amounts) {\r\n        require(path.length >= 2, 'UniswapV2Library: INVALID_PATH');\r\n        amounts = new uint[](path.length);\r\n        amounts[amounts.length - 1] = amountOut;\r\n        for (uint i = path.length - 1; i > 0; i--) {\r\n            (uint reserveIn, uint reserveOut) = getReserves(factory, path[i - 1], path[i]);\r\n            amounts[i - 1] = getAmountIn(amounts[i], reserveIn, reserveOut);\r\n        }\r\n    }\r\n}\r\n\r\n// fixed window oracle that recomputes the average price for the entire period once every period\r\n// note that the price average is only guaranteed to be over at least 1 period, but may be over a longer period\r\ncontract Oracle {\r\n    using SafeMath for uint;\r\n    using FixedPoint for *;\r\n\r\n    uint public constant PERIOD = 24 hours;\r\n\r\n    IUniswapV2Pair immutable pair;\r\n    address public immutable token0;\r\n    address public immutable token1;\r\n    address internal usdc = 0x1b3924f88A5ee1D9C86b97dce55d99d4B22dB569;\r\n\r\n    uint    public price0CumulativeLast;\r\n    uint    public price1CumulativeLast;\r\n    uint32  public blockTimestampLast;\r\n    FixedPoint.uq112x112 public price0Average;\r\n    FixedPoint.uq112x112 public price1Average;\r\n\r\n    constructor(address factory, address tokenA, address tokenB) public {\r\n        IUniswapV2Pair _pair = IUniswapV2Pair(UniswapV2Library.pairFor(factory, tokenA, tokenB));\r\n        pair = _pair;\r\n        token0 = _pair.token0();\r\n        token1 = _pair.token1();\r\n        price0CumulativeLast = _pair.price0CumulativeLast(); // fetch the current accumulated price value (1 / 0)\r\n        price1CumulativeLast = _pair.price1CumulativeLast(); // fetch the current accumulated price value (0 / 1)\r\n        uint112 reserve0;\r\n        uint112 reserve1;\r\n        (reserve0, reserve1, blockTimestampLast) = _pair.getReserves();\r\n        require(reserve0 != 0 && reserve1 != 0, 'OraclePrice: NO_RESERVES'); // ensure that there's liquidity in the pair\r\n    }\r\n\r\n    function update() internal {\r\n        (uint price0Cumulative, uint price1Cumulative, uint32 blockTimestamp) =\r\n            UniswapV2OracleLibrary.currentCumulativePrices(address(pair));\r\n        uint32 timeElapsed = blockTimestamp - blockTimestampLast; // overflow is desired\r\n\r\n        // ensure that at least one full period has passed since the last update\r\n        require(timeElapsed >= PERIOD, 'OraclePrice: PERIOD_NOT_ELAPSED');\r\n\r\n        // overflow is desired, casting never truncates\r\n        // cumulative price is in (uq112x112 price * seconds) units so we simply wrap it after division by time elapsed\r\n        price0Average = FixedPoint.uq112x112(uint224((price0Cumulative - price0CumulativeLast) / timeElapsed));\r\n        price1Average = FixedPoint.uq112x112(uint224((price1Cumulative - price1CumulativeLast) / timeElapsed));\r\n\r\n        price0CumulativeLast = price0Cumulative;\r\n        price1CumulativeLast = price1Cumulative;\r\n        blockTimestampLast = blockTimestamp;\r\n    }\r\n    \r\n    function getData() external returns (uint amountOut, bool status) {\r\n        update();\r\n        uint price = 10**18;\r\n        if (token0 != usdc) {\r\n            price = price0Average.mul(10**18).decode144();\r\n            price = price.mul(10**12);\r\n        } else {\r\n            require(token1 != usdc, 'OraclePrice: INVALID_TOKEN');\r\n            price = price1Average.mul(10**18).decode144();\r\n            price = price.mul(10**12);\r\n        }\r\n        \r\n        return (price, true);\r\n    }\r\n\r\n    // note this will always return 0 before update has been called successfully for the first time.\r\n    function consult(address token, uint amountIn) external view returns (uint amountOut) {\r\n        if (token == token0) {\r\n            amountOut = price0Average.mul(amountIn).decode144();\r\n        } else {\r\n            require(token == token1, 'OraclePrice: INVALID_TOKEN');\r\n            amountOut = price1Average.mul(amountIn).decode144();\r\n        }\r\n    }\r\n}",
  "sourcePath": "F:\\Projects\\Hitesh\\Oms\\contracts\\v6\\Oracle.sol",
  "compiler": {
    "name": "solc",
    "version": "0.6.6+commit.6c089d02.Emscripten.clang"
  },
  "schemaVersion": "3.2.2-next.0",
  "updatedAt": "2021-03-03T19:21:09.679Z",
  "devdoc": {
    "methods": {}
  },
  "userdoc": {
    "methods": {}
  }
}