{
  "contractName": "Orchestrator",
  "abi": [
    {
      "constant": true,
      "inputs": [],
      "name": "policy",
      "outputs": [
        {
          "name": "",
          "type": "address"
        }
      ],
      "payable": false,
      "stateMutability": "view",
      "type": "function"
    },
    {
      "constant": false,
      "inputs": [],
      "name": "renounceOwnership",
      "outputs": [],
      "payable": false,
      "stateMutability": "nonpayable",
      "type": "function"
    },
    {
      "constant": true,
      "inputs": [],
      "name": "owner",
      "outputs": [
        {
          "name": "",
          "type": "address"
        }
      ],
      "payable": false,
      "stateMutability": "view",
      "type": "function"
    },
    {
      "constant": true,
      "inputs": [],
      "name": "isOwner",
      "outputs": [
        {
          "name": "",
          "type": "bool"
        }
      ],
      "payable": false,
      "stateMutability": "view",
      "type": "function"
    },
    {
      "constant": true,
      "inputs": [
        {
          "name": "",
          "type": "uint256"
        }
      ],
      "name": "transactions",
      "outputs": [
        {
          "name": "enabled",
          "type": "bool"
        },
        {
          "name": "destination",
          "type": "address"
        },
        {
          "name": "data",
          "type": "bytes"
        }
      ],
      "payable": false,
      "stateMutability": "view",
      "type": "function"
    },
    {
      "constant": false,
      "inputs": [
        {
          "name": "sender",
          "type": "address"
        }
      ],
      "name": "initialize",
      "outputs": [],
      "payable": false,
      "stateMutability": "nonpayable",
      "type": "function"
    },
    {
      "constant": false,
      "inputs": [
        {
          "name": "newOwner",
          "type": "address"
        }
      ],
      "name": "transferOwnership",
      "outputs": [],
      "payable": false,
      "stateMutability": "nonpayable",
      "type": "function"
    },
    {
      "inputs": [
        {
          "name": "policy_",
          "type": "address"
        }
      ],
      "payable": false,
      "stateMutability": "nonpayable",
      "type": "constructor"
    },
    {
      "anonymous": false,
      "inputs": [
        {
          "indexed": true,
          "name": "destination",
          "type": "address"
        },
        {
          "indexed": false,
          "name": "index",
          "type": "uint256"
        },
        {
          "indexed": false,
          "name": "data",
          "type": "bytes"
        }
      ],
      "name": "TransactionFailed",
      "type": "event"
    },
    {
      "anonymous": false,
      "inputs": [
        {
          "indexed": true,
          "name": "previousOwner",
          "type": "address"
        }
      ],
      "name": "OwnershipRenounced",
      "type": "event"
    },
    {
      "anonymous": false,
      "inputs": [
        {
          "indexed": true,
          "name": "previousOwner",
          "type": "address"
        },
        {
          "indexed": true,
          "name": "newOwner",
          "type": "address"
        }
      ],
      "name": "OwnershipTransferred",
      "type": "event"
    },
    {
      "constant": false,
      "inputs": [],
      "name": "rebase",
      "outputs": [],
      "payable": false,
      "stateMutability": "nonpayable",
      "type": "function"
    },
    {
      "constant": false,
      "inputs": [
        {
          "name": "destination",
          "type": "address"
        },
        {
          "name": "data",
          "type": "bytes"
        }
      ],
      "name": "addTransaction",
      "outputs": [],
      "payable": false,
      "stateMutability": "nonpayable",
      "type": "function"
    },
    {
      "constant": false,
      "inputs": [
        {
          "name": "index",
          "type": "uint256"
        }
      ],
      "name": "removeTransaction",
      "outputs": [],
      "payable": false,
      "stateMutability": "nonpayable",
      "type": "function"
    },
    {
      "constant": false,
      "inputs": [
        {
          "name": "index",
          "type": "uint256"
        },
        {
          "name": "enabled",
          "type": "bool"
        }
      ],
      "name": "setTransactionEnabled",
      "outputs": [],
      "payable": false,
      "stateMutability": "nonpayable",
      "type": "function"
    },
    {
      "constant": true,
      "inputs": [],
      "name": "transactionsSize",
      "outputs": [
        {
          "name": "",
          "type": "uint256"
        }
      ],
      "payable": false,
      "stateMutability": "view",
      "type": "function"
    }
  ],
  "bytecode": "0x608060405234801561001057600080fd5b5060405160208061153a8339810180604052810190808051906020019092919050505061004f3361009664010000000002610df8176401000000009004565b80606760006101000a81548173ffffffffffffffffffffffffffffffffffffffff021916908373ffffffffffffffffffffffffffffffffffffffff1602179055505061022d565b60008060019054906101000a900460ff16806100c557506100c461021c640100000000026401000000009004565b5b806100dc57506000809054906101000a900460ff16155b1515610176576040517f08c379a000000000000000000000000000000000000000000000000000000000815260040180806020018281038252602e8152602001807f436f6e747261637420696e7374616e63652068617320616c726561647920626581526020017f656e20696e697469616c697a656400000000000000000000000000000000000081525060400191505060405180910390fd5b600060019054906101000a900460ff1690506001600060016101000a81548160ff02191690831515021790555060016000806101000a81548160ff02191690831515021790555081603360006101000a81548173ffffffffffffffffffffffffffffffffffffffff021916908373ffffffffffffffffffffffffffffffffffffffff16021790555080600060016101000a81548160ff0219169083151502179055505050565b600080303b90506000811491505090565b6112fe8061023c6000396000f3006080604052600436106100ba576000357c0100000000000000000000000000000000000000000000000000000000900463ffffffff1680630505c8c9146100bf578063126e19be1461011657806346c3bd1f146101715780636e9dde991461019e578063715018a6146101d75780638da5cb5b146101ee5780638f32d59b1461024557806391d4ec18146102745780639ace38c21461029f578063af14052c14610383578063c4d66de81461039a578063f2fde38b146103dd575b600080fd5b3480156100cb57600080fd5b506100d4610420565b604051808273ffffffffffffffffffffffffffffffffffffffff1673ffffffffffffffffffffffffffffffffffffffff16815260200191505060405180910390f35b34801561012257600080fd5b5061016f600480360381019080803573ffffffffffffffffffffffffffffffffffffffff169060200190929190803590602001908201803590602001919091929391929390505050610446565b005b34801561017d57600080fd5b5061019c60048036038101908080359060200190929190505050610579565b005b3480156101aa57600080fd5b506101d560048036038101908080359060200190929190803515159060200190929190505050610733565b005b3480156101e357600080fd5b506101ec610824565b005b3480156101fa57600080fd5b506102036108e0565b604051808273ffffffffffffffffffffffffffffffffffffffff1673ffffffffffffffffffffffffffffffffffffffff16815260200191505060405180910390f35b34801561025157600080fd5b5061025a61090a565b604051808215151515815260200191505060405180910390f35b34801561028057600080fd5b50610289610962565b6040518082815260200191505060405180910390f35b3480156102ab57600080fd5b506102ca6004803603810190808035906020019092919050505061096f565b60405180841515151581526020018373ffffffffffffffffffffffffffffffffffffffff1673ffffffffffffffffffffffffffffffffffffffff16815260200180602001828103825283818151815260200191508051906020019080838360005b8381101561034657808201518184015260208101905061032b565b50505050905090810190601f1680156103735780820380516001836020036101000a031916815260200191505b5094505050505060405180910390f35b34801561038f57600080fd5b50610398610a6d565b005b3480156103a657600080fd5b506103db600480360381019080803573ffffffffffffffffffffffffffffffffffffffff169060200190929190505050610df8565b005b3480156103e957600080fd5b5061041e600480360381019080803573ffffffffffffffffffffffffffffffffffffffff169060200190929190505050610f6f565b005b606760009054906101000a900473ffffffffffffffffffffffffffffffffffffffff1681565b61044e61090a565b151561045957600080fd5b60666060604051908101604052806001151581526020018573ffffffffffffffffffffffffffffffffffffffff16815260200184848080601f0160208091040260200160405190810160405280939291908181526020018383808284378201915050505050508152509080600181540180825580915050906001820390600052602060002090600202016000909192909190915060008201518160000160006101000a81548160ff02191690831515021790555060208201518160000160016101000a81548173ffffffffffffffffffffffffffffffffffffffff021916908373ffffffffffffffffffffffffffffffffffffffff16021790555060408201518160010190805190602001906105709291906110c2565b50505050505050565b61058161090a565b151561058c57600080fd5b60668054905081101515610608576040517f08c379a00000000000000000000000000000000000000000000000000000000081526004018080602001828103825260138152602001807f696e646578206f7574206f6620626f756e64730000000000000000000000000081525060200191505060405180910390fd5b60016066805490500381101561071a57606660016066805490500381548110151561062f57fe5b906000526020600020906002020160668281548110151561064c57fe5b90600052602060002090600202016000820160009054906101000a900460ff168160000160006101000a81548160ff0219169083151502179055506000820160019054906101000a900473ffffffffffffffffffffffffffffffffffffffff168160000160016101000a81548173ffffffffffffffffffffffffffffffffffffffff021916908373ffffffffffffffffffffffffffffffffffffffff16021790555060018201816001019080546001816001161561010002031660029004610715929190611142565b509050505b606680548091906001900361072f91906111c9565b5050565b61073b61090a565b151561074657600080fd5b606680549050821015156107e8576040517f08c379a00000000000000000000000000000000000000000000000000000000081526004018080602001828103825260288152602001807f696e646578206d75737420626520696e2072616e6765206f662073746f72656481526020017f207478206c69737400000000000000000000000000000000000000000000000081525060400191505060405180910390fd5b806066838154811015156107f857fe5b906000526020600020906002020160000160006101000a81548160ff0219169083151502179055505050565b61082c61090a565b151561083757600080fd5b603360009054906101000a900473ffffffffffffffffffffffffffffffffffffffff1673ffffffffffffffffffffffffffffffffffffffff167ff8df31144d9c2f0f6b59d69b8b98abd5459d07f2742c4df920b25aae33c6482060405160405180910390a26000603360006101000a81548173ffffffffffffffffffffffffffffffffffffffff021916908373ffffffffffffffffffffffffffffffffffffffff160217905550565b6000603360009054906101000a900473ffffffffffffffffffffffffffffffffffffffff16905090565b6000603360009054906101000a900473ffffffffffffffffffffffffffffffffffffffff1673ffffffffffffffffffffffffffffffffffffffff163373ffffffffffffffffffffffffffffffffffffffff1614905090565b6000606680549050905090565b60668181548110151561097e57fe5b90600052602060002090600202016000915090508060000160009054906101000a900460ff16908060000160019054906101000a900473ffffffffffffffffffffffffffffffffffffffff1690806001018054600181600116156101000203166002900480601f016020809104026020016040519081016040528092919081815260200182805460018160011615610100020316600290048015610a635780601f10610a3857610100808354040283529160200191610a63565b820191906000526020600020905b815481529060010190602001808311610a4657829003601f168201915b5050505050905083565b6000806000610a7a61090a565b1515610a8557600080fd5b3273ffffffffffffffffffffffffffffffffffffffff163373ffffffffffffffffffffffffffffffffffffffff16141515610abf57600080fd5b606760009054906101000a900473ffffffffffffffffffffffffffffffffffffffff1673ffffffffffffffffffffffffffffffffffffffff1663af14052c6040518163ffffffff167c0100000000000000000000000000000000000000000000000000000000028152600401600060405180830381600087803b158015610b4557600080fd5b505af1158015610b59573d6000803e3d6000fd5b50505050600092505b606680549050831015610df357606683815481101515610b7e57fe5b906000526020600020906002020191508160000160009054906101000a900460ff1615610de657610c6f8260000160019054906101000a900473ffffffffffffffffffffffffffffffffffffffff16836001018054600181600116156101000203166002900480601f016020809104026020016040519081016040528092919081815260200182805460018160011615610100020316600290048015610c655780601f10610c3a57610100808354040283529160200191610c65565b820191906000526020600020905b815481529060010190602001808311610c4857829003601f168201915b5050505050610f8e565b9050801515610de5578160000160019054906101000a900473ffffffffffffffffffffffffffffffffffffffff1673ffffffffffffffffffffffffffffffffffffffff167f8091ecaaa54ebb82e02d36c2c336528e0fcb9b3430fc1291ac88295032b9c26384846001016040518083815260200180602001828103825283818154600181600116156101000203166002900481526020019150805460018160011615610100020316600290048015610d685780601f10610d3d57610100808354040283529160200191610d68565b820191906000526020600020905b815481529060010190602001808311610d4b57829003601f168201915b5050935050505060405180910390a26040517f08c379a00000000000000000000000000000000000000000000000000000000081526004018080602001828103825260128152602001807f5472616e73616374696f6e204661696c6564000000000000000000000000000081525060200191505060405180910390fd5b5b8280600101935050610b62565b505050565b60008060019054906101000a900460ff1680610e185750610e17610fb5565b5b80610e2f57506000809054906101000a900460ff16155b1515610ec9576040517f08c379a000000000000000000000000000000000000000000000000000000000815260040180806020018281038252602e8152602001807f436f6e747261637420696e7374616e63652068617320616c726561647920626581526020017f656e20696e697469616c697a656400000000000000000000000000000000000081525060400191505060405180910390fd5b600060019054906101000a900460ff1690506001600060016101000a81548160ff02191690831515021790555060016000806101000a81548160ff02191690831515021790555081603360006101000a81548173ffffffffffffffffffffffffffffffffffffffff021916908373ffffffffffffffffffffffffffffffffffffffff16021790555080600060016101000a81548160ff0219169083151502179055505050565b610f7761090a565b1515610f8257600080fd5b610f8b81610fc6565b50565b6000806040516020840160008286518360008a6187965a03f1925050508091505092915050565b600080303b90506000811491505090565b600073ffffffffffffffffffffffffffffffffffffffff168173ffffffffffffffffffffffffffffffffffffffff161415151561100257600080fd5b8073ffffffffffffffffffffffffffffffffffffffff16603360009054906101000a900473ffffffffffffffffffffffffffffffffffffffff1673ffffffffffffffffffffffffffffffffffffffff167f8be0079c531659141344cd1fd0a4f28419497f9722a3daafe3b4186f6b6457e060405160405180910390a380603360006101000a81548173ffffffffffffffffffffffffffffffffffffffff021916908373ffffffffffffffffffffffffffffffffffffffff16021790555050565b828054600181600116156101000203166002900490600052602060002090601f016020900481019282601f1061110357805160ff1916838001178555611131565b82800160010185558215611131579182015b82811115611130578251825591602001919060010190611115565b5b50905061113e91906111fb565b5090565b828054600181600116156101000203166002900490600052602060002090601f016020900481019282601f1061117b57805485556111b8565b828001600101855582156111b857600052602060002091601f016020900482015b828111156111b757825482559160010191906001019061119c565b5b5090506111c591906111fb565b5090565b8154818355818111156111f6576002028160020283600052602060002091820191016111f59190611220565b5b505050565b61121d91905b80821115611219576000816000905550600101611201565b5090565b90565b61128791905b8082111561128357600080820160006101000a81549060ff02191690556000820160016101000a81549073ffffffffffffffffffffffffffffffffffffffff021916905560018201600061127a919061128a565b50600201611226565b5090565b90565b50805460018160011615610100020316600290046000825580601f106112b057506112cf565b601f0160209004906000526020600020908101906112ce91906111fb565b5b505600a165627a7a72305820446a9a9a98ceb32a036c12033068a9122425928e6ba3fb143369394f71ef76a80029",
  "source": "/**\r\n *Submitted for verification at Etherscan.io on 2020-07-14\r\n*/\r\n\r\n/**\r\n *Submitted for verification at Etherscan.io on 2020-05-27\r\n*/\r\n\r\n// File: zos-lib/contracts/Initializable.sol\r\n\r\npragma solidity >=0.4.24 <0.6.0;\r\n\r\nimport \"./library/SafeMath.sol\";\r\nimport \"./library/SafeMathInt.sol\";\r\nimport \"./interface/IERC20.sol\";\r\nimport \"./common/Initializable.sol\";\r\nimport \"./common/Ownable.sol\";\r\nimport \"./interface/IOracle.sol\";\r\nimport \"./interface/UInt256Lib.sol\";\r\nimport \"./Oms.sol\";\r\nimport \"./OmsPolicy.sol\";\r\n\r\n/**\r\n * @title Orchestrator\r\n * @notice The orchestrator is the main entry point for rebase operations. It coordinates the policy\r\n * actions with external consumers.\r\n */\r\ncontract Orchestrator is Ownable {\r\n\r\n    struct Transaction {\r\n        bool enabled;\r\n        address destination;\r\n        bytes data;\r\n    }\r\n\r\n    event TransactionFailed(address indexed destination, uint index, bytes data);\r\n\r\n    // Stable ordering is not guaranteed.\r\n    Transaction[] public transactions;\r\n\r\n    OmsPolicy public policy;\r\n\r\n    /**\r\n     * @param policy_ Address of the Oms policy.\r\n     */\r\n    constructor(address policy_) public {\r\n        Ownable.initialize(msg.sender);\r\n        policy = OmsPolicy(policy_);\r\n    }\r\n\r\n    /**\r\n     * @notice Main entry point to initiate a rebase operation.\r\n     *         The Orchestrator calls rebase on the policy and notifies downstream applications.\r\n     *         Contracts are guarded from calling, to avoid flash loan attacks on liquidity\r\n     *         providers.\r\n     *         If a transaction in the transaction list reverts, it is swallowed and the remaining\r\n     *         transactions are executed.\r\n     */\r\n    function rebase()\r\n        external\r\n\t\tonlyOwner\r\n    {\r\n        require(msg.sender == tx.origin);  // solhint-disable-line avoid-tx-origin\r\n\r\n        policy.rebase();\r\n\r\n        for (uint i = 0; i < transactions.length; i++) {\r\n            Transaction storage t = transactions[i];\r\n            if (t.enabled) {\r\n                bool result =\r\n                    externalCall(t.destination, t.data);\r\n                if (!result) {\r\n                    emit TransactionFailed(t.destination, i, t.data);\r\n                    revert(\"Transaction Failed\");\r\n                }\r\n            }\r\n        }\r\n    }\r\n\r\n    /**\r\n     * @notice Adds a transaction that gets called for a downstream receiver of rebases\r\n     * @param destination Address of contract destination\r\n     * @param data Transaction data payload\r\n     */\r\n    function addTransaction(address destination, bytes data)\r\n        external\r\n        onlyOwner\r\n    {\r\n        transactions.push(Transaction({\r\n            enabled: true,\r\n            destination: destination,\r\n            data: data\r\n        }));\r\n    }\r\n\r\n    /**\r\n     * @param index Index of transaction to remove.\r\n     *              Transaction ordering may have changed since adding.\r\n     */\r\n    function removeTransaction(uint index)\r\n        external\r\n        onlyOwner\r\n    {\r\n        require(index < transactions.length, \"index out of bounds\");\r\n\r\n        if (index < transactions.length - 1) {\r\n            transactions[index] = transactions[transactions.length - 1];\r\n        }\r\n\r\n        transactions.length--;\r\n    }\r\n\r\n    /**\r\n     * @param index Index of transaction. Transaction ordering may have changed since adding.\r\n     * @param enabled True for enabled, false for disabled.\r\n     */\r\n    function setTransactionEnabled(uint index, bool enabled)\r\n        external\r\n        onlyOwner\r\n    {\r\n        require(index < transactions.length, \"index must be in range of stored tx list\");\r\n        transactions[index].enabled = enabled;\r\n    }\r\n\r\n    /**\r\n     * @return Number of transactions, both enabled and disabled, in transactions list.\r\n     */\r\n    function transactionsSize()\r\n        external\r\n        view\r\n        returns (uint256)\r\n    {\r\n        return transactions.length;\r\n    }\r\n\r\n    /**\r\n     * @dev wrapper to call the encoded transactions on downstream consumers.\r\n     * @param destination Address of destination contract.\r\n     * @param data The encoded data payload.\r\n     * @return True on success\r\n     */\r\n    function externalCall(address destination, bytes data)\r\n        internal\r\n        returns (bool)\r\n    {\r\n        bool result;\r\n        assembly {  // solhint-disable-line no-inline-assembly\r\n            // \"Allocate\" memory for output\r\n            // (0x40 is where \"free memory\" pointer is stored by convention)\r\n            let outputAddress := mload(0x40)\r\n\r\n            // First 32 bytes are the padded length of data, so exclude that\r\n            let dataAddress := add(data, 32)\r\n\r\n            result := call(\r\n                // 34710 is the value that solidity is currently emitting\r\n                // It includes callGas (700) + callVeryLow (3, to pay for SUB)\r\n                // + callValueTransferGas (9000) + callNewAccountGas\r\n                // (25000, in case the destination address does not exist and needs creating)\r\n                sub(gas, 34710),\r\n\r\n\r\n                destination,\r\n                0, // transfer value in wei\r\n                dataAddress,\r\n                mload(data),  // Size of the input, in bytes. Stored in position 0 of the array.\r\n                outputAddress,\r\n                0  // Output is ignored, therefore the output size is zero\r\n            )\r\n        }\r\n        return result;\r\n    }\r\n}",
  "sourcePath": "F:\\Projects\\Hitesh\\Oms\\contracts\\v4\\Orchestrator.sol",
  "compiler": {
    "name": "solc",
    "version": "0.4.24+commit.e67f0147.Emscripten.clang"
  },
  "schemaVersion": "3.2.2-next.0",
  "updatedAt": "2021-03-03T19:17:44.382Z",
  "devdoc": {
    "methods": {
      "addTransaction(address,bytes)": {
        "params": {
          "data": "Transaction data payload\r",
          "destination": "Address of contract destination\r"
        }
      },
      "initialize(address)": {
        "details": "The Ownable constructor sets the original `owner` of the contract to the sender\r account.\r"
      },
      "isOwner()": {
        "return": "true if `msg.sender` is the owner of the contract.\r"
      },
      "owner()": {
        "return": "the address of the owner.\r"
      },
      "removeTransaction(uint256)": {
        "params": {
          "index": "Index of transaction to remove.\r             Transaction ordering may have changed since adding.\r"
        }
      },
      "renounceOwnership()": {
        "details": "Allows the current owner to relinquish control of the contract.\r"
      },
      "setTransactionEnabled(uint256,bool)": {
        "params": {
          "enabled": "True for enabled, false for disabled.\r",
          "index": "Index of transaction. Transaction ordering may have changed since adding.\r"
        }
      },
      "transactionsSize()": {
        "return": "Number of transactions, both enabled and disabled, in transactions list.\r"
      },
      "transferOwnership(address)": {
        "details": "Allows the current owner to transfer control of the contract to a newOwner.\r",
        "params": {
          "newOwner": "The address to transfer ownership to.\r"
        }
      }
    },
    "title": "Orchestrator\r"
  },
  "userdoc": {
    "methods": {
      "addTransaction(address,bytes)": {
        "notice": "Adds a transaction that gets called for a downstream receiver of rebases\r"
      },
      "rebase()": {
        "notice": "Main entry point to initiate a rebase operation.\r        The Orchestrator calls rebase on the policy and notifies downstream applications.\r        Contracts are guarded from calling, to avoid flash loan attacks on liquidity\r        providers.\r        If a transaction in the transaction list reverts, it is swallowed and the remaining\r        transactions are executed.\r"
      },
      "renounceOwnership()": {
        "notice": "Renouncing to ownership will leave the contract without an owner.\r It will not be possible to call the functions with the `onlyOwner`\r modifier anymore.\r"
      }
    }
  }
}