{
  "contractName": "TokenTorrent",
  "abi": [
    {
      "inputs": [
        {
          "internalType": "contract IERC20",
          "name": "stakingToken",
          "type": "address"
        },
        {
          "internalType": "contract IERC20",
          "name": "distributionToken",
          "type": "address"
        },
        {
          "internalType": "uint256",
          "name": "maxUnlockSchedules",
          "type": "uint256"
        },
        {
          "internalType": "uint256",
          "name": "startBonus_",
          "type": "uint256"
        },
        {
          "internalType": "uint256",
          "name": "bonusPeriodSec_",
          "type": "uint256"
        },
        {
          "internalType": "uint256",
          "name": "initialSharesPerToken",
          "type": "uint256"
        }
      ],
      "payable": false,
      "stateMutability": "nonpayable",
      "type": "constructor"
    },
    {
      "anonymous": false,
      "inputs": [
        {
          "indexed": true,
          "internalType": "address",
          "name": "previousOwner",
          "type": "address"
        },
        {
          "indexed": true,
          "internalType": "address",
          "name": "newOwner",
          "type": "address"
        }
      ],
      "name": "OwnershipTransferred",
      "type": "event"
    },
    {
      "anonymous": false,
      "inputs": [
        {
          "indexed": true,
          "internalType": "address",
          "name": "user",
          "type": "address"
        },
        {
          "indexed": false,
          "internalType": "uint256",
          "name": "amount",
          "type": "uint256"
        },
        {
          "indexed": false,
          "internalType": "uint256",
          "name": "total",
          "type": "uint256"
        },
        {
          "indexed": false,
          "internalType": "bytes",
          "name": "data",
          "type": "bytes"
        }
      ],
      "name": "Staked",
      "type": "event"
    },
    {
      "anonymous": false,
      "inputs": [
        {
          "indexed": true,
          "internalType": "address",
          "name": "user",
          "type": "address"
        },
        {
          "indexed": false,
          "internalType": "uint256",
          "name": "amount",
          "type": "uint256"
        }
      ],
      "name": "TokensClaimed",
      "type": "event"
    },
    {
      "anonymous": false,
      "inputs": [
        {
          "indexed": false,
          "internalType": "uint256",
          "name": "amount",
          "type": "uint256"
        },
        {
          "indexed": false,
          "internalType": "uint256",
          "name": "durationSec",
          "type": "uint256"
        },
        {
          "indexed": false,
          "internalType": "uint256",
          "name": "total",
          "type": "uint256"
        }
      ],
      "name": "TokensLocked",
      "type": "event"
    },
    {
      "anonymous": false,
      "inputs": [
        {
          "indexed": false,
          "internalType": "uint256",
          "name": "amount",
          "type": "uint256"
        },
        {
          "indexed": false,
          "internalType": "uint256",
          "name": "total",
          "type": "uint256"
        }
      ],
      "name": "TokensUnlocked",
      "type": "event"
    },
    {
      "anonymous": false,
      "inputs": [
        {
          "indexed": true,
          "internalType": "address",
          "name": "user",
          "type": "address"
        },
        {
          "indexed": false,
          "internalType": "uint256",
          "name": "amount",
          "type": "uint256"
        },
        {
          "indexed": false,
          "internalType": "uint256",
          "name": "total",
          "type": "uint256"
        },
        {
          "indexed": false,
          "internalType": "bytes",
          "name": "data",
          "type": "bytes"
        }
      ],
      "name": "Unstaked",
      "type": "event"
    },
    {
      "constant": true,
      "inputs": [],
      "name": "BONUS_DECIMALS",
      "outputs": [
        {
          "internalType": "uint256",
          "name": "",
          "type": "uint256"
        }
      ],
      "payable": false,
      "stateMutability": "view",
      "type": "function"
    },
    {
      "constant": true,
      "inputs": [],
      "name": "bonusPeriodSec",
      "outputs": [
        {
          "internalType": "uint256",
          "name": "",
          "type": "uint256"
        }
      ],
      "payable": false,
      "stateMutability": "view",
      "type": "function"
    },
    {
      "constant": true,
      "inputs": [],
      "name": "owner",
      "outputs": [
        {
          "internalType": "address",
          "name": "",
          "type": "address"
        }
      ],
      "payable": false,
      "stateMutability": "view",
      "type": "function"
    },
    {
      "constant": false,
      "inputs": [],
      "name": "renounceOwnership",
      "outputs": [],
      "payable": false,
      "stateMutability": "nonpayable",
      "type": "function"
    },
    {
      "constant": true,
      "inputs": [],
      "name": "startBonus",
      "outputs": [
        {
          "internalType": "uint256",
          "name": "",
          "type": "uint256"
        }
      ],
      "payable": false,
      "stateMutability": "view",
      "type": "function"
    },
    {
      "constant": true,
      "inputs": [],
      "name": "supportsHistory",
      "outputs": [
        {
          "internalType": "bool",
          "name": "",
          "type": "bool"
        }
      ],
      "payable": false,
      "stateMutability": "pure",
      "type": "function"
    },
    {
      "constant": true,
      "inputs": [],
      "name": "totalLockedShares",
      "outputs": [
        {
          "internalType": "uint256",
          "name": "",
          "type": "uint256"
        }
      ],
      "payable": false,
      "stateMutability": "view",
      "type": "function"
    },
    {
      "constant": true,
      "inputs": [],
      "name": "totalStakingShares",
      "outputs": [
        {
          "internalType": "uint256",
          "name": "",
          "type": "uint256"
        }
      ],
      "payable": false,
      "stateMutability": "view",
      "type": "function"
    },
    {
      "constant": false,
      "inputs": [
        {
          "internalType": "address",
          "name": "newOwner",
          "type": "address"
        }
      ],
      "name": "transferOwnership",
      "outputs": [],
      "payable": false,
      "stateMutability": "nonpayable",
      "type": "function"
    },
    {
      "constant": true,
      "inputs": [
        {
          "internalType": "uint256",
          "name": "",
          "type": "uint256"
        }
      ],
      "name": "unlockSchedules",
      "outputs": [
        {
          "internalType": "uint256",
          "name": "initialLockedShares",
          "type": "uint256"
        },
        {
          "internalType": "uint256",
          "name": "unlockedShares",
          "type": "uint256"
        },
        {
          "internalType": "uint256",
          "name": "lastUnlockTimestampSec",
          "type": "uint256"
        },
        {
          "internalType": "uint256",
          "name": "endAtSec",
          "type": "uint256"
        },
        {
          "internalType": "uint256",
          "name": "durationSec",
          "type": "uint256"
        }
      ],
      "payable": false,
      "stateMutability": "view",
      "type": "function"
    },
    {
      "constant": true,
      "inputs": [],
      "name": "getStakingToken",
      "outputs": [
        {
          "internalType": "contract IERC20",
          "name": "",
          "type": "address"
        }
      ],
      "payable": false,
      "stateMutability": "view",
      "type": "function"
    },
    {
      "constant": true,
      "inputs": [],
      "name": "getDistributionToken",
      "outputs": [
        {
          "internalType": "contract IERC20",
          "name": "",
          "type": "address"
        }
      ],
      "payable": false,
      "stateMutability": "view",
      "type": "function"
    },
    {
      "constant": false,
      "inputs": [
        {
          "internalType": "uint256",
          "name": "amount",
          "type": "uint256"
        },
        {
          "internalType": "bytes",
          "name": "data",
          "type": "bytes"
        }
      ],
      "name": "stake",
      "outputs": [],
      "payable": false,
      "stateMutability": "nonpayable",
      "type": "function"
    },
    {
      "constant": false,
      "inputs": [
        {
          "internalType": "address",
          "name": "user",
          "type": "address"
        },
        {
          "internalType": "uint256",
          "name": "amount",
          "type": "uint256"
        },
        {
          "internalType": "bytes",
          "name": "data",
          "type": "bytes"
        }
      ],
      "name": "stakeFor",
      "outputs": [],
      "payable": false,
      "stateMutability": "nonpayable",
      "type": "function"
    },
    {
      "constant": false,
      "inputs": [
        {
          "internalType": "uint256",
          "name": "amount",
          "type": "uint256"
        },
        {
          "internalType": "bytes",
          "name": "data",
          "type": "bytes"
        }
      ],
      "name": "unstake",
      "outputs": [],
      "payable": false,
      "stateMutability": "nonpayable",
      "type": "function"
    },
    {
      "constant": false,
      "inputs": [
        {
          "internalType": "uint256",
          "name": "amount",
          "type": "uint256"
        }
      ],
      "name": "unstakeQuery",
      "outputs": [
        {
          "internalType": "uint256",
          "name": "",
          "type": "uint256"
        }
      ],
      "payable": false,
      "stateMutability": "nonpayable",
      "type": "function"
    },
    {
      "constant": true,
      "inputs": [
        {
          "internalType": "address",
          "name": "addr",
          "type": "address"
        }
      ],
      "name": "totalStakedFor",
      "outputs": [
        {
          "internalType": "uint256",
          "name": "",
          "type": "uint256"
        }
      ],
      "payable": false,
      "stateMutability": "view",
      "type": "function"
    },
    {
      "constant": true,
      "inputs": [],
      "name": "totalStaked",
      "outputs": [
        {
          "internalType": "uint256",
          "name": "",
          "type": "uint256"
        }
      ],
      "payable": false,
      "stateMutability": "view",
      "type": "function"
    },
    {
      "constant": true,
      "inputs": [],
      "name": "token",
      "outputs": [
        {
          "internalType": "address",
          "name": "",
          "type": "address"
        }
      ],
      "payable": false,
      "stateMutability": "view",
      "type": "function"
    },
    {
      "constant": false,
      "inputs": [],
      "name": "updateAccounting",
      "outputs": [
        {
          "internalType": "uint256",
          "name": "",
          "type": "uint256"
        },
        {
          "internalType": "uint256",
          "name": "",
          "type": "uint256"
        },
        {
          "internalType": "uint256",
          "name": "",
          "type": "uint256"
        },
        {
          "internalType": "uint256",
          "name": "",
          "type": "uint256"
        },
        {
          "internalType": "uint256",
          "name": "",
          "type": "uint256"
        },
        {
          "internalType": "uint256",
          "name": "",
          "type": "uint256"
        }
      ],
      "payable": false,
      "stateMutability": "nonpayable",
      "type": "function"
    },
    {
      "constant": true,
      "inputs": [],
      "name": "totalLocked",
      "outputs": [
        {
          "internalType": "uint256",
          "name": "",
          "type": "uint256"
        }
      ],
      "payable": false,
      "stateMutability": "view",
      "type": "function"
    },
    {
      "constant": true,
      "inputs": [],
      "name": "totalUnlocked",
      "outputs": [
        {
          "internalType": "uint256",
          "name": "",
          "type": "uint256"
        }
      ],
      "payable": false,
      "stateMutability": "view",
      "type": "function"
    },
    {
      "constant": true,
      "inputs": [],
      "name": "unlockScheduleCount",
      "outputs": [
        {
          "internalType": "uint256",
          "name": "",
          "type": "uint256"
        }
      ],
      "payable": false,
      "stateMutability": "view",
      "type": "function"
    },
    {
      "constant": false,
      "inputs": [
        {
          "internalType": "uint256",
          "name": "amount",
          "type": "uint256"
        },
        {
          "internalType": "uint256",
          "name": "durationSec",
          "type": "uint256"
        }
      ],
      "name": "lockTokens",
      "outputs": [],
      "payable": false,
      "stateMutability": "nonpayable",
      "type": "function"
    },
    {
      "constant": false,
      "inputs": [],
      "name": "unlockTokens",
      "outputs": [
        {
          "internalType": "uint256",
          "name": "",
          "type": "uint256"
        }
      ],
      "payable": false,
      "stateMutability": "nonpayable",
      "type": "function"
    },
    {
      "constant": false,
      "inputs": [
        {
          "internalType": "address",
          "name": "tokenToRescue",
          "type": "address"
        },
        {
          "internalType": "address",
          "name": "to",
          "type": "address"
        },
        {
          "internalType": "uint256",
          "name": "amount",
          "type": "uint256"
        }
      ],
      "name": "rescueFundsFromStakingPool",
      "outputs": [
        {
          "internalType": "bool",
          "name": "",
          "type": "bool"
        }
      ],
      "payable": false,
      "stateMutability": "nonpayable",
      "type": "function"
    }
  ],
  "bytecode": "0x608060405260006004556000600555600060065560006007556000600855426009556000600a556000600b553480156200003857600080fd5b50604051620040fd380380620040fd833981810160405260c08110156200005e57600080fd5b810190808051906020019092919080519060200190929190805190602001909291908051906020019092919080519060200190929190805190602001909291905050506000339050806000806101000a81548173ffffffffffffffffffffffffffffffffffffffff021916908373ffffffffffffffffffffffffffffffffffffffff1602179055508073ffffffffffffffffffffffffffffffffffffffff16600073ffffffffffffffffffffffffffffffffffffffff167f8be0079c531659141344cd1fd0a4f28419497f9722a3daafe3b4186f6b6457e060405160405180910390a3506002600a0a831115620001a1576040517f08c379a0000000000000000000000000000000000000000000000000000000008152600401808060200182810382526022815260200180620040b06022913960400191505060405180910390fd5b6000821415620001fd576040517f08c379a00000000000000000000000000000000000000000000000000000000081526004018080602001828103825260228152602001806200408e6022913960400191505060405180910390fd5b6000811162000258576040517f08c379a000000000000000000000000000000000000000000000000000000000815260040180806020018281038252602b815260200180620040d2602b913960400191505060405180910390fd5b85604051620002679062000469565b808273ffffffffffffffffffffffffffffffffffffffff1673ffffffffffffffffffffffffffffffffffffffff168152602001915050604051809103906000f080158015620002ba573d6000803e3d6000fd5b50600160006101000a81548173ffffffffffffffffffffffffffffffffffffffff021916908373ffffffffffffffffffffffffffffffffffffffff160217905550846040516200030a9062000469565b808273ffffffffffffffffffffffffffffffffffffffff1673ffffffffffffffffffffffffffffffffffffffff168152602001915050604051809103906000f0801580156200035d573d6000803e3d6000fd5b50600260006101000a81548173ffffffffffffffffffffffffffffffffffffffff021916908373ffffffffffffffffffffffffffffffffffffffff16021790555084604051620003ad9062000469565b808273ffffffffffffffffffffffffffffffffffffffff1673ffffffffffffffffffffffffffffffffffffffff168152602001915050604051809103906000f08015801562000400573d6000803e3d6000fd5b50600360006101000a81548173ffffffffffffffffffffffffffffffffffffffff021916908373ffffffffffffffffffffffffffffffffffffffff160217905550826004819055508160058190555083600a8190555080600b8190555050505050505062000477565b610c66806200342883390190565b612fa180620004876000396000f3fe608060405234801561001057600080fd5b506004361061018e5760003560e01c80637c6aa6f4116100de5780639f9106d111610097578063c8fd6ed011610071578063c8fd6ed0146106c8578063f2fde38b1461074b578063f968f4931461078f578063fc0c546a146107ad5761018e565b80639f9106d114610642578063a779d0801461068c578063c7ae2007146106aa5761018e565b80637c6aa6f414610524578063817b1cd21461054257806381c39bec1461056057806386805dd11461057e57806389158d8e146105c05780638da5cb5b146105f85761018e565b80634b341aed1161014b5780635c94bcb2116101255780635c94bcb21461047c5780637033e4a6146104da57806370c6a17e146104fc578063715018a61461051a5761018e565b80634b341aed1461038057806356891412146103d85780635a72bbef146103f65761018e565b80630e89439b146101935780630ef96356146102165780631dc27fde146102b957806322c12b84146102d757806338b45fde14610321578063494347e71461033f575b600080fd5b610214600480360360408110156101a957600080fd5b8101908080359060200190929190803590602001906401000000008111156101d057600080fd5b8201836020820111156101e257600080fd5b8035906020019184600183028401116401000000008311171561020457600080fd5b90919293919293905050506107f7565b005b6102b76004803603606081101561022c57600080fd5b81019080803573ffffffffffffffffffffffffffffffffffffffff169060200190929190803590602001909291908035906020019064010000000081111561027357600080fd5b82018360208201111561028557600080fd5b803590602001918460018302840111640100000000831117156102a757600080fd5b9091929391929390505050610807565b005b6102c16108c0565b6040518082815260200191505060405180910390f35b6102df6108c5565b604051808273ffffffffffffffffffffffffffffffffffffffff1673ffffffffffffffffffffffffffffffffffffffff16815260200191505060405180910390f35b610329610ae8565b6040518082815260200191505060405180910390f35b610347610aee565b60405180878152602001868152602001858152602001848152602001838152602001828152602001965050505050505060405180910390f35b6103c26004803603602081101561039657600080fd5b81019080803573ffffffffffffffffffffffffffffffffffffffff169060200190929190505050610c64565b6040518082815260200191505060405180910390f35b6103e0610cee565b6040518082815260200191505060405180910390f35b6104626004803603606081101561040c57600080fd5b81019080803573ffffffffffffffffffffffffffffffffffffffff169060200190929190803573ffffffffffffffffffffffffffffffffffffffff16906020019092919080359060200190929190505050610d98565b604051808215151515815260200191505060405180910390f35b6104a86004803603602081101561049257600080fd5b8101908080359060200190929190505050610f63565b604051808681526020018581526020018481526020018381526020018281526020019550505050505060405180910390f35b6104e2610fa6565b604051808215151515815260200191505060405180910390f35b610504610fae565b6040518082815260200191505060405180910390f35b610522610fb4565b005b61052c61111b565b6040518082815260200191505060405180910390f35b61054a611121565b6040518082815260200191505060405180910390f35b6105686111cb565b6040518082815260200191505060405180910390f35b6105aa6004803603602081101561059457600080fd5b81019080803590602001909291905050506111d1565b6040518082815260200191505060405180910390f35b6105f6600480360360408110156105d657600080fd5b8101908080359060200190929190803590602001909291905050506111e3565b005b610600611675565b604051808273ffffffffffffffffffffffffffffffffffffffff1673ffffffffffffffffffffffffffffffffffffffff16815260200191505060405180910390f35b61064a61169e565b604051808273ffffffffffffffffffffffffffffffffffffffff1673ffffffffffffffffffffffffffffffffffffffff16815260200191505060405180910390f35b610694611748565b6040518082815260200191505060405180910390f35b6106b26117f2565b6040518082815260200191505060405180910390f35b610749600480360360408110156106de57600080fd5b81019080803590602001909291908035906020019064010000000081111561070557600080fd5b82018360208201111561071757600080fd5b8035906020019184600183028401116401000000008311171561073957600080fd5b90919293919293905050506117ff565b005b61078d6004803603602081101561076157600080fd5b81019080803573ffffffffffffffffffffffffffffffffffffffff16906020019092919050505061180e565b005b6107976119fa565b6040518082815260200191505060405180910390f35b6107b5611c5c565b604051808273ffffffffffffffffffffffffffffffffffffffff1673ffffffffffffffffffffffffffffffffffffffff16815260200191505060405180910390f35b610802333385611c6b565b505050565b3373ffffffffffffffffffffffffffffffffffffffff16610826611675565b73ffffffffffffffffffffffffffffffffffffffff16146108af576040517f08c379a00000000000000000000000000000000000000000000000000000000081526004018080602001828103825260208152602001807f4f776e61626c653a2063616c6c6572206973206e6f7420746865206f776e657281525060200191505060405180910390fd5b6108ba338585611c6b565b50505050565b600281565b6000600360009054906101000a900473ffffffffffffffffffffffffffffffffffffffff1673ffffffffffffffffffffffffffffffffffffffff1663fc0c546a6040518163ffffffff1660e01b815260040160206040518083038186803b15801561092f57600080fd5b505afa158015610943573d6000803e3d6000fd5b505050506040513d602081101561095957600080fd5b810190808051906020019092919050505073ffffffffffffffffffffffffffffffffffffffff16600260009054906101000a900473ffffffffffffffffffffffffffffffffffffffff1673ffffffffffffffffffffffffffffffffffffffff1663fc0c546a6040518163ffffffff1660e01b815260040160206040518083038186803b1580156109e857600080fd5b505afa1580156109fc573d6000803e3d6000fd5b505050506040513d6020811015610a1257600080fd5b810190808051906020019092919050505073ffffffffffffffffffffffffffffffffffffffff1614610a4057fe5b600260009054906101000a900473ffffffffffffffffffffffffffffffffffffffff1673ffffffffffffffffffffffffffffffffffffffff1663fc0c546a6040518163ffffffff1660e01b815260040160206040518083038186803b158015610aa857600080fd5b505afa158015610abc573d6000803e3d6000fd5b505050506040513d6020811015610ad257600080fd5b8101908080519060200190929190505050905090565b60045481565b600080600080600080610aff6119fa565b506000610b2b600754610b1d6009544261222490919063ffffffff16565b61224490919063ffffffff16565b9050610b428160085461227e90919063ffffffff16565b600881905550426009819055506000600c60003373ffffffffffffffffffffffffffffffffffffffff1673ffffffffffffffffffffffffffffffffffffffff16815260200190815260200160002090506000610bc18260000154610bb384600201544261222490919063ffffffff16565b61224490919063ffffffff16565b9050610bda81836001015461227e90919063ffffffff16565b826001018190555042826002018190555060008060085411610bfd576000610c30565b610c2f600854610c218560010154610c13611748565b61224490919063ffffffff16565b61229d90919063ffffffff16565b5b9050610c3a610cee565b610c42611748565b8460010154600854844299509950995099509950995050505050909192939495565b60008060075411610c76576000610ce7565b610ce6600754610cd8600c60008673ffffffffffffffffffffffffffffffffffffffff1673ffffffffffffffffffffffffffffffffffffffff16815260200190815260200160002060000154610cca611121565b61224490919063ffffffff16565b61229d90919063ffffffff16565b5b9050919050565b6000600360009054906101000a900473ffffffffffffffffffffffffffffffffffffffff1673ffffffffffffffffffffffffffffffffffffffff1663b69ef8a86040518163ffffffff1660e01b815260040160206040518083038186803b158015610d5857600080fd5b505afa158015610d6c573d6000803e3d6000fd5b505050506040513d6020811015610d8257600080fd5b8101908080519060200190929190505050905090565b60003373ffffffffffffffffffffffffffffffffffffffff16610db9611675565b73ffffffffffffffffffffffffffffffffffffffff1614610e42576040517f08c379a00000000000000000000000000000000000000000000000000000000081526004018080602001828103825260208152602001807f4f776e61626c653a2063616c6c6572206973206e6f7420746865206f776e657281525060200191505060405180910390fd5b600160009054906101000a900473ffffffffffffffffffffffffffffffffffffffff1673ffffffffffffffffffffffffffffffffffffffff16636ccae0548585856040518463ffffffff1660e01b8152600401808473ffffffffffffffffffffffffffffffffffffffff1673ffffffffffffffffffffffffffffffffffffffff1681526020018373ffffffffffffffffffffffffffffffffffffffff1673ffffffffffffffffffffffffffffffffffffffff1681526020018281526020019350505050602060405180830381600087803b158015610f1f57600080fd5b505af1158015610f33573d6000803e3d6000fd5b505050506040513d6020811015610f4957600080fd5b810190808051906020019092919050505090509392505050565b600e8181548110610f7057fe5b90600052602060002090600502016000915090508060000154908060010154908060020154908060030154908060040154905085565b600080905090565b60075481565b3373ffffffffffffffffffffffffffffffffffffffff16610fd3611675565b73ffffffffffffffffffffffffffffffffffffffff161461105c576040517f08c379a00000000000000000000000000000000000000000000000000000000081526004018080602001828103825260208152602001807f4f776e61626c653a2063616c6c6572206973206e6f7420746865206f776e657281525060200191505060405180910390fd5b600073ffffffffffffffffffffffffffffffffffffffff166000809054906101000a900473ffffffffffffffffffffffffffffffffffffffff1673ffffffffffffffffffffffffffffffffffffffff167f8be0079c531659141344cd1fd0a4f28419497f9722a3daafe3b4186f6b6457e060405160405180910390a360008060006101000a81548173ffffffffffffffffffffffffffffffffffffffff021916908373ffffffffffffffffffffffffffffffffffffffff160217905550565b60055481565b6000600160009054906101000a900473ffffffffffffffffffffffffffffffffffffffff1673ffffffffffffffffffffffffffffffffffffffff1663b69ef8a86040518163ffffffff1660e01b815260040160206040518083038186803b15801561118b57600080fd5b505afa15801561119f573d6000803e3d6000fd5b505050506040513d60208110156111b557600080fd5b8101908080519060200190929190505050905090565b60065481565b60006111dc826122c3565b9050919050565b3373ffffffffffffffffffffffffffffffffffffffff16611202611675565b73ffffffffffffffffffffffffffffffffffffffff161461128b576040517f08c379a00000000000000000000000000000000000000000000000000000000081526004018080602001828103825260208152602001807f4f776e61626c653a2063616c6c6572206973206e6f7420746865206f776e657281525060200191505060405180910390fd5b600a54600e80549050106112ea576040517f08c379a000000000000000000000000000000000000000000000000000000000815260040180806020018281038252602e815260200180612e33602e913960400191505060405180910390fd5b6112f2610aee565b5050505050506000611302610cee565b9050600080821161132757611322600b548561224490919063ffffffff16565b61134f565b61134e826113408660065461224490919063ffffffff16565b61229d90919063ffffffff16565b5b9050611359612be1565b8181600001818152505042816040018181525050611380844261227e90919063ffffffff16565b81606001818152505083816080018181525050600e8190806001815401808255809150509060018203906000526020600020906005020160009091929091909150600082015181600001556020820151816001015560408201518160020155606082015181600301556080820151816004015550505061140b8260065461227e90919063ffffffff16565b600681905550600360009054906101000a900473ffffffffffffffffffffffffffffffffffffffff1673ffffffffffffffffffffffffffffffffffffffff1663fc0c546a6040518163ffffffff1660e01b815260040160206040518083038186803b15801561147957600080fd5b505afa15801561148d573d6000803e3d6000fd5b505050506040513d60208110156114a357600080fd5b810190808051906020019092919050505073ffffffffffffffffffffffffffffffffffffffff166323b872dd33600360009054906101000a900473ffffffffffffffffffffffffffffffffffffffff16886040518463ffffffff1660e01b8152600401808473ffffffffffffffffffffffffffffffffffffffff1673ffffffffffffffffffffffffffffffffffffffff1681526020018373ffffffffffffffffffffffffffffffffffffffff1673ffffffffffffffffffffffffffffffffffffffff1681526020018281526020019350505050602060405180830381600087803b15801561159057600080fd5b505af11580156115a4573d6000803e3d6000fd5b505050506040513d60208110156115ba57600080fd5b8101908080519060200190929190505050611620576040517f08c379a000000000000000000000000000000000000000000000000000000000815260040180806020018281038252602e815260200180612d3d602e913960400191505060405180910390fd5b7ff346961af4c52f314df1b45964746280fe409abb959d4a2458d58f79408b1fe8858561164b610cee565b60405180848152602001838152602001828152602001935050505060405180910390a15050505050565b60008060009054906101000a900473ffffffffffffffffffffffffffffffffffffffff16905090565b6000600160009054906101000a900473ffffffffffffffffffffffffffffffffffffffff1673ffffffffffffffffffffffffffffffffffffffff1663fc0c546a6040518163ffffffff1660e01b815260040160206040518083038186803b15801561170857600080fd5b505afa15801561171c573d6000803e3d6000fd5b505050506040513d602081101561173257600080fd5b8101908080519060200190929190505050905090565b6000600260009054906101000a900473ffffffffffffffffffffffffffffffffffffffff1673ffffffffffffffffffffffffffffffffffffffff1663b69ef8a86040518163ffffffff1660e01b815260040160206040518083038186803b1580156117b257600080fd5b505afa1580156117c6573d6000803e3d6000fd5b505050506040513d60208110156117dc57600080fd5b8101908080519060200190929190505050905090565b6000600e80549050905090565b611808836122c3565b50505050565b3373ffffffffffffffffffffffffffffffffffffffff1661182d611675565b73ffffffffffffffffffffffffffffffffffffffff16146118b6576040517f08c379a00000000000000000000000000000000000000000000000000000000081526004018080602001828103825260208152602001807f4f776e61626c653a2063616c6c6572206973206e6f7420746865206f776e657281525060200191505060405180910390fd5b600073ffffffffffffffffffffffffffffffffffffffff168173ffffffffffffffffffffffffffffffffffffffff16141561193c576040517f08c379a0000000000000000000000000000000000000000000000000000000008152600401808060200182810382526026815260200180612ce66026913960400191505060405180910390fd5b8073ffffffffffffffffffffffffffffffffffffffff166000809054906101000a900473ffffffffffffffffffffffffffffffffffffffff1673ffffffffffffffffffffffffffffffffffffffff167f8be0079c531659141344cd1fd0a4f28419497f9722a3daafe3b4186f6b6457e060405160405180910390a3806000806101000a81548173ffffffffffffffffffffffffffffffffffffffff021916908373ffffffffffffffffffffffffffffffffffffffff16021790555050565b600080600090506000611a0b610cee565b905060006006541415611a2057809150611aa9565b600080905060008090505b600e80549050811015611a6257611a53611a44826129f9565b8361227e90919063ffffffff16565b91508080600101915050611a2b565b50611a8a600654611a7c848461224490919063ffffffff16565b61229d90919063ffffffff16565b9250611aa18160065461222490919063ffffffff16565b600681905550505b6000821115611c5457600360009054906101000a900473ffffffffffffffffffffffffffffffffffffffff1673ffffffffffffffffffffffffffffffffffffffff1663a9059cbb600260009054906101000a900473ffffffffffffffffffffffffffffffffffffffff16846040518363ffffffff1660e01b8152600401808373ffffffffffffffffffffffffffffffffffffffff1673ffffffffffffffffffffffffffffffffffffffff16815260200182815260200192505050602060405180830381600087803b158015611b7d57600080fd5b505af1158015611b91573d6000803e3d6000fd5b505050506040513d6020811015611ba757600080fd5b8101908080519060200190929190505050611c0d576040517f08c379a0000000000000000000000000000000000000000000000000000000008152600401808060200182810382526030815260200180612e616030913960400191505060405180910390fd5b7f2e444eb379b177e88ce0649c6110a3b01099f03e297127919dd5e3b63a761a9c82611c37610cee565b604051808381526020018281526020019250505060405180910390a15b819250505090565b6000611c6661169e565b905090565b60008111611cc4576040517f08c379a0000000000000000000000000000000000000000000000000000000008152600401808060200182810382526022815260200180612f4b6022913960400191505060405180910390fd5b600073ffffffffffffffffffffffffffffffffffffffff168273ffffffffffffffffffffffffffffffffffffffff161415611d4a576040517f08c379a0000000000000000000000000000000000000000000000000000000008152600401808060200182810382526029815260200180612c8c6029913960400191505060405180910390fd5b60006007541480611d6257506000611d60611121565b115b611db7576040517f08c379a000000000000000000000000000000000000000000000000000000000815260040180806020018281038252604b815260200180612de8604b913960600191505060405180910390fd5b60008060075411611ddc57611dd7600b548361224490919063ffffffff16565b611e0b565b611e0a611de7611121565b611dfc8460075461224490919063ffffffff16565b61229d90919063ffffffff16565b5b905060008111611e66576040517f08c379a0000000000000000000000000000000000000000000000000000000008152600401808060200182810382526027815260200180612d9d6027913960400191505060405180910390fd5b611e6e610aee565b5050505050506000600c60008573ffffffffffffffffffffffffffffffffffffffff1673ffffffffffffffffffffffffffffffffffffffff1681526020019081526020016000209050611ece82826000015461227e90919063ffffffff16565b8160000181905550428160020181905550611ee7612c10565b6040518060400160405280848152602001428152509050600d60008673ffffffffffffffffffffffffffffffffffffffff1673ffffffffffffffffffffffffffffffffffffffff16815260200190815260200160002081908060018154018082558091505090600182039060005260206000209060020201600090919290919091506000820151816000015560208201518160010155505050611f958360075461227e90919063ffffffff16565b600781905550600160009054906101000a900473ffffffffffffffffffffffffffffffffffffffff1673ffffffffffffffffffffffffffffffffffffffff1663fc0c546a6040518163ffffffff1660e01b815260040160206040518083038186803b15801561200357600080fd5b505afa158015612017573d6000803e3d6000fd5b505050506040513d602081101561202d57600080fd5b810190808051906020019092919050505073ffffffffffffffffffffffffffffffffffffffff166323b872dd87600160009054906101000a900473ffffffffffffffffffffffffffffffffffffffff16876040518463ffffffff1660e01b8152600401808473ffffffffffffffffffffffffffffffffffffffff1673ffffffffffffffffffffffffffffffffffffffff1681526020018373ffffffffffffffffffffffffffffffffffffffff1673ffffffffffffffffffffffffffffffffffffffff1681526020018281526020019350505050602060405180830381600087803b15801561211a57600080fd5b505af115801561212e573d6000803e3d6000fd5b505050506040513d602081101561214457600080fd5b81019080805190602001909291905050506121aa576040517f08c379a000000000000000000000000000000000000000000000000000000000815260040180806020018281038252602f815260200180612e91602f913960400191505060405180910390fd5b8473ffffffffffffffffffffffffffffffffffffffff167fc65e53b88159e7d2c0fc12a0600072e28ae53ff73b4c1715369c30f160935142856121ec88610c64565b6040518083815260200182815260200180602001828103825260008152602001602001935050505060405180910390a2505050505050565b60008282111561223357600080fd5b600082840390508091505092915050565b6000808314156122575760009050612278565b600082840290508284828161226857fe5b041461227357600080fd5b809150505b92915050565b60008082840190508381101561229357600080fd5b8091505092915050565b60008082116122ab57600080fd5b60008284816122b657fe5b0490508091505092915050565b60006122cd610aee565b5050505050506000821161232c576040517f08c379a0000000000000000000000000000000000000000000000000000000008152600401808060200182810382526024815260200180612dc46024913960400191505060405180910390fd5b8161233633610c64565b101561238d576040517f08c379a000000000000000000000000000000000000000000000000000000000815260040180806020018281038252603e815260200180612f0d603e913960400191505060405180910390fd5b60006123bd61239a611121565b6123af8560075461224490919063ffffffff16565b61229d90919063ffffffff16565b905060008111612418576040517f08c379a0000000000000000000000000000000000000000000000000000000008152600401808060200182810382526031815260200180612cb56031913960400191505060405180910390fd5b6000600c60003373ffffffffffffffffffffffffffffffffffffffff1673ffffffffffffffffffffffffffffffffffffffff16815260200190815260200160002090506000600d60003373ffffffffffffffffffffffffffffffffffffffff1673ffffffffffffffffffffffffffffffffffffffff16815260200190815260200160002090506000809050600084905060008090505b60008211156125d8576000846001868054905003815481106124cc57fe5b9060005260206000209060020201905060006124f582600101544261222490919063ffffffff16565b90506000809050848360000154116125755761251e82846000015461224490919063ffffffff16565b905061252b848284612aea565b9350612540818761227e90919063ffffffff16565b955061255983600001548661222490919063ffffffff16565b94508680548091906001900361256f9190612c2a565b506125d0565b612588828661224490919063ffffffff16565b9050612595848284612aea565b93506125aa818761227e90919063ffffffff16565b95506125c385846000015461222490919063ffffffff16565b8360000181905550600094505b5050506124ae565b6125ef83866001015461222490919063ffffffff16565b856001018190555061260e86866000015461222490919063ffffffff16565b856000018190555061262b8360085461222490919063ffffffff16565b6008819055506126468660075461222490919063ffffffff16565b600781905550600160009054906101000a900473ffffffffffffffffffffffffffffffffffffffff1673ffffffffffffffffffffffffffffffffffffffff1663a9059cbb338a6040518363ffffffff1660e01b8152600401808373ffffffffffffffffffffffffffffffffffffffff1673ffffffffffffffffffffffffffffffffffffffff16815260200182815260200192505050602060405180830381600087803b1580156126f557600080fd5b505af1158015612709573d6000803e3d6000fd5b505050506040513d602081101561271f57600080fd5b8101908080519060200190929190505050612785576040517f08c379a0000000000000000000000000000000000000000000000000000000008152600401808060200182810382526031815260200180612d0c6031913960400191505060405180910390fd5b600260009054906101000a900473ffffffffffffffffffffffffffffffffffffffff1673ffffffffffffffffffffffffffffffffffffffff1663a9059cbb33836040518363ffffffff1660e01b8152600401808373ffffffffffffffffffffffffffffffffffffffff1673ffffffffffffffffffffffffffffffffffffffff16815260200182815260200192505050602060405180830381600087803b15801561282e57600080fd5b505af1158015612842573d6000803e3d6000fd5b505050506040513d602081101561285857600080fd5b81019080805190602001909291905050506128be576040517f08c379a0000000000000000000000000000000000000000000000000000000008152600401808060200182810382526032815260200180612d6b6032913960400191505060405180910390fd5b3373ffffffffffffffffffffffffffffffffffffffff167faf01bfc8475df280aca00b578c4a948e6d95700f0db8c13365240f7f973c87548961290033610c64565b6040518083815260200182815260200180602001828103825260008152602001602001935050505060405180910390a23373ffffffffffffffffffffffffffffffffffffffff167f896e034966eaaf1adc54acc0f257056febbd300c9e47182cf761982cf1f5e430826040518082815260200191505060405180910390a26000600754148061299657506000612994611121565b115b6129eb576040517f08c379a000000000000000000000000000000000000000000000000000000000815260040180806020018281038252604d815260200180612ec0604d913960600191505060405180910390fd5b809650505050505050919050565b600080600e8381548110612a0957fe5b906000526020600020906005020190508060000154816001015410612a32576000915050612ae5565b600080905081600301544210612a7157612a5d8260010154836000015461222490919063ffffffff16565b905081600301548260020181905550612ac0565b612ab48260040154612aa68460000154612a9886600201544261222490919063ffffffff16565b61224490919063ffffffff16565b61229d90919063ffffffff16565b90504282600201819055505b612ad781836001015461227e90919063ffffffff16565b826001018190555080925050505b919050565b600080612b1b600854612b0d86612aff611748565b61224490919063ffffffff16565b61229d90919063ffffffff16565b90506005548310612b4157612b39818661227e90919063ffffffff16565b915050612bda565b60006002600a0a90506000612bbf82612bb185612ba3612b92600554612b848c612b766004548c61222490919063ffffffff16565b61224490919063ffffffff16565b61229d90919063ffffffff16565b60045461227e90919063ffffffff16565b61224490919063ffffffff16565b61229d90919063ffffffff16565b9050612bd4818861227e90919063ffffffff16565b93505050505b9392505050565b6040518060a0016040528060008152602001600081526020016000815260200160008152602001600081525090565b604051806040016040528060008152602001600081525090565b815481835581811115612c5757600202816002028360005260206000209182019101612c569190612c5c565b5b505050565b612c8891905b80821115612c8457600080820160009055600182016000905550600201612c62565b5090565b9056fe546f6b656e546f7272656e743a2062656e6566696369617279206973207a65726f2061646472657373546f6b656e546f7272656e743a20556e61626c6520746f20756e7374616b6520616d6f756e74207468697320736d616c6c4f776e61626c653a206e6577206f776e657220697320746865207a65726f2061646472657373546f6b656e546f7272656e743a207472616e73666572206f7574206f66207374616b696e6720706f6f6c206661696c6564546f6b656e546f7272656e743a207472616e7366657220696e746f206c6f636b656420706f6f6c206661696c6564546f6b656e546f7272656e743a207472616e73666572206f7574206f6620756e6c6f636b656420706f6f6c206661696c6564546f6b656e546f7272656e743a205374616b6520616d6f756e7420697320746f6f20736d616c6c546f6b656e546f7272656e743a20756e7374616b6520616d6f756e74206973207a65726f546f6b656e546f7272656e743a20496e76616c69642073746174652e205374616b696e67207368617265732065786973742c20627574206e6f207374616b696e6720746f6b656e7320646f546f6b656e546f7272656e743a2072656163686564206d6178696d756d20756e6c6f636b207363686564756c6573546f6b656e546f7272656e743a207472616e73666572206f7574206f66206c6f636b656420706f6f6c206661696c6564546f6b656e546f7272656e743a207472616e7366657220696e746f207374616b696e6720706f6f6c206661696c6564546f6b656e546f7272656e743a204572726f7220756e7374616b696e672e205374616b696e67207368617265732065786973742c20627574206e6f207374616b696e6720746f6b656e7320646f546f6b656e546f7272656e743a20756e7374616b6520616d6f756e742069732067726561746572207468616e20746f74616c2075736572207374616b6573546f6b656e546f7272656e743a207374616b6520616d6f756e74206973207a65726fa265627a7a723158202c8db9a45cdc0a9ea122dca754d42cc86bdee4c841d825456e0d5e04566bf5cd64736f6c63430005100032608060405234801561001057600080fd5b50604051610c66380380610c668339818101604052602081101561003357600080fd5b81019080805190602001909291905050506000339050806000806101000a81548173ffffffffffffffffffffffffffffffffffffffff021916908373ffffffffffffffffffffffffffffffffffffffff1602179055508073ffffffffffffffffffffffffffffffffffffffff16600073ffffffffffffffffffffffffffffffffffffffff167f8be0079c531659141344cd1fd0a4f28419497f9722a3daafe3b4186f6b6457e060405160405180910390a35080600160006101000a81548173ffffffffffffffffffffffffffffffffffffffff021916908373ffffffffffffffffffffffffffffffffffffffff16021790555050610b30806101366000396000f3fe608060405234801561001057600080fd5b506004361061007d5760003560e01c8063a9059cbb1161005b578063a9059cbb1461015c578063b69ef8a8146101c2578063f2fde38b146101e0578063fc0c546a146102245761007d565b80636ccae05414610082578063715018a6146101085780638da5cb5b14610112575b600080fd5b6100ee6004803603606081101561009857600080fd5b81019080803573ffffffffffffffffffffffffffffffffffffffff169060200190929190803573ffffffffffffffffffffffffffffffffffffffff1690602001909291908035906020019092919050505061026e565b604051808215151515815260200191505060405180910390f35b61011061048a565b005b61011a6105f1565b604051808273ffffffffffffffffffffffffffffffffffffffff1673ffffffffffffffffffffffffffffffffffffffff16815260200191505060405180910390f35b6101a86004803603604081101561017257600080fd5b81019080803573ffffffffffffffffffffffffffffffffffffffff1690602001909291908035906020019092919050505061061a565b604051808215151515815260200191505060405180910390f35b6101ca6107b0565b6040518082815260200191505060405180910390f35b610222600480360360208110156101f657600080fd5b81019080803573ffffffffffffffffffffffffffffffffffffffff169060200190929190505050610891565b005b61022c610a7d565b604051808273ffffffffffffffffffffffffffffffffffffffff1673ffffffffffffffffffffffffffffffffffffffff16815260200191505060405180910390f35b60003373ffffffffffffffffffffffffffffffffffffffff1661028f6105f1565b73ffffffffffffffffffffffffffffffffffffffff1614610318576040517f08c379a00000000000000000000000000000000000000000000000000000000081526004018080602001828103825260208152602001807f4f776e61626c653a2063616c6c6572206973206e6f7420746865206f776e657281525060200191505060405180910390fd5b8373ffffffffffffffffffffffffffffffffffffffff16600160009054906101000a900473ffffffffffffffffffffffffffffffffffffffff1673ffffffffffffffffffffffffffffffffffffffff1614156103bf576040517f08c379a0000000000000000000000000000000000000000000000000000000008152600401808060200182810382526032815260200180610aca6032913960400191505060405180910390fd5b8373ffffffffffffffffffffffffffffffffffffffff1663a9059cbb84846040518363ffffffff1660e01b8152600401808373ffffffffffffffffffffffffffffffffffffffff1673ffffffffffffffffffffffffffffffffffffffff16815260200182815260200192505050602060405180830381600087803b15801561044657600080fd5b505af115801561045a573d6000803e3d6000fd5b505050506040513d602081101561047057600080fd5b810190808051906020019092919050505090509392505050565b3373ffffffffffffffffffffffffffffffffffffffff166104a96105f1565b73ffffffffffffffffffffffffffffffffffffffff1614610532576040517f08c379a00000000000000000000000000000000000000000000000000000000081526004018080602001828103825260208152602001807f4f776e61626c653a2063616c6c6572206973206e6f7420746865206f776e657281525060200191505060405180910390fd5b600073ffffffffffffffffffffffffffffffffffffffff166000809054906101000a900473ffffffffffffffffffffffffffffffffffffffff1673ffffffffffffffffffffffffffffffffffffffff167f8be0079c531659141344cd1fd0a4f28419497f9722a3daafe3b4186f6b6457e060405160405180910390a360008060006101000a81548173ffffffffffffffffffffffffffffffffffffffff021916908373ffffffffffffffffffffffffffffffffffffffff160217905550565b60008060009054906101000a900473ffffffffffffffffffffffffffffffffffffffff16905090565b60003373ffffffffffffffffffffffffffffffffffffffff1661063b6105f1565b73ffffffffffffffffffffffffffffffffffffffff16146106c4576040517f08c379a00000000000000000000000000000000000000000000000000000000081526004018080602001828103825260208152602001807f4f776e61626c653a2063616c6c6572206973206e6f7420746865206f776e657281525060200191505060405180910390fd5b600160009054906101000a900473ffffffffffffffffffffffffffffffffffffffff1673ffffffffffffffffffffffffffffffffffffffff1663a9059cbb84846040518363ffffffff1660e01b8152600401808373ffffffffffffffffffffffffffffffffffffffff1673ffffffffffffffffffffffffffffffffffffffff16815260200182815260200192505050602060405180830381600087803b15801561076d57600080fd5b505af1158015610781573d6000803e3d6000fd5b505050506040513d602081101561079757600080fd5b8101908080519060200190929190505050905092915050565b6000600160009054906101000a900473ffffffffffffffffffffffffffffffffffffffff1673ffffffffffffffffffffffffffffffffffffffff166370a08231306040518263ffffffff1660e01b8152600401808273ffffffffffffffffffffffffffffffffffffffff1673ffffffffffffffffffffffffffffffffffffffff16815260200191505060206040518083038186803b15801561085157600080fd5b505afa158015610865573d6000803e3d6000fd5b505050506040513d602081101561087b57600080fd5b8101908080519060200190929190505050905090565b3373ffffffffffffffffffffffffffffffffffffffff166108b06105f1565b73ffffffffffffffffffffffffffffffffffffffff1614610939576040517f08c379a00000000000000000000000000000000000000000000000000000000081526004018080602001828103825260208152602001807f4f776e61626c653a2063616c6c6572206973206e6f7420746865206f776e657281525060200191505060405180910390fd5b600073ffffffffffffffffffffffffffffffffffffffff168173ffffffffffffffffffffffffffffffffffffffff1614156109bf576040517f08c379a0000000000000000000000000000000000000000000000000000000008152600401808060200182810382526026815260200180610aa46026913960400191505060405180910390fd5b8073ffffffffffffffffffffffffffffffffffffffff166000809054906101000a900473ffffffffffffffffffffffffffffffffffffffff1673ffffffffffffffffffffffffffffffffffffffff167f8be0079c531659141344cd1fd0a4f28419497f9722a3daafe3b4186f6b6457e060405160405180910390a3806000806101000a81548173ffffffffffffffffffffffffffffffffffffffff021916908373ffffffffffffffffffffffffffffffffffffffff16021790555050565b600160009054906101000a900473ffffffffffffffffffffffffffffffffffffffff168156fe4f776e61626c653a206e6577206f776e657220697320746865207a65726f2061646472657373546f6b656e506f6f6c3a2043616e6e6f7420636c61696d20746f6b656e2068656c642062792074686520636f6e7472616374a265627a7a723158208cbe8020dfb8fd4f414a3965e26225f3158e7cd38271c6ba1ccf0db9fff399ff64736f6c63430005100032546f6b656e546f7272656e743a20626f6e757320706572696f64206973207a65726f546f6b656e546f7272656e743a20737461727420626f6e757320746f6f2068696768546f6b656e546f7272656e743a20696e697469616c536861726573506572546f6b656e206973207a65726f",
  "source": "pragma solidity 0.5.16;\r\n\r\nimport \"./IStaking.sol\";\r\nimport \"./TokenPool.sol\";\r\nimport \"./common/Ownable.sol\";\r\nimport \"./common/IERC20.sol\";\r\nimport \"./common/SafeMath.sol\";\r\n/**\r\n * @title Token Torrent\r\n * @dev A smart-contract based mechanism to distribute tokens over time, inspired loosely by\r\n *      Compound and Uniswap.\r\n *\r\n *      Distribution tokens are added to a locked pool in the contract and become unlocked over time\r\n *      according to a once-configurable unlock schedule. Once unlocked, they are available to be\r\n *      claimed by users.\r\n *\r\n *      A user may deposit tokens to accrue ownership share over the unlocked pool. This owner share\r\n *      is a function of the number of tokens deposited as well as the length of time deposited.\r\n *      Specifically, a user's share of the currently-unlocked pool equals their \"deposit-seconds\"\r\n *      divided by the global \"deposit-seconds\". This aligns the new token distribution with long\r\n *      term supporters of the project, addressing one of the major drawbacks of simple airdrops.\r\n *\r\n *      More background and motivation available at:\r\n */\r\ncontract TokenTorrent is IStaking, Ownable {\r\n    using SafeMath for uint256;\r\n\r\n    event Staked(\r\n        address indexed user,\r\n        uint256 amount,\r\n        uint256 total,\r\n        bytes data\r\n    );\r\n    event Unstaked(\r\n        address indexed user,\r\n        uint256 amount,\r\n        uint256 total,\r\n        bytes data\r\n    );\r\n    event TokensClaimed(address indexed user, uint256 amount);\r\n    event TokensLocked(uint256 amount, uint256 durationSec, uint256 total);\r\n    // amount: Unlocked tokens, total: Total locked tokens\r\n    event TokensUnlocked(uint256 amount, uint256 total);\r\n\r\n    TokenPool private _stakingPool;\r\n    TokenPool private _unlockedPool;\r\n    TokenPool private _lockedPool;\r\n\r\n    //\r\n    // Time-bonus params\r\n    //\r\n    uint256 public constant BONUS_DECIMALS = 2;\r\n    uint256 public startBonus = 0;\r\n    uint256 public bonusPeriodSec = 0;\r\n\r\n    //\r\n    // Global accounting state\r\n    //\r\n    uint256 public totalLockedShares = 0;\r\n    uint256 public totalStakingShares = 0;\r\n    uint256 private _totalStakingShareSeconds = 0;\r\n    uint256 private _lastAccountingTimestampSec = now;\r\n    uint256 private _maxUnlockSchedules = 0;\r\n    uint256 private _initialSharesPerToken = 0;\r\n\r\n    //\r\n    // User accounting state\r\n    //\r\n    // Represents a single stake for a user. A user may have multiple.\r\n    struct Stake {\r\n        uint256 stakingShares;\r\n        uint256 timestampSec;\r\n    }\r\n\r\n    // Caches aggregated values from the User->Stake[] map to save computation.\r\n    // If lastAccountingTimestampSec is 0, there's no entry for that user.\r\n    struct UserTotals {\r\n        uint256 stakingShares;\r\n        uint256 stakingShareSeconds;\r\n        uint256 lastAccountingTimestampSec;\r\n    }\r\n\r\n    // Aggregated staking values per user\r\n    mapping(address => UserTotals) private _userTotals;\r\n\r\n    // The collection of stakes for each user. Ordered by timestamp, earliest to latest.\r\n    mapping(address => Stake[]) private _userStakes;\r\n\r\n    //\r\n    // Locked/Unlocked Accounting state\r\n    //\r\n    struct UnlockSchedule {\r\n        uint256 initialLockedShares;\r\n        uint256 unlockedShares;\r\n        uint256 lastUnlockTimestampSec;\r\n        uint256 endAtSec;\r\n        uint256 durationSec;\r\n    }\r\n\r\n    UnlockSchedule[] public unlockSchedules;\r\n\r\n    /**\r\n     * @param stakingToken The token users deposit as stake.\r\n     * @param distributionToken The token users receive as they unstake.\r\n     * @param maxUnlockSchedules Max number of unlock stages, to guard against hitting gas limit.\r\n     * @param startBonus_ Starting time bonus, BONUS_DECIMALS fixed point.\r\n     *                    e.g. 25% means user gets 25% of max distribution tokens.\r\n     * @param bonusPeriodSec_ Length of time for bonus to increase linearly to max.\r\n     * @param initialSharesPerToken Number of shares to mint per staking token on first stake.\r\n     */\r\n    constructor(\r\n        IERC20 stakingToken,\r\n        IERC20 distributionToken,\r\n        uint256 maxUnlockSchedules,\r\n        uint256 startBonus_,\r\n        uint256 bonusPeriodSec_,\r\n        uint256 initialSharesPerToken\r\n    ) public {\r\n        // The start bonus must be some fraction of the max. (i.e. <= 100%)\r\n        require(\r\n            startBonus_ <= 10**BONUS_DECIMALS,\r\n            \"TokenTorrent: start bonus too high\"\r\n        );\r\n        // If no period is desired, instead set startBonus = 100%\r\n        // and bonusPeriod to a small value like 1sec.\r\n        require(bonusPeriodSec_ != 0, \"TokenTorrent: bonus period is zero\");\r\n        require(\r\n            initialSharesPerToken > 0,\r\n            \"TokenTorrent: initialSharesPerToken is zero\"\r\n        );\r\n\r\n        _stakingPool = new TokenPool(stakingToken);\r\n        _unlockedPool = new TokenPool(distributionToken);\r\n        _lockedPool = new TokenPool(distributionToken);\r\n        startBonus = startBonus_;\r\n        bonusPeriodSec = bonusPeriodSec_;\r\n        _maxUnlockSchedules = maxUnlockSchedules;\r\n        _initialSharesPerToken = initialSharesPerToken;\r\n    }\r\n\r\n    /**\r\n     * @return The token users deposit as stake.\r\n     */\r\n    function getStakingToken() public view returns (IERC20) {\r\n        return _stakingPool.token();\r\n    }\r\n\r\n    /**\r\n     * @return The token users receive as they unstake.\r\n     */\r\n    function getDistributionToken() public view returns (IERC20) {\r\n        assert(_unlockedPool.token() == _lockedPool.token());\r\n        return _unlockedPool.token();\r\n    }\r\n\r\n    /**\r\n     * @dev Transfers amount of deposit tokens from the user.\r\n     * @param amount Number of deposit tokens to stake.\r\n     * @param data Not used.\r\n     */\r\n    function stake(uint256 amount, bytes calldata data) external {\r\n        _stakeFor(msg.sender, msg.sender, amount);\r\n    }\r\n\r\n    /**\r\n     * @dev Transfers amount of deposit tokens from the caller on behalf of user.\r\n     * @param user User address who gains credit for this stake operation.\r\n     * @param amount Number of deposit tokens to stake.\r\n     * @param data Not used.\r\n     */\r\n    function stakeFor(\r\n        address user,\r\n        uint256 amount,\r\n        bytes calldata data\r\n    ) external onlyOwner {\r\n        _stakeFor(msg.sender, user, amount);\r\n    }\r\n\r\n    /**\r\n     * @dev Private implementation of staking methods.\r\n     * @param staker User address who deposits tokens to stake.\r\n     * @param beneficiary User address who gains credit for this stake operation.\r\n     * @param amount Number of deposit tokens to stake.\r\n     */\r\n    function _stakeFor(\r\n        address staker,\r\n        address beneficiary,\r\n        uint256 amount\r\n    ) private {\r\n        require(amount > 0, \"TokenTorrent: stake amount is zero\");\r\n        require(\r\n            beneficiary != address(0),\r\n            \"TokenTorrent: beneficiary is zero address\"\r\n        );\r\n        require(\r\n            totalStakingShares == 0 || totalStaked() > 0,\r\n            \"TokenTorrent: Invalid state. Staking shares exist, but no staking tokens do\"\r\n        );\r\n\r\n        uint256 mintedStakingShares =\r\n            (totalStakingShares > 0)\r\n                ? totalStakingShares.mul(amount).div(totalStaked())\r\n                : amount.mul(_initialSharesPerToken);\r\n        require(\r\n            mintedStakingShares > 0,\r\n            \"TokenTorrent: Stake amount is too small\"\r\n        );\r\n\r\n        updateAccounting();\r\n\r\n        // 1. User Accounting\r\n        UserTotals storage totals = _userTotals[beneficiary];\r\n        totals.stakingShares = totals.stakingShares.add(mintedStakingShares);\r\n        totals.lastAccountingTimestampSec = now;\r\n\r\n        Stake memory newStake = Stake(mintedStakingShares, now);\r\n        _userStakes[beneficiary].push(newStake);\r\n\r\n        // 2. Global Accounting\r\n        totalStakingShares = totalStakingShares.add(mintedStakingShares);\r\n        // Already set in updateAccounting()\r\n        // _lastAccountingTimestampSec = now;\r\n\r\n        // interactions\r\n        require(\r\n            _stakingPool.token().transferFrom(\r\n                staker,\r\n                address(_stakingPool),\r\n                amount\r\n            ),\r\n            \"TokenTorrent: transfer into staking pool failed\"\r\n        );\r\n\r\n        emit Staked(beneficiary, amount, totalStakedFor(beneficiary), \"\");\r\n    }\r\n\r\n    /**\r\n     * @dev Unstakes a certain amount of previously deposited tokens. User also receives their\r\n     * alotted number of distribution tokens.\r\n     * @param amount Number of deposit tokens to unstake / withdraw.\r\n     * @param data Not used.\r\n     */\r\n    function unstake(uint256 amount, bytes calldata data) external {\r\n        _unstake(amount);\r\n    }\r\n\r\n    /**\r\n     * @param amount Number of deposit tokens to unstake / withdraw.\r\n     * @return The total number of distribution tokens that would be rewarded.\r\n     */\r\n    function unstakeQuery(uint256 amount) public returns (uint256) {\r\n        return _unstake(amount);\r\n    }\r\n\r\n    /**\r\n     * @dev Unstakes a certain amount of previously deposited tokens. User also receives their\r\n     * alotted number of distribution tokens.\r\n     * @param amount Number of deposit tokens to unstake / withdraw.\r\n     * @return The total number of distribution tokens rewarded.\r\n     */\r\n    function _unstake(uint256 amount) private returns (uint256) {\r\n        updateAccounting();\r\n\r\n        // checks\r\n        require(amount > 0, \"TokenTorrent: unstake amount is zero\");\r\n        require(\r\n            totalStakedFor(msg.sender) >= amount,\r\n            \"TokenTorrent: unstake amount is greater than total user stakes\"\r\n        );\r\n        uint256 stakingSharesToBurn =\r\n            totalStakingShares.mul(amount).div(totalStaked());\r\n        require(\r\n            stakingSharesToBurn > 0,\r\n            \"TokenTorrent: Unable to unstake amount this small\"\r\n        );\r\n\r\n        // 1. User Accounting\r\n        UserTotals storage totals = _userTotals[msg.sender];\r\n        Stake[] storage accountStakes = _userStakes[msg.sender];\r\n\r\n        // Redeem from most recent stake and go backwards in time.\r\n        uint256 stakingShareSecondsToBurn = 0;\r\n        uint256 sharesLeftToBurn = stakingSharesToBurn;\r\n        uint256 rewardAmount = 0;\r\n        while (sharesLeftToBurn > 0) {\r\n            Stake storage lastStake = accountStakes[accountStakes.length - 1];\r\n            uint256 stakeTimeSec = now.sub(lastStake.timestampSec);\r\n            uint256 newStakingShareSecondsToBurn = 0;\r\n            if (lastStake.stakingShares <= sharesLeftToBurn) {\r\n                // fully redeem a past stake\r\n                newStakingShareSecondsToBurn = lastStake.stakingShares.mul(\r\n                    stakeTimeSec\r\n                );\r\n                rewardAmount = computeNewReward(\r\n                    rewardAmount,\r\n                    newStakingShareSecondsToBurn,\r\n                    stakeTimeSec\r\n                );\r\n                stakingShareSecondsToBurn = stakingShareSecondsToBurn.add(\r\n                    newStakingShareSecondsToBurn\r\n                );\r\n                sharesLeftToBurn = sharesLeftToBurn.sub(\r\n                    lastStake.stakingShares\r\n                );\r\n                accountStakes.length--;\r\n            } else {\r\n                // partially redeem a past stake\r\n                newStakingShareSecondsToBurn = sharesLeftToBurn.mul(\r\n                    stakeTimeSec\r\n                );\r\n                rewardAmount = computeNewReward(\r\n                    rewardAmount,\r\n                    newStakingShareSecondsToBurn,\r\n                    stakeTimeSec\r\n                );\r\n                stakingShareSecondsToBurn = stakingShareSecondsToBurn.add(\r\n                    newStakingShareSecondsToBurn\r\n                );\r\n                lastStake.stakingShares = lastStake.stakingShares.sub(\r\n                    sharesLeftToBurn\r\n                );\r\n                sharesLeftToBurn = 0;\r\n            }\r\n        }\r\n        totals.stakingShareSeconds = totals.stakingShareSeconds.sub(\r\n            stakingShareSecondsToBurn\r\n        );\r\n        totals.stakingShares = totals.stakingShares.sub(stakingSharesToBurn);\r\n        // Already set in updateAccounting\r\n        // totals.lastAccountingTimestampSec = now;\r\n\r\n        // 2. Global Accounting\r\n        _totalStakingShareSeconds = _totalStakingShareSeconds.sub(\r\n            stakingShareSecondsToBurn\r\n        );\r\n        totalStakingShares = totalStakingShares.sub(stakingSharesToBurn);\r\n        // Already set in updateAccounting\r\n        // _lastAccountingTimestampSec = now;\r\n\r\n        // interactions\r\n        require(\r\n            _stakingPool.transfer(msg.sender, amount),\r\n            \"TokenTorrent: transfer out of staking pool failed\"\r\n        );\r\n        require(\r\n            _unlockedPool.transfer(msg.sender, rewardAmount),\r\n            \"TokenTorrent: transfer out of unlocked pool failed\"\r\n        );\r\n\r\n        emit Unstaked(msg.sender, amount, totalStakedFor(msg.sender), \"\");\r\n        emit TokensClaimed(msg.sender, rewardAmount);\r\n\r\n        require(\r\n            totalStakingShares == 0 || totalStaked() > 0,\r\n            \"TokenTorrent: Error unstaking. Staking shares exist, but no staking tokens do\"\r\n        );\r\n        return rewardAmount;\r\n    }\r\n\r\n    /**\r\n     * @dev Applies an additional time-bonus to a distribution amount. This is necessary to\r\n     *      encourage long-term deposits instead of constant unstake/restakes.\r\n     *      The bonus-multiplier is the result of a linear function that starts at startBonus and\r\n     *      ends at 100% over bonusPeriodSec, then stays at 100% thereafter.\r\n     * @param currentRewardTokens The current number of distribution tokens already alotted for this\r\n     *                            unstake op. Any bonuses are already applied.\r\n     * @param stakingShareSeconds The stakingShare-seconds that are being burned for new\r\n     *                            distribution tokens.\r\n     * @param stakeTimeSec Length of time for which the tokens were staked. Needed to calculate\r\n     *                     the time-bonus.\r\n     * @return Updated amount of distribution tokens to award, with any bonus included on the\r\n     *         newly added tokens.\r\n     */\r\n    function computeNewReward(\r\n        uint256 currentRewardTokens,\r\n        uint256 stakingShareSeconds,\r\n        uint256 stakeTimeSec\r\n    ) private view returns (uint256) {\r\n        uint256 newRewardTokens =\r\n            totalUnlocked().mul(stakingShareSeconds).div(\r\n                _totalStakingShareSeconds\r\n            );\r\n\r\n        if (stakeTimeSec >= bonusPeriodSec) {\r\n            return currentRewardTokens.add(newRewardTokens);\r\n        }\r\n\r\n        uint256 oneHundredPct = 10**BONUS_DECIMALS;\r\n        uint256 bonusedReward =\r\n            startBonus\r\n                .add(\r\n                oneHundredPct.sub(startBonus).mul(stakeTimeSec).div(\r\n                    bonusPeriodSec\r\n                )\r\n            )\r\n                .mul(newRewardTokens)\r\n                .div(oneHundredPct);\r\n        return currentRewardTokens.add(bonusedReward);\r\n    }\r\n\r\n    /**\r\n     * @param addr The user to look up staking information for.\r\n     * @return The number of staking tokens deposited for addr.\r\n     */\r\n    function totalStakedFor(address addr) public view returns (uint256) {\r\n        return\r\n            totalStakingShares > 0\r\n                ? totalStaked().mul(_userTotals[addr].stakingShares).div(\r\n                    totalStakingShares\r\n                )\r\n                : 0;\r\n    }\r\n\r\n    /**\r\n     * @return The total number of deposit tokens staked globally, by all users.\r\n     */\r\n    function totalStaked() public view returns (uint256) {\r\n        return _stakingPool.balance();\r\n    }\r\n\r\n    /**\r\n     * @dev Note that this application has a staking token as well as a distribution token, which\r\n     * may be different. This function is required by EIP-900.\r\n     * @return The deposit token used for staking.\r\n     */\r\n    function token() external view returns (address) {\r\n        return address(getStakingToken());\r\n    }\r\n\r\n    /**\r\n     * @dev A globally callable function to update the accounting state of the system.\r\n     *      Global state and state for the caller are updated.\r\n     * @return [0] balance of the locked pool\r\n     * @return [1] balance of the unlocked pool\r\n     * @return [2] caller's staking share seconds\r\n     * @return [3] global staking share seconds\r\n     * @return [4] Rewards caller has accumulated, optimistically assumes max time-bonus.\r\n     * @return [5] block timestamp\r\n     */\r\n    function updateAccounting()\r\n        public\r\n        returns (\r\n            uint256,\r\n            uint256,\r\n            uint256,\r\n            uint256,\r\n            uint256,\r\n            uint256\r\n        )\r\n    {\r\n        unlockTokens();\r\n\r\n        // Global accounting\r\n        uint256 newStakingShareSeconds =\r\n            now.sub(_lastAccountingTimestampSec).mul(totalStakingShares);\r\n        _totalStakingShareSeconds = _totalStakingShareSeconds.add(\r\n            newStakingShareSeconds\r\n        );\r\n        _lastAccountingTimestampSec = now;\r\n\r\n        // User Accounting\r\n        UserTotals storage totals = _userTotals[msg.sender];\r\n        uint256 newUserStakingShareSeconds =\r\n            now.sub(totals.lastAccountingTimestampSec).mul(\r\n                totals.stakingShares\r\n            );\r\n        totals.stakingShareSeconds = totals.stakingShareSeconds.add(\r\n            newUserStakingShareSeconds\r\n        );\r\n        totals.lastAccountingTimestampSec = now;\r\n\r\n        uint256 totalUserRewards =\r\n            (_totalStakingShareSeconds > 0)\r\n                ? totalUnlocked().mul(totals.stakingShareSeconds).div(\r\n                    _totalStakingShareSeconds\r\n                )\r\n                : 0;\r\n\r\n        return (\r\n            totalLocked(),\r\n            totalUnlocked(),\r\n            totals.stakingShareSeconds,\r\n            _totalStakingShareSeconds,\r\n            totalUserRewards,\r\n            now\r\n        );\r\n    }\r\n\r\n    /**\r\n     * @return Total number of locked distribution tokens.\r\n     */\r\n    function totalLocked() public view returns (uint256) {\r\n        return _lockedPool.balance();\r\n    }\r\n\r\n    /**\r\n     * @return Total number of unlocked distribution tokens.\r\n     */\r\n    function totalUnlocked() public view returns (uint256) {\r\n        return _unlockedPool.balance();\r\n    }\r\n\r\n    /**\r\n     * @return Number of unlock schedules.\r\n     */\r\n    function unlockScheduleCount() public view returns (uint256) {\r\n        return unlockSchedules.length;\r\n    }\r\n\r\n    /**\r\n     * @dev This funcion allows the contract owner to add more locked distribution tokens, along\r\n     *      with the associated \"unlock schedule\". These locked tokens immediately begin unlocking\r\n     *      linearly over the duraction of durationSec timeframe.\r\n     * @param amount Number of distribution tokens to lock. These are transferred from the caller.\r\n     * @param durationSec Length of time to linear unlock the tokens.\r\n     */\r\n    function lockTokens(uint256 amount, uint256 durationSec)\r\n        external\r\n        onlyOwner\r\n    {\r\n        require(\r\n            unlockSchedules.length < _maxUnlockSchedules,\r\n            \"TokenTorrent: reached maximum unlock schedules\"\r\n        );\r\n\r\n        // Update lockedTokens amount before using it in computations after.\r\n        updateAccounting();\r\n\r\n        uint256 lockedTokens = totalLocked();\r\n        uint256 mintedLockedShares =\r\n            (lockedTokens > 0)\r\n                ? totalLockedShares.mul(amount).div(lockedTokens)\r\n                : amount.mul(_initialSharesPerToken);\r\n\r\n        UnlockSchedule memory schedule;\r\n        schedule.initialLockedShares = mintedLockedShares;\r\n        schedule.lastUnlockTimestampSec = now;\r\n        schedule.endAtSec = now.add(durationSec);\r\n        schedule.durationSec = durationSec;\r\n        unlockSchedules.push(schedule);\r\n\r\n        totalLockedShares = totalLockedShares.add(mintedLockedShares);\r\n\r\n        require(\r\n            _lockedPool.token().transferFrom(\r\n                msg.sender,\r\n                address(_lockedPool),\r\n                amount\r\n            ),\r\n            \"TokenTorrent: transfer into locked pool failed\"\r\n        );\r\n        emit TokensLocked(amount, durationSec, totalLocked());\r\n    }\r\n\r\n    /**\r\n     * @dev Moves distribution tokens from the locked pool to the unlocked pool, according to the\r\n     *      previously defined unlock schedules. Publicly callable.\r\n     * @return Number of newly unlocked distribution tokens.\r\n     */\r\n    function unlockTokens() public returns (uint256) {\r\n        uint256 unlockedTokens = 0;\r\n        uint256 lockedTokens = totalLocked();\r\n\r\n        if (totalLockedShares == 0) {\r\n            unlockedTokens = lockedTokens;\r\n        } else {\r\n            uint256 unlockedShares = 0;\r\n            for (uint256 s = 0; s < unlockSchedules.length; s++) {\r\n                unlockedShares = unlockedShares.add(unlockScheduleShares(s));\r\n            }\r\n            unlockedTokens = unlockedShares.mul(lockedTokens).div(\r\n                totalLockedShares\r\n            );\r\n            totalLockedShares = totalLockedShares.sub(unlockedShares);\r\n        }\r\n\r\n        if (unlockedTokens > 0) {\r\n            require(\r\n                _lockedPool.transfer(address(_unlockedPool), unlockedTokens),\r\n                \"TokenTorrent: transfer out of locked pool failed\"\r\n            );\r\n            emit TokensUnlocked(unlockedTokens, totalLocked());\r\n        }\r\n\r\n        return unlockedTokens;\r\n    }\r\n\r\n    /**\r\n     * @dev Returns the number of unlockable shares from a given schedule. The returned value\r\n     *      depends on the time since the last unlock. This function updates schedule accounting,\r\n     *      but does not actually transfer any tokens.\r\n     * @param s Index of the unlock schedule.\r\n     * @return The number of unlocked shares.\r\n     */\r\n    function unlockScheduleShares(uint256 s) private returns (uint256) {\r\n        UnlockSchedule storage schedule = unlockSchedules[s];\r\n\r\n        if (schedule.unlockedShares >= schedule.initialLockedShares) {\r\n            return 0;\r\n        }\r\n\r\n        uint256 sharesToUnlock = 0;\r\n        // Special case to handle any leftover dust from integer division\r\n        if (now >= schedule.endAtSec) {\r\n            sharesToUnlock = (\r\n                schedule.initialLockedShares.sub(schedule.unlockedShares)\r\n            );\r\n            schedule.lastUnlockTimestampSec = schedule.endAtSec;\r\n        } else {\r\n            sharesToUnlock = now\r\n                .sub(schedule.lastUnlockTimestampSec)\r\n                .mul(schedule.initialLockedShares)\r\n                .div(schedule.durationSec);\r\n            schedule.lastUnlockTimestampSec = now;\r\n        }\r\n\r\n        schedule.unlockedShares = schedule.unlockedShares.add(sharesToUnlock);\r\n        return sharesToUnlock;\r\n    }\r\n\r\n    /**\r\n     * @dev Lets the owner rescue funds air-dropped to the staking pool.\r\n     * @param tokenToRescue Address of the token to be rescued.\r\n     * @param to Address to which the rescued funds are to be sent.\r\n     * @param amount Amount of tokens to be rescued.\r\n     * @return Transfer success.\r\n     */\r\n    function rescueFundsFromStakingPool(\r\n        address tokenToRescue,\r\n        address to,\r\n        uint256 amount\r\n    ) public onlyOwner returns (bool) {\r\n        return _stakingPool.rescueFunds(tokenToRescue, to, amount);\r\n    }\r\n}",
  "sourcePath": "F:\\Projects\\kyyle\\deployment-tests\\contracts\\v5\\TokenTorrent.sol",
  "compiler": {
    "name": "solc",
    "version": "0.5.16+commit.9c3226ce.Emscripten.clang"
  },
  "schemaVersion": "3.2.2-next.0",
  "updatedAt": "2021-03-29T21:25:53.208Z",
  "devdoc": {
    "details": "A smart-contract based mechanism to distribute tokens over time, inspired loosely by     Compound and Uniswap.  *      Distribution tokens are added to a locked pool in the contract and become unlocked over time     according to a once-configurable unlock schedule. Once unlocked, they are available to be     claimed by users.  *      A user may deposit tokens to accrue ownership share over the unlocked pool. This owner share     is a function of the number of tokens deposited as well as the length of time deposited.     Specifically, a user's share of the currently-unlocked pool equals their \"deposit-seconds\"     divided by the global \"deposit-seconds\". This aligns the new token distribution with long     term supporters of the project, addressing one of the major drawbacks of simple airdrops.  *      More background and motivation available at:",
    "methods": {
      "constructor": {
        "params": {
          "bonusPeriodSec_": "Length of time for bonus to increase linearly to max.",
          "distributionToken": "The token users receive as they unstake.",
          "initialSharesPerToken": "Number of shares to mint per staking token on first stake.",
          "maxUnlockSchedules": "Max number of unlock stages, to guard against hitting gas limit.",
          "stakingToken": "The token users deposit as stake.",
          "startBonus_": "Starting time bonus, BONUS_DECIMALS fixed point.                   e.g. 25% means user gets 25% of max distribution tokens."
        }
      },
      "getDistributionToken()": {
        "return": "The token users receive as they unstake."
      },
      "getStakingToken()": {
        "return": "The token users deposit as stake."
      },
      "lockTokens(uint256,uint256)": {
        "details": "This funcion allows the contract owner to add more locked distribution tokens, along     with the associated \"unlock schedule\". These locked tokens immediately begin unlocking     linearly over the duraction of durationSec timeframe.",
        "params": {
          "amount": "Number of distribution tokens to lock. These are transferred from the caller.",
          "durationSec": "Length of time to linear unlock the tokens."
        }
      },
      "owner()": {
        "details": "Returns the address of the current owner."
      },
      "renounceOwnership()": {
        "details": "Leaves the contract without owner. It will not be possible to call `onlyOwner` functions anymore. Can only be called by the current owner.      * NOTE: Renouncing ownership will leave the contract without an owner, thereby removing any functionality that is only available to the owner."
      },
      "rescueFundsFromStakingPool(address,address,uint256)": {
        "details": "Lets the owner rescue funds air-dropped to the staking pool.",
        "params": {
          "amount": "Amount of tokens to be rescued.",
          "to": "Address to which the rescued funds are to be sent.",
          "tokenToRescue": "Address of the token to be rescued."
        },
        "return": "Transfer success."
      },
      "stake(uint256,bytes)": {
        "details": "Transfers amount of deposit tokens from the user.",
        "params": {
          "amount": "Number of deposit tokens to stake.",
          "data": "Not used."
        }
      },
      "stakeFor(address,uint256,bytes)": {
        "details": "Transfers amount of deposit tokens from the caller on behalf of user.",
        "params": {
          "amount": "Number of deposit tokens to stake.",
          "data": "Not used.",
          "user": "User address who gains credit for this stake operation."
        }
      },
      "supportsHistory()": {
        "return": "False. This application does not support staking history."
      },
      "token()": {
        "details": "Note that this application has a staking token as well as a distribution token, which may be different. This function is required by EIP-900.",
        "return": "The deposit token used for staking."
      },
      "totalLocked()": {
        "return": "Total number of locked distribution tokens."
      },
      "totalStaked()": {
        "return": "The total number of deposit tokens staked globally, by all users."
      },
      "totalStakedFor(address)": {
        "params": {
          "addr": "The user to look up staking information for."
        },
        "return": "The number of staking tokens deposited for addr."
      },
      "totalUnlocked()": {
        "return": "Total number of unlocked distribution tokens."
      },
      "transferOwnership(address)": {
        "details": "Transfers ownership of the contract to a new account (`newOwner`). Can only be called by the current owner."
      },
      "unlockScheduleCount()": {
        "return": "Number of unlock schedules."
      },
      "unlockTokens()": {
        "details": "Moves distribution tokens from the locked pool to the unlocked pool, according to the     previously defined unlock schedules. Publicly callable.",
        "return": "Number of newly unlocked distribution tokens."
      },
      "unstake(uint256,bytes)": {
        "details": "Unstakes a certain amount of previously deposited tokens. User also receives their alotted number of distribution tokens.",
        "params": {
          "amount": "Number of deposit tokens to unstake / withdraw.",
          "data": "Not used."
        }
      },
      "unstakeQuery(uint256)": {
        "params": {
          "amount": "Number of deposit tokens to unstake / withdraw."
        },
        "return": "The total number of distribution tokens that would be rewarded."
      },
      "updateAccounting()": {
        "details": "A globally callable function to update the accounting state of the system.     Global state and state for the caller are updated.",
        "return": "[0] balance of the locked pool[1] balance of the unlocked pool[2] caller's staking share seconds[3] global staking share seconds[4] Rewards caller has accumulated, optimistically assumes max time-bonus.[5] block timestamp"
      }
    },
    "title": "Token Torrent"
  },
  "userdoc": {
    "methods": {}
  }
}